:020000040800F2
:10000000F01F0020C10200087B2300082122000805
:1000100079230008E3060008EB3E0008000000001A
:10002000000000000000000000000000872700081A
:100030005907000800000000BF26000893270008A9
:10004000DB020008DB020008DB020008DB0200081C
:10005000DB020008DB020008DB020008DB0200080C
:10006000DB020008DB020008DB020008DB020008FC
:10007000DB020008DB020008DB020008DB020008EC
:10008000DB02000800000000DB020008713E0008EF
:100090007D3E0008DB020008DB020008DB020008EE
:1000A000DB020008DB020008DB020008DB020008BC
:1000B000DB020008DB020008DB020008DB020008AC
:1000C000DB020008DB020008DB020008DB0200089C
:1000D000DB020008DB020008DB020008DB0200088C
:1000E000DB020008DB020008DB020008DB0200087C
:1000F000DB020008DB020008DB0200080000000051
:1001000000000000DB02000800000000DB02000825
:10011000DB02000800000000DB020008DB02000830
:10012000DB020008DB020008DB020008DB0200083B
:10013000DB0200080000000000000000DB020008F5
:10014000DB020008DB0200080000000000000000E5
:10015000000000000000000000000000000000009F
:10016000000000000000000000000000DB020008AA
:10017000DB0200080000000000000000000000009A
:1001800000000000DB02000800000000000000008A
:10019000000000000000000000000000000000005F
:1001A0000000000000000000DB020008DB02000885
:1001B000DB020008DB020008DB0200080000000090
:1001C00000000000DB02000800000000000000004A
:1001D000DB020008DB02000800F002F800F061F822
:1001E0000AA090E8000C82448344AAF10107DA4592
:1001F00001D100F056F8AFF2090EBAE80F0013F083
:10020000010F18BFFB1A43F001031847DC3E000042
:10021000FC3E00000A444FF0000C10F8013B13F0C4
:10022000070408BF10F8014B1D1108BF10F8015B4F
:10023000641E05D010F8016B641E01F8016BF9D142
:1002400013F0080F1EBF10F8014BAD1C0C1B09D199
:100250006D1E58BF01F801CBFAD505E014F8016B0B
:1002600001F8016B6D1EF9D59142D6D3704700009D
:100270000023002400250026103A28BF78C1FBD8AF
:10028000520728BF30C148BF0B607047642900F097
:100290007580002070471FB503F010FF1FBD10B51B
:1002A00010BD00F0E4F91146FFF7F5FF03F09AFEE8
:1002B00000F002FA03B4FFF7F2FF03BC00F00AFA01
:1002C0000948804709480047FEE7FEE7FEE7FEE7EA
:1002D000FEE7FEE7FEE7FEE7FEE7FEE70448054926
:1002E000054A064B7047000019280008D90100088C
:1002F000F0130020F01F0020F01B0020F01B002056
:100300000FB41CB5084B06AA7B44694600900598BB
:1003100000F095F904460020694600F0A3F9204654
:100320001CBC5DF814FB00005903000070B50446C6
:1003300085690068C10601D5302600E02026C00787
:1003400007D070BDD4E9012130469047206A401C97
:1003500020626D1EF6D570BD70B5044685690078C3
:10036000C00707D170BDD4E9012120209047206A41
:10037000401C20626D1EF6D570BD00002DE9F041D5
:100380000646002410687529314616A510D0AFF333
:100390000080002802DA404213A507E031688A078E
:1003A00001D512A502E0490704D511A5012401E0F9
:1003B000AFF3008000210A2206F1240709E0B0FB18
:1003C000F2FCB0FBF2F302FB1C003030785418460C
:1003D000491C0028F3D123462A463046BDE8F041A7
:1003E00000F0CEB8000000002D0000002B0000003F
:1003F000200000002DE9F05F894604464FF0000A16
:10040000DFF824B1FB44C0F820A02046E16888470B
:1004100000287DD0252806D0D4E901219047206A04
:10042000401C2062F1E700255F462046E1688847CE
:100430002028064607DB312E05D2B81910F8200C0B
:1004400008B10543F1E7A80701D525F00405C4F874
:100450001CA00027C4F818A02A2E09D0304603F0AB
:1004600055FD38B304EB8708303EC8F8186019E032
:1004700059F8041B204604EB87029161E168884724
:10048000012F064618D1E069002820DA25F0200562
:100490001DE0D8F8180000EB800006EB4000303873
:1004A000C8F818002046E1688847064603F02EFD8C
:1004B0000028EED1012F0AD02E2E08D12046E16867
:1004C00088477F1C0646022F45F02005C4DBA06943
:1004D000002803DA404245F00105A061E80701D099
:1004E00025F01005A6B1A6F14100192802D8203642
:1004F00045F400654A463146204625604D46FFF7E3
:10050000C5FE60B1012807D0ED1D25F0070000E011
:1005100007E000F1080978E705F1040975E73046BE
:100520007AE7206ABDE8F09FCE3C00004FF0000261
:1005300000B5134694469646203922BFA0E80C50D9
:10054000A0E80C50B1F12001BFF4F7AF090728BFB4
:10055000A0E80C5048BF0CC05DF804EB890028BF30
:1005600040F8042B08BF704748BF20F8022B11F059
:10057000804F18BF00F8012B7047704770477047D5
:100580002DE9F0470D4699469246044600F12408AD
:100590000168880604D5E06921F01001216000E0BF
:1005A0000120A84201DD471B00E00027A1697A195C
:1005B00002EB0900081AA0612078C00602D4204688
:1005C000FFF7B4FE002608E0D4E901211AF806007E
:1005D0009047206A401C761C20624E45F4DB207850
:1005E000C0060AD52046FFF7A1FE06E0D4E90121A6
:1005F00030209047206A401C2062381EA7F1010776
:10060000F4DC07E0D4E9012118F805009047206ADE
:10061000401C2062281EA5F10105F3DC2046FFF7EF
:100620009BFE2078000602D50220BDE8F08701205D
:10063000FBE7000001694A1C02610878704700B5B9
:100640008FB0CDE901310021059105497944CDE90B
:10065000031011466846FFF7CDFE0FB000BD000045
:10066000E5FFFFFF0A6802F8010B0A607047754654
:1006700000F02CF8AE4605006946534620F007000E
:10068000854618B020B5FFF729FEBDE820404FF0A1
:1006900000064FF000074FF000084FF0000B21F06C
:1006A0000701AC46ACE8C009ACE8C009ACE8C00939
:1006B000ACE8C0098D46704710B50446AFF3008022
:1006C0002046BDE81040FFF7F5BD00000048704728
:1006D0009013002001491820ABBEFEE7260002005F
:1006E0007047FEE7002070470020704710B50022D9
:1006F0000449054802F01BFA0449034802F00EFAC7
:10070000002010BD900F0020C0060020900B00209C
:1007100010B50146034802F001FA024802F0C6F99A
:10072000002010BDC006002000207047094A10B507
:10073000D2F8BC22D2F814220AB1012010BD0A4618
:100740000146044802F0F3F9BDE81040014802F008
:1007500058BA0000C0060020704772B6FEE70000DD
:100760002DE9F04FDFF82092002301260324A9F1A0
:10077000040B85B00F2709F1040AABF1040EFAE06F
:1007800006FA03F52A407CD091F804C00CF0030C63
:10079000BCF1010F02D0BCF1020F26D1D0F808C085
:1007A000CDF800C04FEA430C04FA0CF8CDF810C0A5
:1007B000DDF800C02CEA080CCDF800C0D1F80C80A0
:1007C000DDF810C008FA0CF8DDF800C048EA0C08A3
:1007D000C0F80880D0F804C02CEA050C0D79C5F3E8
:1007E00000159D4045EA0C0545600D79ED43AD07C8
:1007F0000ED0C5684FEA430804FA08FC25EA0C0548
:10080000D1F808C00CFA08FC4CEA050CC0F80CC082
:100810000D7905F00305022D16D1DD0800EB850CDE
:10082000CDF808C0DCF820805D074FEAD56C07FAE8
:100830000CF528EA05080D6905FA0CF5DDF808C085
:1008400045EA0805CCF8205005684FEA430CCDF87E
:1008500008C004FA0CFC25EA0C0591F804C00CF061
:100860000308DDF808C008FA0CF848EA0508C0F8E3
:1008700000804D6815F4403F7CD0444DD5F860C0F1
:1008800000E077E04CF0010CC5F860C02D6E23F05D
:10089000030C05F0010500953D4D65440295AD68DA
:1008A0004FEA837C4FEA1C7807FA08FC25EA0C051E
:1008B000B0F1904F06D0DFF8DCC0604505D14FF0B5
:1008C000010C20E04FF0000C1DE0DFF8CCC06045CB
:1008D00002D14FF0020C16E0DFF8C0C0604502D133
:1008E0004FF0030C0FE0DFF8B8C0604502D14FF0C5
:1008F000040C08E0DFF8ACC0604502D14FF0050CF5
:1009000001E04FF0060C0CFA08FC4CEA050C029DC5
:10091000C5F808C0D9F80050CC46D1F804809543FA
:100920005FEAC82800D51543CCF80050DAF800502B
:10093000D446D1F8048095435FEA882800D5154352
:10094000CCF80050DBF80050DC46D1F80480954329
:100950005FEA883800D51543CCF80050DEF8005027
:10096000F446D1F8048095435FEAC83800D51543B2
:10097000CCF800505B1C0A6832FA03F57FF400AF34
:1009800005B0BDE8F08F00000804014000100240EF
:10099000000001400004004800080048000C004826
:1009A00000100048001400480069084000D00120F1
:1009B0007047426921EA02030A4043EA0241816129
:1009C00070470AB181617047816270470148806851
:1009D000704700000400002002488168426811440A
:1009E000816070470400002010B50024032000F04F
:1009F00073F80F2000F008F808B1012401E000F0BE
:100A000025F8204610BD000070B50E4E05460024A6
:100A1000706898B14FF47A71B1FBF0F00A49096837
:100A2000B1FBF0F001F0E8FB40B9102D06D2002236
:100A30002946501E00F030F8356000E001242046C1
:100A400070BD000004000020100000200A4882B0A1
:100A5000016E41F001010166016E01F0010100919A
:100A6000816D41F080518165806D00F08050009073
:100A700002B000F0AFBD000000100240002809DB0A
:100A800000F01F02012191404009800000F1E020A8
:100A9000C0F8001170470000F0B40E4B1B680C4604
:100AA000C3F30223C3F10705042D00D90425191D42
:100AB000072901D2002300E0DB1E012606FA05F11A
:100AC000491E214099409E40761E16403143F0BC9D
:100AD00003F00CBA0CED00E0064900F007020868CC
:100AE0004FF6FF03184040EA0220034A1043086013
:100AF000704700000CED00E00000FA0501220168DB
:100B0000C0F8D022002280F8C82231F8540F40F0FB
:100B100001000880088840F00200088010467047F5
:100B200070B50F4D044669B101290AD1D4F8D80235
:100B300002F03BFB607A002803D0286840F00600F2
:100B4000286070BD607A28B101F026FE286820F088
:100B500006002860D4F8D802BDE8704002F0BDBAA3
:100B600010ED00E010B50C0607D501F0070101EB10
:100B7000810100EBC100103005E001EB810100EBC9
:100B8000C10000F5A87099B232B10122027301814F
:100B9000190C4181002010BD00220273C180F9E7C9
:100BA00001EB810200EBC202D0F8D802526A02F0D7
:100BB00070B901EB810200EBC202D0F8D802D2F882
:100BC000642102F0BAB970B504460B0601F00700C3
:100BD00000EB800104EBC1014FF001024FF0000572
:100BE00002D54A74103103E081F8515101F5A87122
:100BF000087094F89002012808D084F890222068A8
:100C000002F085FE84F89052002070BD022070BD75
:100C100070B5044601F00F002279904201D90120FD
:100C200070BD0B0601F0070000EB800104EBC10171
:100C30004FF001024FF0000502D54A74103103E075
:100C400081F8515101F5A8718D70087094F89002E7
:100C5000012808D084F89022206802F0F7FE84F87A
:100C60009052002070BD022070BD2DE9F04704684D
:100C70005FEA42480B788D69B4F850804FF0000C61
:100C80004BF68F7748F2800648F68F7948F2C00A13
:100C9000444428D540F2024808EBC30834F8084021
:100CA000C4F30904A54203D32D1B8D6102D00BE0D0
:100CB000C1F818C0D0F800C03CF823503D4085F47E
:100CC000005535432CF82350520609D50B7805689A
:100CD00035F8232002EA090242EA0A0225F8232015
:100CE00074B30A8927E040F2064808EBC30834F8D9
:100CF0000840C4F30904A54203D32D1B8D6102D023
:100D00000BE0C1F818C0D0F800C03CF823503D40BB
:100D100085F4005535432CF82350520609D40D783C
:100D2000036833F8252002EA090242EA0A0223F89E
:100D300025202CB14A8949690068234603F0A7F8A9
:100D40002046BDE8F0872DE9F05F054600680C46B7
:100D50005FEA42681646D1F818C02278B0F8508091
:100D600048F6BF7A48F2800B48F68F774CF280093C
:100D70004FF6FF734FF4004E4FF0000140447DD515
:100D800040F2024808EBC20830F80800C0F309003E
:100D9000844514D9BCEB000CC4F818C010D07604FC
:100DA00008D5D5F800C03CF822603E4046EA090666
:100DB0002CF8226094F82420012A60D076E1A16109
:100DC000607810B1012813D01AE02868B0F85030CC
:100DD000184400EBC200B0F80224C2F30902A0F8E4
:100DE0000224B0F8022442F40042A0F8022407E0F2
:100DF0002868B0F85030184400EBC200A0F8021484
:100E00006278286812B1012A11D018E0B0F85010A9
:100E10000844217800EBC100B0F80614C1F30901C1
:100E2000A0F80614B0F8061441F4004105E0B0F84B
:100E300050201044227800EBC200A0F80614E0789D
:100E400002280BD12278296831F8220000EA0A0032
:100E500080F0200040EA0B0021F82200217828468B
:100E6000FFF79EFE700408D521782A6832F8210029
:100E7000384040EA090022F82100C3E04DE06269F1
:100E800002446261E2690244E2612669226AB24276
:100E900002D33046111A03E084F824100AB1104638
:100EA0002162617811B101292BD033E02968B1F8B2
:100EB00050201144227801EBC201B1F80224C2F3A0
:100EC0000902A1F8022401F2024158B13E280ED8CD
:100ED0004208C60700D0521C0E8803EA822216433D
:100EE0000E8017E00A8842F400420A8012E04209AC
:100EF000C30600D1521E0B884EEA822213430B8098
:100F000008E02968B1F850201144227801EBC201B1
:100F1000A1F8020483B22289C4E040F2064808EB3B
:100F2000C20830F80800C0F30900844514D3BCEBB4
:100F3000000CC4F818C010D0760408D4D5F800C04E
:100F40003CF822603E4046EA09062CF8226094F8FC
:100F50002420012A59D0A9E0A161607810B10128AC
:100F600013D01AE02868B0F85030184400EBC200E3
:100F7000B0F80224C2F30902A0F80224B0F8022457
:100F800042F40042A0F8022407E02868B0F850308C
:100F9000184400EBC200A0F802146278286812B16D
:100FA000012A11D018E0B0F850100844217800EB65
:100FB000C100B0F80614C1F30901A0F80614B0F896
:100FC000061441F4004105E0B0F8502010442278A6
:100FD00000EBC200A0F80614E07802280BD12178BB
:100FE0002A6832F8210000EA0A0080F0200040EA76
:100FF0000B0022F8210021782846FFF7D1FD70046C
:101000007FF532AF0020BDE8F09F62690244626163
:10101000E2690244E2612669226AB24203D33046A1
:10102000111A216204E00AB11046216284F82410EA
:101030006278296812B1012A2AD031E0B1F8502033
:101040001144227801EBC201B1F80624C2F309026F
:10105000A1F8062401F2064158B13E280ED84208F4
:10106000C60700D0521C0E8803EA822216430E8067
:1010700016E00A8842F400420A8011E04209C306E1
:1010800000D1521E0B884EEA822213430B8007E0E8
:10109000B1F850201144227801EBC201A1F80604F6
:1010A000628983B26169286802F00CFF227829689E
:1010B00031F8220000EA0A0080F0300040EA0B001C
:1010C00021F822009EE701F0070101EB810100EB0E
:1010D000C100D0F86C0170472DE9F04104460F06BD
:1010E00001F0070000EB800104EBC1014FF00106A5
:1010F0004FF0000502D54E74103103E081F85151D4
:1011000001F5A871022B0870C2F30A000861CB70C8
:1011100000D10D7194F89002012809D084F89062F2
:10112000206802F03FFA284684F89052BDE8F0812A
:101130000220FBE710B501F0070404EB840100EB8B
:10114000C101C1E959230022C1F86C2181F8512164
:1011500081F85041006801F5A87102F0C9FC002037
:1011600010BD70B5044601F007002279904201D904
:10117000012070BD0B064FF000054FF0010206D5AF
:1011800000EB800104EBC1014A74103107E001EB70
:10119000810104EBC10181F8515101F5A8718A70F8
:1011A000087094F89002012808D084F890222068F2
:1011B00002F084FC84F89052002070BD022070BDC3
:1011C00010B501F0070404EB840100EBC101C1E993
:1011D0000923012281F834200B630023CB624A7477
:1011E00001F8104F006802F083FC002010BD10B51C
:1011F0000446006802F048FE010404D52046BDE81C
:10120000104001F0BBB841050ED5206830F8441FEE
:1012100021F480610180204600F010F92046BDE8ED
:101220001040002100F036B9410405D5206830F89F
:10123000441F21F480417DE0810405D5206830F809
:10124000441F21F4005175E0C1041FD5206830F817
:10125000401F21F004010180206830F8401F21F078
:101260000801018094F8C802012806D1002084F802
:10127000C80201462046FFF753FC204600F0F2F872
:10128000206830F8441F21F4805153E0010512D545
:10129000206830F8401F41F008010180206830F8D4
:1012A000441F21F400610180206830F8401F41F0A4
:1012B000040101800AE0010629D5206830F8441FA6
:1012C00021F08001018094F8C80218B1204600F096
:1012D00011F910BD206830F8401F41F00401018071
:1012E000206830F8401F41F008010180012084F897
:1012F000C8022068B0F854003C2101EA9000C4F80C
:10130000CC022046BDE810400121FFF709BC810551
:1013100009D5206830F8441F21F40071018020466F
:1013200000F0B4F810BDC005FCD5206830F8441FAB
:1013300021F48071018010BD70B5040004D094F8D0
:101340009102002510B106E0012070BD84F8905292
:10135000204600F03FF8032084F89102206802F054
:101360006DFB002001260BE000EB800104EBC101C6
:101370004E740874CD740D624D62401CC0B28D6213
:1013800021798142F0D8002012E000BF00EB8001FB
:1013900004EBC10181F8515181F8500181F853519A
:1013A000C1F86051C1F86451401CC0B2C1F8685125
:1013B00021798142EAD894E8070002F036FB2573D0
:1013C00084F89162A07A012802D12046FFF796FBAB
:1013D000002070BD10B592B0044644216846FFF766
:1013E000A5F814492068884222D1401400900020BA
:1013F0000D90684600F0FEF808B1FFF7AEF90E4810
:10140000816D41F400018165806D002200F40000CF
:10141000119011461320FFF73FFB1320FFF72EFB1F
:10142000002211461420FFF737FB1420FFF726FB9C
:1014300012B010BD005C00400010024070B50446C0
:1014400040790125022801D0FFF787F92946D4F811
:10145000D80201F05CFED4F8D802BDE8704001F07B
:101460000FBE000010B50446407A30B1064801684E
:1014700021F00601016001F08FF9D4F8D802BDE82F
:10148000104001F02ABE000010ED00E0D0F8D802B4
:1014900001F02DBE10B5044690F8900201280AD044
:1014A000012084F890022173206802F004FD0020DE
:1014B00084F8900210BD022010BDD0F8D82200F5AB
:1014C0002671104601F02FBE10B5044690F8900228
:1014D00001280CD0012084F89002206802F0BFFCA3
:1014E000206802F09BFA002084F8900210BD0220D0
:1014F00010BD000010B50446D0F8D80201F055FE2A
:10150000607A002804D00348016841F006010160B8
:1015100010BD000010ED00E02B492C4B0A68322171
:101520004A432B4940B1B0F5007F086829D020F428
:10153000C06040F480602CE00868C0F341200228BD
:1015400004D051F8800F20F4807022E0D1F88000A0
:1015500020F48070C1F88000086820F4C06040F476
:1015600000700860B2FBF3F0401C00E0401E4A69C6
:10157000520501D50028F9D1486940050AD5032054
:101580007047C0F34120022806D051F8800F40F484
:101590008070086000207047D1F8800040F48070AF
:1015A000C1F88000086820F4C06040F40070086052
:1015B000B2FBF3F0401C00E0401E4A695205DBD547
:1015C0000028F9D1D8E700001000002040420F00A9
:1015D000007000400248816841F48041816070479A
:1015E000007000400248016841F48071016070475A
:1015F000007000402DE9F8430446006800269D4D28
:1016000000035ED5A86D0027C00008D4A86D40F087
:101610008050A865A86D012700F080500090DFF889
:101620005892D9F8001041F48071C9F80010FFF702
:10163000CDF9804606E000BFFFF7C8F9A0EB08002F
:1016400002282BD8D9F80000C005F5D5D5F89000B0
:1016500010F4407014D0216C814211D0D5F8900064
:10166000D5F8901020F4407041F48031C5F8901006
:10167000D5F8901021F48031C5F89010C5F890008D
:10168000C00711D0FFF7A2F9804641F2883907E080
:10169000FFF79CF9A0EB0801494501D903260BE0AF
:1016A000D5F890008007F3D5D5F89000216C20F490
:1016B00040700843C5F890001FB1A86D20F080501D
:1016C000A8652078C00707D0D5F88800616820F0A9
:1016D00003000843C5F888002078800707D5D5F8AF
:1016E0008800A16820F00C000843C5F88800207825
:1016F000400707D5D5F88800E16820F0300008439E
:10170000C5F888002078000707D5D5F8880021693A
:1017100020F0C0000843C5F888002078800607D56F
:10172000D5F88800616920F440600843C5F8880056
:101730002078400607D5D5F88800A16920F44050EC
:101740000843C5F888002078000607D5D5F888003A
:10175000E16920F440400843C5F888002088C005AE
:1017600007D5D5F88800216A20F440300843C5F831
:1017700088002088800507D5D5F88800616A20F4A4
:1017800040200843C5F88800208840050FD5D5F8CB
:101790008800A16A20F440100843C5F88800A06AB8
:1017A000B0F5801F03D1E86840F48010E86020881D
:1017B00000050FD5D5F88800E16A20F44000084301
:1017C000C5F88800E06AB0F5800F03D1E86840F4FE
:1017D0008010E8602088C0040FD5D5F88800216B00
:1017E00020F040700843C5F88800206BB0F1807F7E
:1017F00003D1E86840F48010E86020884FF0006171
:1018000080040ED5D5F88800626B20F0406010434C
:10181000C5F88800606B884203D1E86840F4801006
:10182000E860208840040ED5D5F88800A26B20F02F
:1018300040601043C5F88800A06B884203D1E86877
:1018400040F48010E860208800040FD5D5F88800A7
:10185000E16B20F040500843C5F88800E06BB0F120
:10186000805F03D1E86840F48030E8603046BDE82E
:10187000F883000000100240007000402DE9F0479E
:101880000E4605004FF0000725D0DFF8AC81D8F8F0
:10189000000000F00F00B0420CD2D8F8001021F088
:1018A0000F013143C8F80010D8F8000000F00F0015
:1018B000B04210D12968614CC80741F2883A5AD029
:1018C0006868DFF87C91032808D0022820682DD0B2
:1018D000400500282CDB0120BDE8F087206880014E
:1018E000F9D5E06800F00302E068C0F30310401C83
:1018F000032A19D0534A00BFB2FBF0F0E268C2F3EA
:1019000006225043E268C2F34162521C5200B0FB0F
:10191000F2F0484517D9A06810F0F00F0CD08807F6
:1019200011D5A86840B10EE0474AE5E78003D0E74B
:1019300000F092F8484506D9A06820F0F00040F089
:101940008000A0608027A068696820F00300084339
:10195000A060FFF73BF8814606E000BFFFF736F8CE
:10196000A0EB090151453AD8A068696800F00C0065
:10197000B0EB810FF2D12868810714D5400703D559
:10198000A06840F4E060A0602878000705D5A06852
:1019900020F4605040F4E060A060A068A96820F0E6
:1019A000F000084304E0802F03D1A06820F0F0008D
:1019B000A060D8F80010404601F00F01B14216D9DE
:1019C000016821F00F0131430160FEF7FFFF074678
:1019D00007E000BFFEF7FAFFC11B514501D9032004
:1019E0007AE7D8F8000000F00F00B042F2D1287872
:1019F000400705D5A068E96820F4E0600843A060CE
:101A00002878000706D5A068296920F4605040EACC
:101A1000C100A06000F020F8A1680C4AC1F30311D6
:101A2000515C01F01F01C84009490860094800687D
:101A3000BDE8F047FEF7E8BF00200240001002407A
:101A400000B4C4040024F40000127A00C640000868
:101A50001000002004000020184910B58868C0F369
:101A600081021748012A0BD08A684310C2F3810211
:101A7000022A06D08A68C2F38102032A03D000201A
:101A800010BD184610BDCA6802F00304CA68C2F34C
:101A90000312521C032C02D0B0FBF2F001E0B3FBA6
:101AA000F2F0CA68C968C2F306225043C1F341612B
:101AB000491C4900B0FBF1F010BD000000100240CD
:101AC0000024F4002DE9F84304007AD02078F84D82
:101AD000C00747D0A868E96800F00C0001F00301D6
:101AE0000C2802D0082817D001E0032914D0606820
:101AF000B0F5803F17D0B0F5A02F286817D020F49C
:101B000080302860286820F4802028606068E0B178
:101B1000FEF75CFF064614E02868800322D5606863
:101B20000028D2D01EE0286840F48030EDE740F471
:101B300080202860F7E700BFFEF748FF801B64287D
:101B400070D828688003F7D50CE0FEF73FFF064603
:101B500005E000BFFEF73AFF801B6428F0D8286834
:101B60008003F7D4207880074CD5A868E96800F096
:101B70000C0001F003010C2802D004280DD001E074
:101B800002290AD0E068002828682BD040F4807031
:101B90002860FEF71BFF064619E02868400502D5BD
:101BA000E068002891D06868217C20F0FE4040EA7F
:101BB00001606860BF480068FEF726FF002800D17A
:101BC00020E072E1FEF702FF801B0228B8D82868E7
:101BD0004005F7D56868217C20F0FE4040EA0160AE
:101BE00068600FE020F480702860FEF7EFFE064684
:101BF00005E000BFFEF7EAFE801B0228A0D8286897
:101C00004005F7D42078000729D560690028D5F869
:101C1000940013D040F00100C5F89400FEF7D6FE02
:101C2000064606E090E000BFFEF7D0FE801B0228CB
:101C300086D8D5F894008007F6D510E020F0010092
:101C4000C5F89400FEF7C2FE064604E0FEF7BEFEAD
:101C5000801B022878D8D5F894008007F6D4207825
:101C6000400761D5A86D0026C00008D4A86D40F0DB
:101C70008050A865A86D012600F0805000908E4825
:101C80000168C90511D40168804641F48071016082
:101C9000FEF79CFE074604E0FEF798FEC01B0228F4
:101CA00052D8D8F80000C005F6D5A068012815D094
:101CB0000528D5F8900016D020F00100C5F8900056
:101CC000D5F8900020F00400C5F89000A06841F21B
:101CD0008838B8B1FEF77AFE07460EE0D5F89000D6
:101CE00040F00100F0E740F00400C5F89000F5E78F
:101CF000FEF76CFEC11B414526D8D5F89000800741
:101D0000F6D50CE0FEF762FE074604E0FEF75EFE45
:101D1000C11B414518D8D5F890008007F6D41EB1F4
:101D2000A86D20F08050A8652078800629D5A0698C
:101D30000028D5F8980013D040F00100C5F89800AD
:101D4000FEF744FE064606E075E000BFFEF73EFEE5
:101D5000801B02286FD8D5F898008007F6D510E0D0
:101D600020F00100C5F89800FEF730FE064604E0BA
:101D7000FEF72CFE801B02285DD8D5F8980080075E
:101D8000F6D4E069F0B3A968C1F3810103295DD0FD
:101D90000228286820F08070286003D0FEF716FE25
:101DA00004464BE0FEF712FE064604E0FEF70EFE88
:101DB000801B02283FD828688001F7D4F4E9080185
:101DC0006FF00F0202EB01110843218A5204490807
:101DD00002EB4151A26841EA02210843217D4FF004
:101DE0007E42490802EB41610843217B40EAC16021
:101DF000E968324A11400843E860286840F0807082
:101E0000286000E05EE0E86840F08070E860FEF77F
:101E1000DDFD044605E000BFFEF7D8FD001B0228EB
:101E200009D828688001F7D54CE000BFFEF7CEFD49
:101E3000001B022802D90320BDE8F883286880012E
:101E4000F4D4E8681E490840E8603BE00128F3D07C
:101E5000E868226A00F00301914226D1616A00F02D
:101E6000F0020901103991421FD1A26A00F4FE412B
:101E7000B1EB022F19D194F82C2000F07841B1EB8E
:101E8000C26F12D1218E00F4C00249084905A1F5A4
:101E90000011914209D194F8341000F0C060490853
:101EA0004906A1F1007181420CD00120C4E7000075
:101EB0000010024004000020007000400C809F01D0
:101EC000FCFFEEFE0020B7E710B500680B46416846
:101ED0000D480140080CD870C1F304245C7001F077
:101EE0003F049C70C1F34231197052B900F0E8FB15
:101EF000D870587800F0E4FB5870987800F0E0FB58
:101F00009870002010BD00003FFFFF0010B50B4689
:101F100001688968596001680969C1F30E01996017
:101F2000006801680D480140C1F305401870C1F315
:101F300006245C7001F07F049C70890DD97052B941
:101F400000F0BEFB1870587800F0BAFB5870987813
:101F500000F0B6FB9870002010BD00007F7F7F006E
:101F600070B504004FF0010040D094F8250028B966
:101F7000002084F82400204600F040F8022084F875
:101F800025002068C168C943C90630D5CA2141620D
:101F9000216853204862204600F0A8FB10BB20684F
:101FA0008169154A11408161216888696268A36965
:101FB000104322691A43104388612189E06840EA8E
:101FC000014021680861204600F0B5FB50B9D4E912
:101FD0000721114322686369956925F060452B4309
:101FE000194391612268FF21516208B170BD002040
:101FF000012184F8251070BDBFFF8FFB10B592B092
:10200000044644216846FEF791FA10492068884248
:1020100019D14FF400200090C01210906846FFF7CD
:10202000E9FA08B1FEF799FB094850F8901F41F40E
:10203000004140F83819016841F48061016000688E
:1020400000F48060119012B010BD00000028004024
:102050000010024070B5044690F824000B46012899
:102060001BD0012684F82460022084F82500B2B138
:102070009878D97840EA014558781978000240EA02
:10208000413005432168CA204862216853204862D4
:10209000204600F02BFBD0B120E0022070BD587824
:1020A000C10603D500F0EF000A305870D87800F070
:1020B00010FB0504587800F00CFB45EA00259878E1
:1020C00000F007FB0543187845EA4035DAE7084891
:1020D000054020684560204600F02DFB2268FF2166
:1020E000516208B984F82560002184F8241070BD7D
:1020F0003FFFFF002DE9F041044690F82400904690
:102100000D46012811D0012784F82470022084F89C
:1021100025002168CA204862216853204862204671
:1021200000F0E4FA002618B129E00220BDE8F081B1
:102130002068B8F1000F80694FEA406024D0002881
:1021400000DBEE70A8782978EA7840EA01406978E7
:10215000090241EA82510843184908402168086091
:102160002068816921F480218161D5E90301084358
:1021700021688A6910438861204600F0DCFA2268F1
:10218000FF215162A0B115E0002800DBEE70287835
:1021900000F09FFA0304687800F09BFA43EA0023FA
:1021A000A87800F096FA0343E87843EA8050D3E732
:1021B00084F8257084F82460B8E700007F7F7F00F2
:1021C00070B504460B482168C860FEF7FFFB054662
:1021D0004FF47A7607E000BFFEF7F8FB401BB042F1
:1021E00001D9032070BD2068C0688006F4D50020A6
:1021F00070BD00005F00010010B5401EB0F1807F8F
:1022000001D3012010BD4FF0E02460610F21601761
:1022100001F06CFE0020A06107202061002010BDAD
:10222000FEE70000F0B500230A24302537261F46BC
:1022300011E000BFB4EB107F02D905EB107C01E088
:1022400006EB107C01F813C001EB430C00015B1C92
:102250008CF80170DBB29342ECD3F0BD0D4808B5A9
:10226000C16C41F00401C164C16C01F00401009132
:10227000C16C41F02001C164C16C01F020010091EA
:10228000C16C41F00101C164C06C00F0010000901C
:1022900008BD00000010024010B586B01421684649
:1022A000FEF744F91E4800241C490594C0E90014B7
:1022B0007F218160FF21C0E903144FF08041446118
:1022C000C0E906410462FFF74BFE08B1FEF745FA8C
:1022D0008DF800408DF801408DF802400194039480
:1022E000012269460E480494FFF704FF08B1FEF787
:1022F00034FA01208DF814008DF815008DF81600C1
:1023000023208DF81700012205A90548FFF7A2FE3A
:10231000002801D0FEF721FA06B010BD00280040C9
:102320009C01002010B500220F49104800F08CFDE0
:1023300008B1FEF712FA0E490C4800F05EFF08B132
:10234000FEF70BFA0B49094800F0C4FB08B1FEF791
:1023500004FA064800F0CCFF002803D0BDE8104086
:10236000FEF7FBB910BD000014000020C0060020DD
:102370006401002074000020FEE7FEE72DE9F84F1D
:10238000044640F68F7A40F2064B48F60F784FF03D
:1023900000098BE1B0F8441011F00F053AD030F885
:1023A000256031047DD530F8251001EA0A0141F09D
:1023B000800120F8251005EB850004EBC00797F895
:1023C0005C0107F5A87700286CD0F87802286AD05D
:1023D0003978226832F8210048F68F73184048F2A5
:1023E000C003184322F821003878D4F800C03CF824
:1023F00020104904BCF8501001EB0C027ED540F2CD
:10240000024101EBC000105A8005800D009076D08B
:102410003A89A7E0C9062AD4018801EA080141F4F3
:1024200000410180206804F11005B0F85010227CB2
:10243000014440F2024000EBC200085AC0F3090018
:10244000E062616A0844606200212046FEF7A8FB52
:10245000207B00289DD0A86900289AD1207B40F0DD
:1024600080012068A0F84C1084F80C901EE10188CF
:1024700004F5A8750A051ED5B0F850100A18297879
:102480000BEBC100105A04F52671C0F30903EB6190
:10249000EA88206801F0FBFC2168088800EA0A004D
:1024A00002E07BE03FE04EE040F080000880204604
:1024B000FFF703F8FAE00904D8D5018801EA0A0118
:1024C00041F0800101802068B0F850102A7808445B
:1024D0000BEBC201405A83059B0DEB610DD069697E
:1024E00059B1EA88206801F0D2FCE96968690844BA
:1024F000686100212046FEF75CFB01E02AE028E04D
:10250000206801880A050DD4C1F30131032909D0DF
:1025100001884BF68F72114081F4405148F28002DD
:1025200011430180C2E02068B0F850103B780A18CF
:102530000BEBC301515A8905890D009117D0FA8818
:102540007969009B11E0324639462046FEF78DFB43
:1025500000900CE00BEBC000105A8005800D00903D
:1025600005D07A8903466046796901F090FCF969E3
:1025700000980844F8617869009908447861B8695E
:1025800018B139690098814204D939782046FEF79C
:1025900010FB03E03946206801F0AAFA30062DD579
:1025A00005EB850004EBC001206830F8252002EA25
:1025B000080242F4004220F82520C87C103101288E
:1025C0001DD0F0056ED42068B0F8502013180A789A
:1025D00040F2024000EBC200185A8A69C0F30900B9
:1025E000824258D9121A8A6157D04A6902444A6114
:1025F000CA691044C861206801F07AFA56E0C1F84F
:1026000018900A7B48461AB3720622D54A7812B14E
:10261000012A14D041E02068B0F8502010440A7814
:1026200000EBC200B0F80224C2F30902A0F80224B1
:10263000B0F8022442F40042A0F802242DE02268FF
:10264000B2F850301A440B7802EBC302A2F802042D
:1026500023E04B78226813B1012B13D01DE0B2F8B0
:10266000500010440A7800EBC200B0F80624C2F310
:102670000902A0F80624B0F8062442F40042A0F8AB
:1026800006240AE0B2F850301A440B7802EBC30279
:10269000A2F8060401E0C1F8189009782046FEF778
:1026A0007FFA03E032462046FEF74DFB2068B0F883
:1026B000441009043FF56EAE0020BDE8F88F704766
:1026C000010901EB810100F00F0000EB4100C0B2F5
:1026D00070470022014602E00A39C9B2521C0A2999
:1026E000FAD2100741EA1060704700002DE9F0416E
:1026F000044600680025C168490619D4C16841F044
:102700008001C160FEF762F906464FF47A7803272C
:1027100008E000BFFEF75AF9801B404502D90325A7
:1027200084F825702068C068400601D4032DF1D1DB
:102730002846BDE8F08170B5044600680025C168F0
:1027400021F08001C160206881694FF0030689068D
:1027500007D42046FFF734FD98B184F8256003259F
:102760000FE0816921F0200181612046FFF728FDFB
:1027700010B184F8256003252068816941F02001AB
:102780008161284670BD70470178407841EA002099
:102790007047FEF721B9000010B594B038216846A3
:1027A000FDF7C4FE14210EA8FDF7C0FE0020FEF7C1
:1027B000B3FEFEF717FF174850F8901F21F01801DD
:1027C0000160252000904FF480300190012002909C
:1027D000069002200324CDE907045521CDE9090123
:1027E0000B900C900D906846FFF76CF908B172B62B
:1027F000FEE70F20CDE90E040020109011901290FA
:1028000004210EA8FFF73AF8002801D072B6FEE7BF
:1028100014B010BD001002400248016841F470017C
:102820000160704788ED00E010B50A46024903A038
:1028300000F0DAFA004810BD90090020434443201C
:10284000436F6E66696700002DE9F0410C46D0F8D1
:10285000C422D0F8BC12E9B104EB840600EB860573
:102860000027AB693BB102EBC602126AB3FBF2F67A
:1028700002FB163282B1C1F81472D0F8C0020369AB
:102880002BB1D1F80802224601F5047198470020C7
:10289000BDE8F0810320FBE700231A462146AF6123
:1028A00000F08CFCF3E770B5D0F8BC4205466CB183
:1028B00000F079FBC4F80C02D5F8C012D4F8040279
:1028C000CA6804F503719047002070BD032070BDF5
:1028D00070B50446812100F0D3FA00252587012137
:1028E000204600F0CDFAA4F878518221204600F06D
:1028F000C7FAA4F84C50A4F84E50D4F8BC0248B122
:10290000D4F8C00204F52F7440688047206800F0B6
:1029100044FE2560002070BD1220088000487047EA
:102920003800002010B5D0F8BC4284B1D0F8C012F5
:1029300059B194F80002FF2807D08B6894F801225F
:1029400021469847FF2084F80002002010BD032094
:1029500010BD00000A210180004870478C00002053
:102960004321018000487047DC00002043210180A2
:1029700000487047980000204321018000487047BC
:10298000200100202DE9F04704464FF4077000F0C5
:1029900005FE05004FF0000735D0C4F8BC52207C7E
:1029A0004FF010084FF40079012680B34023022233
:1029B0008121204600F04FFB26874023022201217F
:1029C000204600F048FBA4F87861A4F84E80082364
:1029D00003228221204600F03EFBA4F84C60D4F88C
:1029E000C00200688047C5F81472C5F81872207CD0
:1029F000D5F80422A8B140230121204600F037FB7E
:102A00000020BDE8F0870220C4F8BC72F9E7FFE7B8
:102A10004B4602228121204600F01DFB26874B46B3
:102A2000CCE74B46E8E7000010B50A46024903A090
:102A300000F0DAF9004810BD90090020434443201B
:102A4000496E746572666163650000000420088049
:102A5000004870473400002010B50A46024903A020
:102A600000F0C2F9004810BD9009002053544D6990
:102A700063726F656C656374726F6E696373000077
:102A800010B50A46024903A000F0AEF9004810BD97
:102A90009009002053544D33322056697274756189
:102AA0006C20436F6D506F727400000010B5D0F849
:102AB000BC1251B1027C002AD1F8042207D0402375
:102AC000012100F0D4FA002010BD032010BD4FF406
:102AD0000073F5E719B1C0F8C01200207047032059
:102AE0007047000010B51A2008800A480168001DD0
:102AF0000468001D0068081809D008220649FFF77D
:102B000091FB0549042210312046FFF78BFB024858
:102B1000801E10BD9075FF1F5A000020D0F8BC0227
:102B200018B1C0F804120020704703207047D0F895
:102B3000BC0228B1C0F81022C0F80812002070476B
:102B4000032070472DE9FC410646D0F8BC720020F6
:102B50000C468DF80000ADF80400054637B120782A
:102B600010F0600128D0202944D102E00320BDE804
:102B7000FC81E288C2B1000660780AD5D6F8C0129E
:102B80008B6839469847E288072A00D907223946D8
:102B900028E087F80002A07987F80102E288394628
:102BA000304600F072F82AE0D6F8C01260780022B1
:102BB0008B682146984722E0607830B101281ED00A
:102BC0000A2809D00B2815D110E096F89C0203289A
:102BD00010D1022201A905E096F89C02032809D130
:102BE00001226946304600F06AF808E096F89C0237
:102BF000032804D02146304600F03CF8032528463F
:102C0000B5E710B5D0F8BC12012219B1D1F81432D1
:102C100013B10FE0032010BD0122C1F81422D1F836
:102C20001022C262D1F81032D1F80822812100F0BE
:102C3000C5FA0022104610BD0C20088000487047DD
:102C40004C00002010B5D0F8B8220AB15268904765
:102C5000002010BD134610B50A46002100F007FA07
:102C6000002010BD134610B50A46002100F0A6FA58
:102C7000002010BD10B50446802100F084FA2046E3
:102C8000BDE81040002100F07EBA10B50323C0F863
:102C90009432C0F858211346C0F85C210A4600213E
:102CA00000F0E5F9002010BD10B50521C0F8941220
:102CB00000231A46194600F0DAF9002010BD10B5BD
:102CC0000223C0F8943282611346C2610A46002191
:102CD00000F074FA002010BD10B50421C0F8941261
:102CE00000231A46194600F069FA002010BDF8B515
:102CF00004460020ADF8000048880D46010A062968
:102D000047D006DC01290FD0022912D0032962D155
:102D10001DE0072946D00F295DD1D4F8B402C2695D
:102D200020E0694690473BE0D4F8B412207C0A6862
:102D3000F7E7207C02260028D4F8B80205D0C16A43
:102D4000684688470146467036E0816AF8E7C0B2B7
:102D5000062840D2DFE800F003090D111519D4F858
:102D6000B4024268B2B3207CDBE7D4F8B4028268D4
:102D7000F8E7D4F8B402C268F4E7D4F8B402026900
:102D8000F0E7D4F8B4024269ECE7D4F8B4028269FF
:102D9000E8E7207CF0B9D4F8B802416B6846884770
:102DA000014609E0207CA8B9D4F8B802016B684656
:102DB0008847014607204870EA888AB1BDF80000BC
:102DC00040B1824200D90246ADF800202046FFF70C
:102DD00076FFF8BDFFE729462046FFF74BFFF8E7EF
:102DE0002046FFF779FFF4E770B5002300281ED0D6
:102DF0000025044602E06D1CEDB2641C2678002E0E
:102E0000F9D1022404EB450414801278CA545B1CE7
:102E10000322CA5400245B1C06E0CA545B1CDAB2CD
:102E20008C54521CD3B2401C0278002AF5D170BDDC
:102E300001004FF0000004D0012901D0022901D087
:102E4000032070470120704778B10023C0F8B832E2
:102E5000C0F8C032C0F8CC3209B1C0F8B4120121B8
:102E600080F89C12027000F0A3B80320704710B5E0
:102E7000D0F8C402FDF7CCFEBDE81040FFF7D8BF84
:102E800010B5D0F8C402FDF79EFEBDE81040FFF774
:102E9000CFBF70B51646044621B194F89C020328B2
:102EA00041D048E0D4F8941204F11400002502291E
:102EB00032D1D0E902318B4206D95A1A82603146AA
:102EC0002046FFF7CFFE0FE0994214D140688842B8
:102ED00011D3D4F8981288420DD200221146204610
:102EE000FFF7C0FEC4F8985200231A461946204640
:102EF00000F0BDF810E094F89C02032805D1D4F846
:102F0000B802C16809B1204688478021204600F0F8
:102F10003AF92046FFF7C8FE94F8A00201280AD12A
:102F200084F8A05207E0D4F8B80242691AB12046EA
:102F30009047002800D1002070BD10B5134604460C
:102F400021B194F89C02032823D02AE0D4F89412EB
:102F500004F5AA70032924D1D0E9021291420AD9BA
:102F60008A1A8260C068824200D30246194620460F
:102F7000FFF770FE15E094F89C02032805D1D4F801
:102F8000B802016909B1204688472046FFF7A4FE30
:102F900007E0D4F8B80282691AB1204690470028A9
:102FA00000D1002010BDD0F8C402FEF78CB800009C
:102FB00010B51F4904460122C1F8D802C0F8C41256
:102FC0001C4808600820087102204871C871002060
:102FD000087248728A72C8720846FEF7ADF908B1E5
:102FE000FDF7BBFB0022D4F8C4021823114604F5F8
:102FF0003174FDF7B7FD5823002280212068FDF7CA
:10300000B1FDC023002281212068FDF7ABFD4FF404
:103010008873002201212068FDF7A4FD4FF480731E
:10302000002282212068FDF79DFD002010BD0000D8
:10303000E4030020005C00400A0601F07F01D0F8A4
:10304000C40201EB810100EBC10001D5807C704717
:1030500090F85201704710B51C461346D0F8C402D0
:103060002246FEF739F8BDE81040FFF7E1BE10B583
:10307000D0F8C402FEF75EF8BDE81040FFF7D8BEF6
:1030800070B50125044680F89C520020C4F89402D3
:103090006060C4F8A402D4F8B802E0B1D4F8BC125D
:1030A00021B1426812B100212046904700224023FE
:1030B00011462046FFF7CFFF4026A4F8645133465F
:1030C000002280212046C4F86061FFF7C4FFA58478
:1030D0000020266270BD032070BD90F89C12042968
:1030E00003D190F89D1280F89C120020704710B513
:1030F000D0F8B81221B190F89C22032A02D004E043
:10310000032010BDC96901B18847002010BD0174BA
:103110000020704710B5D0F8C402FEF7BBF9BDE837
:103120001040FFF785BE70B5044600F2AA200546A0
:1031300000F04DF80120C4F89402B4F8B002C4F8CD
:10314000980294F8AA0210F01F010AD001290ED0AB
:10315000022912D000F080012046BDE8704000F046
:1031600012B829462046BDE8704000F0C3B8294691
:103170002046BDE8704000F0E7B929462046BDE88A
:10318000704000F041B910B5D0F8C402FDF7E9FF76
:10319000BDE81040FFF74CBE10B5D0F8C402FEF7F2
:1031A00093F9BDE81040FFF743BE90F89C1280F8F9
:1031B0009D12042180F89C120020704710B5D0F8B1
:1031C000C402FDF7FDFFBDE81040FFF731BE70B54A
:1031D000054611F8010B2870087868704C1C2046D1
:1031E000FFF7D2FA6880A41C2046FFF7CDFAA8802A
:1031F000A01CFFF7C9FAE88070BD38B5044600206E
:10320000ADF8000049B1C4F8B812C96A19B16846EE
:103210008847C4F8CC02002038BD032038BD0246E0
:103220000320D2F8B832002B02D01B681046184792
:10323000704700002DE9F0410F462C4E897800259B
:1032400004463170012906D939462046FFF712FDA0
:103250000320BDE8F08194F89C0202280CD00328DA
:103260001DD039462046FFF705FD31782046FFF78F
:10327000E9FC03252846ECE799B320466160FFF797
:10328000CEFF050004D039462046FFF7F3FCF1E7F6
:103290002046FFF721FD032084F89C02EAE74FF067
:1032A0000208C1B1606888421BD0C1B22046FFF756
:1032B000C9FC317820466160FFF7B1FF050010D0EE
:1032C00039462046FFF7D6FC21792046FFF7BAFCA5
:1032D00084F89C82CEE784F89C8220466160FFF7E8
:1032E000B1FC2046FFF7F8FCC4E70000880000208E
:1032F000FFF752BF2DE9F0410A78002512F0600275
:1033000008D0202A01D0402A71D1D0F8B822926882
:10331000904731E04B78002201260A2B67D2DFE884
:1033200003F0415E6658660805662D29FFF7DFFC4D
:103330005FE004468888D8B9C888C8B9488880281A
:1033400016D200F07F0794F89C02032810D084F86E
:103350009E7239462046FFF7DDFE2046FFF7BCFC93
:103360001FB1022084F89C0243E084F89C6240E094
:1033700020463CE0FFF75EFF05463AE0CB88012B94
:1033800035D190F89C32012B04D0022B02D0032BB4
:103390002DD104E08260012200F1080116E0012233
:1033A000011D13E090F89C22012A03D0022A01D0CB
:1033B000032A1CD1CA88022A19D1C660D0F8A412E7
:1033C00009B10321C160022200F10C01FFF777FC73
:1033D0000FE0498801290CD1C0F8A46211E090F8EF
:1033E0009C32012B08D0022B06D0032B04D0FFF710
:1033F00041FC2846BDE8F08149880129F9D1C0F88F
:10340000A422FFF769FCF4E72DE9F0410D460446DC
:1034100028780026097910F060000BD0202801D010
:1034200040286DD1D4F8B8022946826820469047DA
:10343000064686E06878A8B3012822D003287CD10C
:1034400094F89C02022802D0032876D10BE00029D0
:1034500073D0802971D02046FFF795FE8021204649
:10346000FFF791FE6DE0688838B931B1802904D04A
:10347000E88810B92046FFF786FE2046FFF72CFCAF
:103480005FE094F89C020228E1D0032855D16888B7
:10349000A8BB480602D02046FFF7E9FC2046FFF70C
:1034A0001BFCBFE7FFE794F89C020027022802D02C
:1034B000032842D111E009B180293ED1080601F06C
:1034C0007F0000EB800004EB800101D5143101E0A6
:1034D00001F5AA7102220F602BE0080601F00F002F
:1034E00000EB800004EB80000BD5808C40B101F034
:1034F0007F0000EB800004EB800514350CE020E039
:103500001BE0B0F86401C0B101F07F0000EB800067
:1035100004EB800505F5AA7541B1802906D0204647
:10352000FFF78AFD10B10120286000E02F60022221
:1035300029462046FFF7C3FB03E029462046FFF754
:1035400099FB3046BDE8F08170B506460878002446
:103550000D4610F0600003D0202801D0402817D17C
:1035600096F89C02012803D0022801D003280FD12D
:10357000287901280CD8D6F8B802826830469047DE
:103580000446E888204306D13046FFF7A5FB02E059
:103590003046FFF76FFB204670BD7047004870470C
:1035A000C40100202DE9F04F0C78002530F82430BC
:1035B00048F68F121340CA78002A7DD0012A7CD0A9
:1035C000022A02D0032A79D0012548F2800213434F
:1035D00020F824300E7830F8263048F68F742340D7
:1035E0003343134320F826300B7B48F2C00A48F6D9
:1035F000BF774CF280094BF68F764FF6FF7B4FF486
:10360000004EE3B3CB7891F800C0022B30F82C3099
:103610007ED048F68F6803EA0803134320F82C3065
:10362000B0F8503091F800C0034403EBCC03B1F87C
:1036300008C02CF0010CA3F800C4B0F8503091F889
:1036400000C0034403EBCC03B1F80AC02CF0010C1A
:10365000A3F804C44B7891F800C0002B30F82C304C
:103660004FEA43437ED0002B06DA30F82C3023405B
:1036700043EA090320F82C3091F800C000E02EE066
:1036800030F82C305B0606D530F82C30234043EA66
:103690000A0320F82C30CB780C78012B30F824303A
:1036A00003EA070301D083F02003134320F82430FA
:1036B0000B7830F8231002E008E00DE009E031401B
:1036C000114320F823102846BDE8F08F43F400731F
:1036D0007BE743F4C06378E743F4806375E74B7896
:1036E000002BB0F85030034424D00E7803EBC6030F
:1036F000CE8826F00106A3F800640B7830F823602A
:10370000760608D530F82360264046EA0A0600E02F
:1037100061E020F82360CB78012B06D00B7830F8DD
:103720002310394081F02001CAE70B7830F82310CC
:103730003940C5E70F7803EBC703CF8827F00107AF
:10374000A3F80474B0F850300F78034403EBC703B8
:10375000B3F80674C7F30907A3F8067403F2064327
:103760000F6900E03DE05FB13E2F0DD84FEA570CE6
:10377000FF0701D00CF1010C1F880BEA8C2C0CE028
:103780001F8847F400470AE04FEA571CFF0601D1A3
:10379000ACF1010C1F884EEA8C2C47EA0C071F8005
:1037A0000F7830F827305B0406D530F827302340F7
:1037B00043EA090320F827300B782BB130F82310A7
:1037C000314081F400517BE70188314081F4405160
:1037D0001143018077E7234048F2801843EA080349
:1037E0001CE7002B06DA30F82C30234043EA0903AB
:1037F00020F82C3091F800C030F82C305B0606D54C
:1038000030F82C30234043EA0A0320F82C304B7860
:1038100013B1012B2DD035E0B0F850300C780344B3
:1038200003EBC403B3F80244C4F30904A3F802444D
:103830000C6903F202435CB13E2C0ED84FEA540CE3
:10384000E40701D00CF1010C1C880BEA8C2C0DE074
:103850001C8844F400441C8014E04FEA541CE40625
:1038600001D1ACF1010C1C884EEA8C2C44EA0C040A
:10387000F1E7B0F850300C78034403EBC4030C8A32
:10388000A3F802444B7813B1012B2DD035E0B0F8EA
:1038900050300C78034403EBC403B3F80644C4F37C
:1038A0000904A3F806440C6903F206435CB13E2CFC
:1038B0000ED84FEA540CE40701D00CF1010C1C881F
:1038C0000BEA8C2C0DE01C8844F400441C8014E0AE
:1038D0004FEA541CE40601D1ACF1010C1C884EEAFD
:1038E0008C2C44EA0C04F1E7B0F8504023180C7813
:1038F00003EBC4030C8AA3F806440C7830F8243098
:10390000334083F44053134320F824300DE72DE96E
:10391000F04391F80C804F780A7848F6BF7C4BF65C
:103920008F7948F2800348F2C0054CF2800648F6D1
:103930008F74B8F1000F28D0002F30F822704FEAB2
:10394000474748D0002F05DA30F822702740374328
:1039500020F822700A7830F822707F0605D530F8FA
:10396000227027402F4320F822700D7830F8252050
:103970002240324320F825200C7830F8242002EA37
:103980000C021A4320F824201AE07FB130F822609C
:10399000760605D530F8226026402E4320F82260B6
:1039A0000A7830F8221001EA0C010EE030F82250BB
:1039B0006D0405D530F822502540354320F82250BB
:1039C0000A7830F8221001EA0901194320F8221080
:1039D0000020BDE8F083002F05DA30F82270274080
:1039E000374320F822700A7830F82260760605D531
:1039F00030F8226026402E4320F822600E7830F8FE
:103A0000262022402A4320F826200C7830F8242053
:103A100002EA09021A4320F82420C1E730F8581FAF
:103A200041F40041018000207047012120F8401F2F
:103A300000210180818001820846704730F8401FD4
:103A40004BF68072914301800020704730B54B786F
:103A50000A78002B48F68F7530F8223048F280043F
:103A600015D05B0607D530F822302B4048F2C00550
:103A70002B4320F82230CA78012A1DD00A7830F86A
:103A8000221048F6BF73194081F0200111E05B0459
:103A900007D530F822302B404CF280052B4320F81C
:103AA00022300A7830F822104BF68F73194081F4D7
:103AB0004051214320F82210002030BD10B54A7833
:103AC0000978002A48F2800330F8212005D048F612
:103AD000BF74224082F0100204E04BF68F74224043
:103AE00082F480521A4320F82120002010BD0000EB
:103AF0002DE9F04706460C464878097B4FF0000850
:103B000048F68F7248F2801748F68F6348F2800AB1
:103B1000012809D0002971D0E07802286FD001284F
:103B20006ED00120BDE8F087A5692069854200D9E3
:103B3000054691B1E17802291ED0206A401B20621F
:103B4000207836F820104906B6F85010314401EBC1
:103B5000C00075D5A0F8065418E1ABB2E288304633
:103B6000616900F0AFF9B6F850002178304400EBFD
:103B7000C100A0F802540FE1216A81427AD921786C
:103B800036F821001040384326F82100206A401BF7
:103B90002062207836F820104FF6FF7749066178CA
:103BA0004FF4004967D511B101292AD030E0B6F8A9
:103BB0005010314401EBC000B0F80614C1F3090104
:103BC000A0F8061400F206404DB13E2D0CD869084D
:103BD000EA0700D0491C028807EA81210BE001882E
:103BE00041F40041018013E06909EA0600D1491E51
:103BF000028849EA81210A43028009E0EFE008E1F6
:103C00001DE1B6F85020911901EBC000A0F8065450
:103C10006289ABB23046616900F054F960692844AA
:103C200060612169206A884202D9401B206202E05B
:103C30000546C4F82080607818B101282BD032E006
:103C40002FE0B6F850002178304400EBC100B0F806
:103C50000214C1F30901A0F8021400F202405DB1A0
:103C60003E2D0ED86908EA0700D0491C028807EAF1
:103C700081210DE0A0E018E0018841F400410180BD
:103C800011E06909EA0600D1491E028849EA81214A
:103C90000A43028007E0B6F850002178304400EB78
:103CA000C100A0F80254228971E011B1012927D086
:103CB0002DE0B6F85010314401EBC000B0F802140A
:103CC000C1F30901A0F8021400F202404DB13E2DEB
:103CD0000CD86908EA0700D0491C028807EA81214C
:103CE0000BE0018841F40041018010E06909EA0617
:103CF00000D1491E028849EA81210A43028006E078
:103D0000B6F85010314401EBC000A0F802542289EB
:103D1000ABB23046616900F0D5F860692844606153
:103D20002169206A884202D9401B206202E00546D0
:103D3000C4F82080607810B1012836D026E0B6F8AB
:103D400050002178304400EBC100B0F80614C1F3F4
:103D50000901A0F8061400F206404DB13E2D0CD822
:103D60006908EA0700D0491C028807EA81210BE0B4
:103D7000018841F40041018008E06909EA0600D1A8
:103D8000491E028849EA81210A4302806289ABB256
:103D90003046616900F096F8217836F8210048F63F
:103DA000BF72104080F0300053E0B6F85010881910
:103DB000217800EBC100CDE6227836F822001840C9
:103DC00040EA0A0026F82200B6F850002278304473
:103DD00000EBC2008BB2A0F802342289D8E7A069B8
:103DE00008B9E07878B1217836F82100184040EA27
:103DF0000A0000BF26F82100A169206981421ED96E
:103E0000081AA0611DE0217836F8210010403843DF
:103E1000F0E7E069A8B1217836F82100430401D524
:103E2000430603D444F2400318420AD136F8210075
:103E3000104048F2C002104326F8210001E0C4F807
:103E40001880217836F821004BF68F72104080F4EC
:103E5000405040EA0A0026F82100002062E60021D6
:103E6000A0F844104BF68071A0F840100020704775
:103E70000148FDF7BCB90000E40300200148FDF74C
:103E8000B6B90000E4030020B0F84400704710B554
:103E900010445C0800F5806008D030F8022B01F86F
:103EA000012B120A01F8012B641EF6D1DA0701D0AA
:103EB0000088087010BD11B98021A0F84C100020B6
:103EC0007047000010B55B1C10445B0800F5806073
:103ED0000AD000BF11F8012B11F8014B42EA04226D
:103EE00020F8022B5B1EF5D110BDFEE70907090E75
:103EF000002804DB00F1E02080F80014704700F097
:103F00000F0000F1E02080F8141D704730380A28B7
:103F100001D20120704700207047000010B54FF417
:103F200000510348FCF740FD012800D0002010BDDF
:103F30000008004800B587B014216846FCF7F6FA7F
:103F40000A48C16C41F00401C164C06C694600F0CC
:103F5000040005904FF400500090002001900220D2
:103F600002900348FCF7FCFB07B000BD00100240C4
:103F70000008004830B587B014216846FCF7D6FA2F
:103F80000E48C16C41F00401C164C06C4FF48074F0
:103F900000F004004FF0904505900022214628468D
:103FA000FCF70FFD012000210094CDE901010391F0
:103FB00069462846FCF7D4FB07B030BD001002402C
:103FC0004FF480714FF0904308B1012200E00022CD
:103FD0001846FCF7F6BC4FF480714FF09040FCF7A8
:103FE000E8BC000092B0FCF7FFFCFEF7D5FBFEF743
:103FF00035F9FEF751F9FEF795F9FFF79BFFFFF74B
:10400000B9FFFCF7E3FC00F1C804FCF7DFFC204E2D
:10401000FCF7DCFC0546FFF781FF30B1A542F7D382
:1040200005F1C804FFF7D7FFF2E7A542F0D305F585
:10403000FA74002204A91748FDF768FF002209A9B5
:104040001448FDF741FF9DF81200317888421AD0DC
:1040500030700120FFF7B4FF9DF826009DF8123064
:104060009DF811209DF810108DE80F009DF8253067
:104070009DF8272008A10AA8FCF742F981B20AA8F6
:10408000FCF754FBC4E70020FFF79AFFC0E70000ED
:10409000000000209C0100203230253032642E25A3
:1040A0003032642E2530326420253032643A253097
:1040B000326420253032640D0A0000004FF0407059
:1040C000E1EE100A7047000000000000000001024D
:1040D00003040607080904000008000000000000AF
:1040E000000200010000100008410008000000204C
:1040F0009C01000014020008DC4100089C01002023
:10410000541E00007002000841321082011324F492
:1041100013192914084D2A1B0859041A81041AE599
:10412000041B292804190813392C100C080403094E
:10413000041201010202021640830440571D0201CD
:1041400002034114050F0C1C0107101721031A1A52
:104150000313ED061B08E9041AE5041B110758199F
:104160000441130A06293B2A408C1C0902435711BB
:104170001DC03209049D1A020B13052416100105F7
:104180002401180901042402020524066C15058285
:104190000308151009040133020A1D070501024333
:1041A0002C070581070938442A40072A8107112B6B
:1041B0000907440A3B04441385291408D1284C08F4
:1041C000452BE81A25101A49101AA704C11A6D18B0
:0C41D0001A61041A79041A55040000005A
:04000005080001D915
:00000001FF
