:020000040800F2
:10000000401E0020B902000897250008952100082D
:1000100095250008BF030008BB4800080000000049
:10002000000000000000000000000000ED320008A9
:10003000C103000800000000DB280008F9320008B6
:10004000D3020008D3020008D3020008D30200083C
:10005000D3020008D3020008D3020008D30200082C
:10006000D3020008D3020008D3020008D30200081C
:10007000D3020008D3020008D3020008D30200080C
:10008000D302000800000000D3020008D3020008D9
:100090004D480008D3020008D3020008D30200082C
:1000A000D3020008D3020008D3020008D3020008DC
:1000B000D3020008D3020008D3020008D3020008CC
:1000C000D3020008D3020008D3020008D3020008BC
:1000D000D3020008D3020008D3020008D3020008AC
:1000E000D3020008D3020008D3020008D30200089C
:1000F000D3020008D3020008D30200080000000069
:1001000000000000D302000800000000D302000835
:10011000D302000800000000D3020008D302000848
:10012000D3020008D3020008D3020008D30200085B
:10013000D30200080000000000000000D302000805
:10014000D3020008D30200080000000000000000F5
:10015000000000000000000000000000000000009F
:10016000000000000000000000000000D3020008B2
:10017000D3020008000000000000000000000000A2
:1001800000000000D3020008000000000000000092
:10019000000000000000000000000000000000005F
:1001A0000000000000000000D3020008D302000895
:1001B000D3020008D3020008D302000800000000A8
:1001C00000000000D3020008000000000000000052
:1001D000D3020008D302000800F002F800F05CF837
:1001E0000AA090E8000C82448344AAF10107DA4592
:1001F00001D100F051F8AFF2090EBAE80F0013F088
:10020000010F18BFFB1A43F001031847F448000020
:10021000144900000A444FF0000C10F8013B13F0A1
:10022000070408BF10F8014B1D1108BF10F8015B4F
:10023000641E05D010F8016B641E01F8016BF9D142
:1002400013F0080F1EBF10F8014BAD1C0C1B09D199
:100250006D1E58BF01F801CBFAD505E014F8016B0B
:1002600001F8016B6D1EF9D59142D6D3704700009D
:100270000023002400250026103A28BF78C1FBD8AF
:10028000520728BF30C148BF0B6070471FB504F04C
:1002900017FC1FBD10B510BD00F058F81146FFF750
:1002A000F5FF04F0CBFB00F076F803B4FFF7F2FFA4
:1002B00003BC00F07DF8000009488047094800476A
:1002C000FEE7FEE7FEE7FEE7FEE7FEE7FEE7FEE706
:1002D000FEE7FEE704480549054A064B7047000063
:1002E00081330008D901000840120020401E002080
:1002F000401A0020401A00204FF0000200B51346BB
:1003000094469646203922BFA0E80C50A0E80C5035
:10031000B1F12001BFF4F7AF090728BFA0E80C50E6
:1003200048BF0CC05DF804EB890028BF40F8042BDF
:1003300008BF704748BF20F8022B11F0804F18BF4C
:1003400000F8012B7047704770477047754600F002
:100350002BF8AE4605006946534620F00700854657
:1003600018B020B5FFF7B6FFBDE820404FF00006FB
:100370004FF000074FF000084FF0000B21F007018D
:10038000AC46ACE8C009ACE8C009ACE8C009ACE8D0
:10039000C0098D46704710B50446AFF30080204673
:1003A000BDE81040FFF781BF00487047DC11002016
:1003B00001491820ABBEFEE7260002007047FEE7A9
:1003C000704772B6FEE70000144A117F14480129F5
:1003D00001D003290FD1036823F40073036003687D
:1003E00043F400630360036823F40063036003685D
:1003F00043F400730360022901D003290BD1016883
:1004000041F480510160016821F48051016001686C
:1004100041F4806101600020107770478400002063
:1004200000200240C107054803D0416941F00401A2
:100430004161416941F480314161704700200240CF
:1004400008494A69C0B222F4FC7242EAC00048611D
:10045000486940F002004861486940F480304861D2
:100460007047000000200240054910B54C6944F077
:1004700001044C610260BFF36F8F436010BD000048
:1004800000200240094A10B55469402344F48024F6
:100490005461EFF3108272B610C95B1E10C013F0E6
:1004A000FF03F9D182F3108810BD00000020024044
:1004B00070B5064600F032FA0546134C07E000BF5F
:1004C00000F02CFA401BB04201D9032070BD206916
:1004D000C003F5D420694CF2FA3108400CD00B4926
:1004E0004A6802434A60810F01D0A169A16181007D
:1004F00000D02061012070BD2069C00701D001201B
:100500002061002070BD0000002002408400002017
:100510002DE9F05F054631488946017801290CD064
:100520000126804606704FF47A7B5846FFF7C0FFDD
:1005300007004FF0000A03D04BE00220BDE8F09F17
:1005400051464046C8F804A0254C226892050AD5B9
:100550002168490505D5216821F4806121600321C6
:1005600009E0067708E02268520504D5216821F4E5
:1005700080612160022101772868012805D04FF0B1
:10058000FF31C9F80010AE681CE06868FFF74AFF49
:100590005846FFF78DFF0746606920F00400606150
:1005A00015E030466968FFF74BFF5846FFF780FFBC
:1005B0000700606920F4FD70606102D0C9F8006036
:1005C00005E0761CD5E902010844B042E9D8FFF7FE
:1005D000FBFE88F800A03846B0E700008400002049
:1005E000002002402DE9FF5F254C0646904620780A
:1005F0009A4601280BD0012020704FF47A7B584690
:10060000FFF756FF07004FF0000904D02AE0022050
:1006100004B0BDE8F09F4846C4F80490194D29681D
:10062000490504D5286820F48060286002202077DE
:1006300026B1012E09D0022E07D00CE042465346C7
:100640000198FFF711FF012612E041460198FFF7DC
:1006500019FF022E0AD05846FFF72AFF4FEA00077B
:10066000FFF7B2FE84F800903846D1E74FF48026B9
:100670005846FFF71DFF07466869B0436861EFE71A
:100680008400002000200240064900204A69002A18
:1006900007DA054A8A60054A8A604969002900DA52
:1006A000012070470020024023016745AB89EFCD50
:1006B0002DE9F04FDFF82092002301260324A9F151
:1006C000040B85B00F2709F1040AABF1040EFAE020
:1006D00006FA03F52A407CD091F804C00CF0030C14
:1006E000BCF1010F02D0BCF1020F26D1D0F808C036
:1006F000CDF800C04FEA430C04FA0CF8CDF810C056
:10070000DDF800C02CEA080CCDF800C0D1F80C8050
:10071000DDF810C008FA0CF8DDF800C048EA0C0853
:10072000C0F80880D0F804C02CEA050C0D79C5F398
:1007300000159D4045EA0C0545600D79ED43AD0778
:100740000ED0C5684FEA430804FA08FC25EA0C05F8
:10075000D1F808C00CFA08FC4CEA050CC0F80CC033
:100760000D7905F00305022D16D1DD0800EB850C8F
:10077000CDF808C0DCF820805D074FEAD56C07FA99
:100780000CF528EA05080D6905FA0CF5DDF808C036
:1007900045EA0805CCF8205005684FEA430CCDF82F
:1007A00008C004FA0CFC25EA0C0591F804C00CF012
:1007B0000308DDF808C008FA0CF848EA0508C0F894
:1007C00000804D6815F4403F7CD0444DD5F860C0A2
:1007D00000E077E04CF0010CC5F860C02D6E23F00E
:1007E000030C05F0010500953D4D65440295AD688B
:1007F0004FEA837C4FEA1C7807FA08FC25EA0C05CF
:10080000B0F1904F06D0DFF8DCC0604505D14FF065
:10081000010C20E04FF0000C1DE0DFF8CCC060457B
:1008200002D14FF0020C16E0DFF8C0C0604502D1E3
:100830004FF0030C0FE0DFF8B8C0604502D14FF075
:10084000040C08E0DFF8ACC0604502D14FF0050CA5
:1008500001E04FF0060C0CFA08FC4CEA050C029D76
:10086000C5F808C0D9F80050CC46D1F804809543AB
:100870005FEAC82800D51543CCF80050DAF80050DC
:10088000D446D1F8048095435FEA882800D5154303
:10089000CCF80050DBF80050DC46D1F804809543DA
:1008A0005FEA883800D51543CCF80050DEF80050D8
:1008B000F446D1F8048095435FEAC83800D5154363
:1008C000CCF800505B1C0A6832FA03F57FF400AFE5
:1008D00005B0BDE8F08F00000804014000100240A0
:1008E000000001400004004800080048000C0048D7
:1008F00000100048001400480069084000D00120A2
:100900007047426921EA02030A4043EA02418161D9
:1009100070470AB181617047816270470148806801
:100920007047000078000020024881684268114446
:10093000816070477800002010B50024032000F08B
:1009400073F80F2000F008F808B1012401E000F06E
:1009500025F8204610BD000070B50E4E0546002457
:10096000706898B14FF47A71B1FBF0F00A490968E8
:10097000B1FBF0F001F0FAFB40B9102D06D20022D5
:100980002946501E00F030F8356000E00124204672
:1009900070BD000078000020A40000200A4882B04A
:1009A000016E41F001010166016E01F0010100914B
:1009B000816D41F080518165806D00F08050009024
:1009C00002B000F0C1BD000000100240002809DBA9
:1009D00000F01F02012191404009800000F1E02059
:1009E000C0F8001170470000F0B40E4B1B680C46B5
:1009F000C3F30223C3F10705042D00D90425191DF3
:100A0000072901D2002300E0DB1E012606FA05F1CA
:100A1000491E214099409E40761E16403143F0BC4D
:100A200003F04CBF0CED00E0064900F00702086837
:100A30004FF6FF03184040EA0220034A10430860C3
:100A4000704700000CED00E00000FA05012201688B
:100A5000C0F8D022002280F8C82231F8540F40F0AC
:100A600001000880088840F00200088010467047A6
:100A700070B50F4D044669B101290AD1D4F8D802E6
:100A800002F029FF607A002803D0286840F00600B1
:100A9000286070BD607A28B102F030FC286820F030
:100AA00006002860D4F8D802BDE8704002F0ABBE62
:100AB00010ED00E010B50C0607D501F0070101EBC1
:100AC000810100EBC100103005E001EB810100EB7A
:100AD000C10000F5A87099B232B101220273018100
:100AE000190C4181002010BD00220273C180F9E77A
:100AF00001EB810200EBC202D0F8D802526A02F088
:100B00005FBD01EB810200EBC202D0F8D802D2F83F
:100B1000642102F0A9BD70B504460B0601F0070080
:100B200000EB800104EBC1014FF001024FF0000522
:100B300002D54A74103103E081F8515101F5A871D2
:100B4000087094F89002012808D084F89022206858
:100B500003F0C7FB84F89052002070BD022070BDE6
:100B600070B5044601F00F002279904201D90120AE
:100B700070BD0B0601F0070000EB800104EBC10122
:100B80004FF001024FF0000502D54A74103103E026
:100B900081F8515101F5A8718D70087094F8900298
:100BA000012808D084F89022206803F039FC84F8EA
:100BB0009052002070BD022070BD2DE9F0470468FE
:100BC0005FEA42480B788D69B4F850804FF0000C12
:100BD0004BF68F7748F2800648F68F7948F2C00AC4
:100BE000444428D540F2024808EBC30834F80840D2
:100BF000C4F30904A54203D32D1B8D6102D00BE081
:100C0000C1F818C0D0F800C03CF823503D4085F42E
:100C1000005535432CF82350520609D50B7805684A
:100C200035F8232002EA090242EA0A0225F82320C5
:100C300074B30A8927E040F2064808EBC30834F889
:100C40000840C4F30904A54203D32D1B8D6102D0D3
:100C50000BE0C1F818C0D0F800C03CF823503D406C
:100C600085F4005535432CF82350520609D40D78ED
:100C7000036833F8252002EA090242EA0A0223F84F
:100C800025202CB14A8949690068234603F0E7FD15
:100C90002046BDE8F0872DE9F05F054600680C4668
:100CA0005FEA42681646D1F818C02278B0F8508042
:100CB00048F6BF7A48F2800B48F68F774CF28009ED
:100CC0004FF6FF734FF4004E4FF0000140447DD5C6
:100CD00040F2024808EBC20830F80800C0F30900EF
:100CE000844514D9BCEB000CC4F818C010D07604AD
:100CF00008D5D5F800C03CF822603E4046EA090617
:100D00002CF8226094F82420012A60D076E1A161B9
:100D1000607810B1012813D01AE02868B0F850307C
:100D2000184400EBC200B0F80224C2F30902A0F894
:100D30000224B0F8022442F40042A0F8022407E0A2
:100D40002868B0F85030184400EBC200A0F8021434
:100D50006278286812B1012A11D018E0B0F850105A
:100D60000844217800EBC100B0F80614C1F3090172
:100D7000A0F80614B0F8061441F4004105E0B0F8FC
:100D800050201044227800EBC200A0F80614E0784E
:100D900002280BD12278296831F8220000EA0A00E3
:100DA00080F0200040EA0B0021F82200217828463C
:100DB000FFF79EFE700408D521782A6832F82100DA
:100DC000384040EA090022F82100C3E04DE06269A2
:100DD00002446261E2690244E2612669226AB24227
:100DE00002D33046111A03E084F824100AB11046E9
:100DF0002162617811B101292BD033E02968B1F863
:100E000050201144227801EBC201B1F80224C2F350
:100E10000902A1F8022401F2024158B13E280ED87D
:100E20004208C60700D0521C0E8803EA82221643ED
:100E30000E8017E00A8842F400420A8012E042095C
:100E4000C30600D1521E0B884EEA822213430B8048
:100E500008E02968B1F850201144227801EBC20162
:100E6000A1F8020483B22289C4E040F2064808EBEC
:100E7000C20830F80800C0F30900844514D3BCEB65
:100E8000000CC4F818C010D0760408D4D5F800C0FF
:100E90003CF822603E4046EA09062CF8226094F8AD
:100EA0002420012A59D0A9E0A161607810B101285D
:100EB00013D01AE02868B0F85030184400EBC20094
:100EC000B0F80224C2F30902A0F80224B0F8022408
:100ED00042F40042A0F8022407E02868B0F850303D
:100EE000184400EBC200A0F802146278286812B11E
:100EF000012A11D018E0B0F850100844217800EB16
:100F0000C100B0F80614C1F30901A0F80614B0F846
:100F1000061441F4004105E0B0F850201044227856
:100F200000EBC200A0F80614E07802280BD121786B
:100F30002A6832F8210000EA0A0080F0200040EA26
:100F40000B0022F8210021782846FFF7D1FD70041C
:100F50007FF532AF0020BDE8F09F62690244626114
:100F6000E2690244E2612669226AB24203D3304652
:100F7000111A216204E00AB11046216284F824109B
:100F80006278296812B1012A2AD031E0B1F85020E4
:100F90001144227801EBC201B1F80624C2F3090220
:100FA000A1F8062401F2064158B13E280ED84208A5
:100FB000C60700D0521C0E8803EA822216430E8018
:100FC00016E00A8842F400420A8011E04209C30692
:100FD00000D1521E0B884EEA822213430B8007E099
:100FE000B1F850201144227801EBC201A1F80604A7
:100FF000628983B26169286803F04CFC2278296811
:1010000031F8220000EA0A0080F0300040EA0B00CC
:1010100021F822009EE710B5044690F890020128BE
:101020000AD0012084F89002080607D501F00701D4
:10103000206803F009FC04E0022010BD206803F0E2
:1010400001FC002084F8900210BD01F0070101EBC3
:10105000810100EBC100D0F86C0170472DE9F0412F
:1010600004460F0601F0070000EB800104EBC1010C
:101070004FF001064FF0000502D54E74103103E029
:1010800081F8515101F5A871022B0870C2F30A00D2
:101090000861CB7000D10D7194F89002012809D03D
:1010A00084F89062206802F067FF284684F8905226
:1010B000BDE8F0810220FBE710B501F0070404EB66
:1010C000840100EBC101C1E959230022C1F86C2160
:1010D00081F8512181F85041006801F5A87103F0B1
:1010E000F1F9002010BD70B5044601F00700227927
:1010F000904201D9012070BD0B064FF000054FF062
:10110000010206D500EB800104EBC1014A741031E5
:1011100007E001EB810104EBC10181F8515101F5B8
:10112000A8718A70087094F89002012808D084F899
:101130009022206803F0ACF984F89052002070BD32
:10114000022070BD10B501F0070404EB840100EB30
:10115000C101C1E90923012281F834200B63002376
:10116000CB624A7401F8104F006803F0ABF900201D
:1011700010BD10B50446006803F06EFB010404D5F1
:101180002046BDE8104001F007BA41050ED52068A1
:1011900030F8441F21F480610180204600F008F9F6
:1011A0002046BDE81040002100F02EB9410405D5CD
:1011B000206830F8441F21F480417DE0810405D58A
:1011C000206830F8441F21F4005175E0C1041FD598
:1011D000206830F8401F21F004010180206830F8B9
:1011E000401F21F00801018094F8C802012806D1AF
:1011F000002084F8C80201462046FFF739FC20464B
:1012000000F0EAF8206830F8441F21F4805153E0E0
:10121000010512D5206830F8401F41F00801018017
:10122000206830F8441F21F400610180206830F804
:10123000401F41F0040101800AE0010629D5206821
:1012400030F8441F21F08001018094F8C80218B1E1
:10125000204600F009F910BD206830F8401F41F029
:1012600004010180206830F8401F41F0080101802E
:10127000012084F8C8022068B0F854003C2101EA3B
:101280009000C4F8CC022046BDE810400121FFF7D1
:10129000EFBB810509D5206830F8441F21F40071A7
:1012A0000180204600F0ACF810BDC005FCD52068D8
:1012B00030F8441F21F48071018010BD70B5040026
:1012C00004D094F89102002510B106E0012070BD11
:1012D00084F89052204600F03FF8032084F89102F1
:1012E000206803F095F8002001260BE000EB800158
:1012F00004EBC1014E740874CD740D624D62401C44
:10130000C0B28D6221798142F0D8002012E000BF86
:1013100000EB800104EBC10181F8515181F85001CB
:1013200081F85351C1F86051C1F86451401CC0B2FA
:10133000C1F8685121798142EAD894E8070003F0A6
:101340005EF8257384F89162A07A012802D12046C4
:10135000FFF77CFB002070BD10B592B0044644211D
:101360006846FEF7C9FF1049206888421AD1401428
:10137000009080030D90684600F0F6F808B1FFF782
:1013800020F80A48816D41F400018165806D0022DA
:1013900000F40000119011461420FFF725FB1420E3
:1013A000FFF714FB12B010BD005C004000100240BB
:1013B00070B5044640790125022801D0FFF701F8F5
:1013C0002946D4F8D80202F038FAD4F8D802BDE899
:1013D000704002F0EBB9000010B50446407A30B11D
:1013E0000648016821F00601016001F087FFD4F88A
:1013F000D802BDE8104002F006BA000010ED00E08F
:10140000D0F8D80202F009BA10B5044690F890025C
:1014100001280AD0012084F890022173206803F08B
:1014200032FA002084F8900210BD022010BDD0F8DE
:10143000D82200F52671104602F00BBA10B504460A
:1014400090F8900201280CD0012084F890022068C6
:1014500003F0EFF9206802F0CBFF002084F890023F
:1014600010BD022010BD000010B50446D0F8D8020F
:1014700002F031FA607A002804D00348016841F094
:101480000601016010BD000010ED00E02B492C4B5F
:101490000A6832214A432B4940B1B0F5007F086801
:1014A00029D020F4C06040F480602CE00868C0F3CC
:1014B0004120022804D051F8800F20F4807022E0EF
:1014C000D1F8800020F48070C1F88000086820F412
:1014D000C06040F400700860B2FBF3F0401C00E014
:1014E000401E4A69520501D50028F9D148694005D6
:1014F0000AD503207047C0F34120022806D051F8D6
:10150000800F40F48070086000207047D1F88000A0
:1015100040F48070C1F88000086820F4C06040F496
:1015200000700860B2FBF3F0401C00E0401E4A6906
:101530005205DBD50028F9D1D8E70000A40000202F
:1015400040420F00007000400248816841F4804131
:1015500081607047007000400248016841F480716A
:1015600001607047007000402DE9F84304460068B0
:1015700000269D4D00035ED5A86D0027C00008D44D
:10158000A86D40F08050A865A86D012700F080503C
:101590000090DFF85892D9F8001041F48071C9F832
:1015A0000010FFF7BBF9804606E000BFFFF7B6F971
:1015B000A0EB080002282BD8D9F80000C005F5D50B
:1015C000D5F8900010F4407014D0216C814211D0F5
:1015D000D5F89000D5F8901020F4407041F4803197
:1015E000C5F89010D5F8901021F48031C5F890100E
:1015F000C5F89000C00711D0FFF790F9804641F27E
:10160000883907E0FFF78AF9A0EB0801494501D9BD
:1016100003260BE0D5F890008007F3D5D5F89000AD
:10162000216C20F440700843C5F890001FB1A86DEC
:1016300020F08050A8652078C00707D0D5F8880032
:10164000616820F003000843C5F88800207880070F
:1016500007D5D5F88800A16820F00C000843C5F82C
:1016600088002078400707D5D5F88800E16820F089
:1016700030000843C5F888002078000707D5D5F862
:101680008800216920F0C0000843C5F88800207850
:10169000800607D5D5F88800616920F440600843CA
:1016A000C5F888002078400607D5D5F88800A169DC
:1016B00020F440500843C5F888002078000607D57C
:1016C000D5F88800E16920F440400843C5F8880057
:1016D0002088C00507D5D5F88800216A20F440305D
:1016E0000843C5F888002088800507D5D5F888000C
:1016F000616A20F440200843C5F88800208840052E
:101700000FD5D5F88800A16A20F440100843C5F829
:101710008800A06AB0F5801F03D1E86840F480100B
:10172000E860208800050FD5D5F88800E16A20F42C
:1017300040000843C5F88800E06AB0F5800F03D187
:10174000E86840F48010E8602088C0040FD5D5F820
:101750008800216B20F040700843C5F88800206B9A
:10176000B0F1807F03D1E86840F48010E860208801
:101770004FF0006180040ED5D5F88800626B20F030
:1017800040601043C5F88800606B884203D1E86868
:1017900040F48010E860208840040ED5D5F8880019
:1017A000A26B20F040601043C5F88800A06B88420F
:1017B00003D1E86840F48010E860208800040FD569
:1017C000D5F88800E16B20F040500843C5F8880048
:1017D000E06BB0F1805F03D1E86840F48030E860EE
:1017E0003046BDE8F8830000001002400070004061
:1017F0002DE9F0470E4605004FF0000725D0DFF831
:10180000AC81D8F8000000F00F00B0420CD2D8F83C
:10181000001021F00F013143C8F80010D8F8000083
:1018200000F00F00B04210D12968614CC80741F2A6
:10183000883A5AD06868DFF87C91032808D00228DB
:1018400020682DD0400500282CDB0120BDE8F08762
:1018500020688001F9D5E06800F00302E068C0F379
:101860000310401C032A19D0534A00BFB2FBF0F00A
:10187000E268C2F306225043E268C2F34162521C9E
:101880005200B0FBF2F0484517D9A06810F0F00FF5
:101890000CD0880711D5A86840B10EE0474AE5E7AB
:1018A0008003D0E700F092F8484506D9A06820F000
:1018B000F00040F08000A0608027A068696820F0F8
:1018C00003000843A060FFF729F8814606E000BF47
:1018D000FFF724F8A0EB090151453AD8A0686968E0
:1018E00000F00C00B0EB810FF2D12868810714D50D
:1018F000400703D5A06840F4E060A06028780007A6
:1019000005D5A06820F4605040F4E060A060A068B5
:10191000A96820F0F000084304E0802F03D1A068FC
:1019200020F0F000A060D8F80010404601F00F0150
:10193000B14216D9016821F00F0131430160FEF771
:10194000EDFF074607E000BFFEF7E8FFC11B51456A
:1019500001D903207AE7D8F8000000F00F00B04268
:10196000F2D12878400705D5A068E96820F4E06046
:101970000843A0602878000706D5A068296920F4EC
:10198000605040EAC100A06000F020F8A1680C4A55
:10199000C1F30311515C01F01F01C84009490860FF
:1019A00009480068BDE8F047FEF7D6BF00200240B6
:1019B0000010024000B4C4040024F40000127A00B5
:1019C000EE4A0008A400002078000020184910B555
:1019D0008868C0F381021748012A0BD08A68431037
:1019E000C2F38102022A06D08A68C2F38102032A66
:1019F00003D0002010BD184610BDCA6802F00304D1
:101A0000CA68C2F30312521C032C02D0B0FBF2F0DE
:101A100001E0B3FBF2F0CA68C968C2F30622504382
:101A2000C1F34161491C4900B0FBF1F010BD000059
:101A3000001002400024F4002DE9F84304007AD09D
:101A40002078F84DC00747D0A868E96800F00C007E
:101A500001F003010C2802D0082817D001E0032967
:101A600014D06068B0F5803F17D0B0F5A02F28687B
:101A700017D020F480302860286820F48020286067
:101A80006068E0B1FEF74AFF064614E0286880036C
:101A900022D560680028D2D01EE0286840F480304B
:101AA000EDE740F480202860F7E700BFFEF736FF3F
:101AB000801B642870D828688003F7D50CE0FEF7F7
:101AC0002DFF064605E000BFFEF728FF801B6428B7
:101AD000F0D828688003F7D4207880074CD5A86810
:101AE000E96800F00C0001F003010C2802D0042882
:101AF0000DD001E002290AD0E068002828682BD028
:101B000040F480702860FEF709FF064619E0286857
:101B1000400502D5E068002891D06868217C20F05B
:101B2000FE4040EA01606860BF480068FEF714FFAD
:101B3000002800D120E072E1FEF7F0FE801B0228B1
:101B4000B8D828684005F7D56868217C20F0FE40A9
:101B500040EA016068600FE020F480702860FEF7C2
:101B6000DDFE064605E000BFFEF7D8FE801B02281A
:101B7000A0D828684005F7D42078000729D56069E7
:101B80000028D5F8940013D040F00100C5F8940067
:101B9000FEF7C4FE064606E090E000BFFEF7BEFE7C
:101BA000801B022886D8D5F894008007F6D510E06F
:101BB00020F00100C5F89400FEF7B0FE064604E0F0
:101BC000FEF7ACFE801B022878D8D5F89400800779
:101BD000F6D42078400761D5A86D0026C00008D44F
:101BE000A86D40F08050A865A86D012600F08050D7
:101BF00000908E480168C90511D40168804641F4FF
:101C000080710160FEF78AFE074604E0FEF786FE5B
:101C1000C01B022852D8D8F80000C005F6D5A0682D
:101C2000012815D00528D5F8900016D020F0010025
:101C3000C5F89000D5F8900020F00400C5F8900099
:101C4000A06841F28838B8B1FEF768FE07460EE09A
:101C5000D5F8900040F00100F0E740F00400C5F82E
:101C60009000F5E7FEF75AFEC11B414526D8D5F88E
:101C700090008007F6D50CE0FEF750FE074604E022
:101C8000FEF74CFEC11B414518D8D5F890008007DF
:101C9000F6D41EB1A86D20F08050A865207880068B
:101CA00029D5A0690028D5F8980013D040F001008C
:101CB000C5F89800FEF732FE064606E075E000BF64
:101CC000FEF72CFE801B02286FD8D5F898008007FD
:101CD000F6D510E020F00100C5F89800FEF71EFED2
:101CE000064604E0FEF71AFE801B02285DD8D5F8F0
:101CF00098008007F6D4E069F0B3A968C1F38101C8
:101D000003295DD00228286820F08070286003D065
:101D1000FEF704FE04464BE0FEF700FE064604E034
:101D2000FEF7FCFD801B02283FD828688001F7D40D
:101D3000F4E908016FF00F0202EB01110843218A58
:101D40005204490802EB4151A26841EA02210843CA
:101D5000217D4FF07E42490802EB41610843217B1F
:101D600040EAC160E968324A11400843E8602868E7
:101D700040F08070286000E05EE0E86840F080702D
:101D8000E860FEF7CBFD044605E000BFFEF7C6FDA8
:101D9000001B022809D828688001F7D54CE000BF55
:101DA000FEF7BCFD001B022802D90320BDE8F88322
:101DB00028688001F4D4E8681E490840E8603BE0E8
:101DC0000128F3D0E868226A00F00301914226D18D
:101DD000616A00F0F0020901103991421FD1A26A34
:101DE00000F4FE41B1EB022F19D194F82C2000F041
:101DF0007841B1EBC26F12D1218E00F4C0024908C4
:101E00004905A1F50011914209D194F8341000F070
:101E1000C06049084906A1F1007181420CD001203F
:101E2000C4E700000010024078000020007000406D
:101E30000C809F01FCFFEEFE0020B7E710B50068A4
:101E40000B4641680D480140080CD870C1F30424CA
:101E50005C7001F03F049C70C1F34231197052B9BB
:101E600000F03CFDD870587800F038FD5870987834
:101E700000F034FD9870002010BD00003FFFFF000F
:101E800010B50B4601688968596001680969C1F39A
:101E90000E019960006801680D480140C1F30540DA
:101EA0001870C1F306245C7001F07F049C70890DEA
:101EB000D97052B900F012FD1870587800F00EFD7C
:101EC0005870987800F00AFD9870002010BD00004E
:101ED0007F7F7F0070B504004FF0010040D094F880
:101EE000250028B9002084F82400204600F040F89E
:101EF000022084F825002068C168C943C90630D58E
:101F0000CA214162216853204862204600F0FCFC4F
:101F100010BB20688169154A114081612168886978
:101F20006268A369104322691A43104388612189BA
:101F3000E06840EA014021680861204600F009FDA0
:101F400050B9D4E90721114322686369956925F0E6
:101F500060452B43194391612268FF21516208B10A
:101F600070BD0020012184F8251070BDBFFF8FFBDC
:101F700010B592B0044644216846FEF7BDF91049F9
:101F80002068884219D14FF400200090C0121090B0
:101F90006846FFF7E9FA08B1FEF713FA094850F866
:101FA000901F41F4004140F83819016841F4806104
:101FB0000160006800F48060119012B010BD000054
:101FC000002800400010024070B5044690F824003C
:101FD0000B4601281BD0012684F82460022084F8D7
:101FE0002500B2B19878D97840EA01455878197837
:101FF000000240EA413005432168CA204862216856
:1020000053204862204600F07FFCD0B120E002203F
:1020100070BD5878C10603D500F0EF000A30587043
:10202000D87800F064FC0504587800F060FC45EABC
:102030000025987800F05BFC0543187845EA4035A8
:10204000DAE70848054020684560204600F081FC3A
:102050002268FF21516208B984F82560002184F8C4
:10206000241070BD3FFFFF002DE9F041044690F8B9
:10207000240090460D46012811D0012784F82470D1
:10208000022084F825002168CA2048622168532074
:102090004862204600F038FC002618B129E00220F2
:1020A000BDE8F0812068B8F1000F80694FEA406018
:1020B00024D0002800DBEE70A8782978EA7840EA7E
:1020C00001406978090241EA8251084318490840F1
:1020D000216808602068816921F480218161D5E947
:1020E0000301084321688A6910438861204600F093
:1020F00030FC2268FF215162A0B115E0002800DB0E
:10210000EE70287800F0F3FB0304687800F0EFFB32
:1021100043EA0023A87800F0EAFB0343E87843EAA7
:102120008050D3E784F8257084F82460B8E7000075
:102130007F7F7F0070B504460B482168C860FEF7BA
:10214000EDFB05464FF47A7607E000BFFEF7E6FBAD
:10215000401BB04201D9032070BD2068C0688006D2
:10216000F4D5002070BD00005F00010010B5401ED6
:10217000B0F1807F01D3012010BD4FF0E0246061F9
:102180000F21601702F09AFB0020A0610720206158
:10219000002010BDFEE70000F0B500230A24302522
:1021A00037261F4611E000BFB4EB107F02D905EBC4
:1021B000107C01E006EB107C01F813C001EB430C2E
:1021C00000015B1C8CF80170DBB29342ECD3F0BDD4
:1021D00070B5D0F8BC420546002C1CD094F81C0801
:1021E00040B9D4F8180828B1607A18B901212846F6
:1021F00001F05FFB8121284601F05BFB607A022839
:1022000009D18121284601F054FB2846BDE87040E1
:10221000012101F04EBB70BD70B5D0F8BC4205463F
:10222000002C5FD0D4F81408C4F83408D4F8180887
:10223000C4F838080121284601F055FA1F280DD1AD
:102240002949D4F81008884208D194F81D180129AA
:1022500004D894F81E0808B1102809D994F81D185C
:1022600020230522284600F0EDFE0220607209E0DE
:1022700004F61F02284600F0E1FB0028207A08DA65
:10228000052804D02846BDE87040FFF7A1BF012112
:1022900023E0022826D0012824D0032822D0E66893
:1022A000D6B1D5F8BC12284604F11002D1F818387E
:1022B000B34200D33346002914D0D1F83848A41BC8
:1022C000C1F83848002481F83C4804240C72BDE869
:1022D0007040812101F008BB00212846BDE8704014
:1022E00000F0AAB870BD00005553424310B5D0F8B5
:1022F000BC220446002A16D0507A022809D00906CA
:1023000011D501280FD02046BDE81040012100F072
:1023100093B88121204601F0CCFA2046BDE8104058
:10232000012101F0C6BA10BD10B5D0F8BC22044698
:10233000002A17D0107A022805D0032801D00428DB
:1023400010D1002109E092F81D18204602F61F0264
:1023500000F074FB002805DA01212046BDE810409A
:1023600000F06AB810BD10B5D0F8BC220446002AAF
:1023700017D0107A80B1012813D192F81D18204689
:1023800002F61F0200F05AFB00280ADA2046BDE8D8
:102390001040012100F050B82046BDE81040FFF782
:1023A0003BBF10BDD0F8BC02002801D00021017253
:1023B000704770B5D0F8BC420546002C1ED00021F5
:1023C0002172617284F8611884F8601884F86218C8
:1023D000D5F8C0020168002088470121284601F095
:1023E00079F98121284601F075F904F50162284642
:1023F000BDE870401F23012101F0CFB970BD70B559
:10240000D0F8BC420546002C14D0002020720120D8
:1024100060728121284601F0C1F80121284601F0AF
:10242000BDF804F501622846BDE870401F23012174
:1024300001F0B3B970BD000070B5D0F8BC420546DC
:10244000002C16D00B48C4F8300884F83C18002043
:1024500020720D2304F503628121284601F044FA1D
:1024600004F501622846BDE870401F23012101F0F8
:1024700094B970BD555342530D4808B5C16C41F035
:102480000401C164C16C01F004010091C16C41F010
:102490002001C164C16C01F020010091C16C41F0C8
:1024A0000101C164C06C00F00100009008BD000093
:1024B0000010024010B586B014216846FDF71CFFDD
:1024C0001E4800241C490594C0E900147F21816046
:1024D000FF21C0E903144FF080414461C0E9064187
:1024E0000462FFF7F7FC08B1FDF76BFF8DF80040C1
:1024F0008DF801408DF80240019403940122694651
:102500000E480494FFF7B0FD08B1FDF75AFF012013
:102510008DF814008DF815008DF8160002468DF820
:10252000174005A90548FFF74FFD002801D0FDF72A
:1025300048FF06B010BD00000028004090010020B8
:1025400010B500220F49104801F015F808B1FDF749
:1025500038FF0E490C4801F03BFB08B1FDF731FF95
:102560000B49094801F090FA08B1FDF72AFF064827
:1025700001F0A8FB002803D0BDE81040FDF721BF03
:1025800010BD0000040000200C0D0020AC00002055
:1025900058000020FEE7FEE72DE9F84F044640F61C
:1025A0008F7A40F2064B48F60F784FF000098BE126
:1025B000B0F8441011F00F053AD030F8256031041E
:1025C0007DD530F8251001EA0A0141F0800120F89C
:1025D000251005EB850004EBC00797F85C0107F5B3
:1025E000A87700286CD0F87802286AD03978226859
:1025F00032F8210048F68F73184048F2C0031843A0
:1026000022F821003878D4F800C03CF820104904A2
:10261000BCF8501001EB0C027ED540F2024101EBF8
:10262000C000105A8005800D009076D03A89A7E04E
:10263000C9062AD4018801EA080141F40041018059
:10264000206804F11005B0F85010227C014440F2DB
:10265000024000EBC200085AC0F30900E062616A60
:102660000844606200212046FEF742FA207B0028E1
:102670009DD0A86900289AD1207B40F08001206875
:10268000A0F84C1084F80C901EE1018804F5A875A0
:102690000A051ED5B0F850100A1829780BEBC100B6
:1026A000105A04F52671C0F30903EB61EA8820682B
:1026B00002F0D5F82168088800EA0A0002E07BE011
:1026C0003FE04EE040F0800008802046FEF7AFFE7D
:1026D000FAE00904D8D5018801EA0A0141F0800135
:1026E00001802068B0F850102A7808440BEBC20132
:1026F000405A83059B0DEB610DD0696959B1EA8899
:10270000206802F0ACF8E969686908446861002152
:102710002046FEF7F6F901E02AE028E0206801886B
:102720000A050DD4C1F30131032909D001884BF604
:102730008F72114081F4405148F2800211430180B0
:10274000C2E02068B0F850103B780A180BEBC301C8
:10275000515A8905890D009117D0FA887969009B33
:1027600011E0324639462046FEF727FA00900CE089
:102770000BEBC000105A8005800D009005D07A89BF
:1027800003466046796902F06AF8F96900980844DE
:10279000F8617869009908447861B86918B13969B5
:1027A0000098814204D939782046FEF7AAF903E05F
:1027B0003946206801F086FE30062DD505EB8500F0
:1027C00004EBC001206830F8252002EA080242F438
:1027D000004220F82520C87C103101281DD0F005CA
:1027E0006ED42068B0F8502013180A7840F20240E6
:1027F00000EBC200185A8A69C0F30900824258D916
:10280000121A8A6157D04A6902444A61CA6910445F
:10281000C861206801F056FE56E0C1F818900A7BA6
:1028200048461AB3720622D54A7812B1012A14D04A
:1028300041E02068B0F8502010440A7800EBC20054
:10284000B0F80224C2F30902A0F80224B0F802246E
:1028500042F40042A0F802242DE02268B2F8503081
:102860001A440B7802EBC302A2F8020423E04B786F
:10287000226813B1012B13D01DE0B2F850001044B0
:102880000A7800EBC200B0F80624C2F30902A0F8EF
:102890000624B0F8062442F40042A0F806240AE018
:1028A000B2F850301A440B7802EBC302A2F80604C7
:1028B00001E0C1F8189009782046FEF719F903E005
:1028C00032462046FEF7E7F92068B0F844100904C4
:1028D0003FF56EAE0020BDE8F88F7047010901EBAF
:1028E000810100F00F0000EB4100C0B270470022F0
:1028F000014602E00A39C9B2521C0A29FAD210076D
:1029000041EA1060704700002DE9F041044600687C
:102910000025C168490619D4C16841F08001C16031
:10292000FDF7FCFF06464FF47A78032708E000BF66
:10293000FDF7F4FF801B404502D9032584F825707C
:102940002068C068400601D4032DF1D12846BDE8B7
:10295000F08170B5044600680025C16821F080014F
:10296000C160206881694FF00306890607D42046BC
:10297000FFF7E0FB98B184F8256003250FE081693B
:1029800021F0200181612046FFF7D4FB10B184F8CB
:10299000256003252068816941F020018161284676
:1029A00070BD30B5D0F8BC424FF0FF3544B11A4489
:1029B000D4F868389A4205D92123052200F042FB59
:1029C000284630BD002030BD70B50446D0F8BC02AA
:1029D00013464FF0FF3580B1D0F818287AB15A78F5
:1029E000D20716D0997871B180290FD090F81D18B0
:1029F00024230522204600F025FB284670BD90F8D0
:102A00001D182023F5E706220A490FE008220A498B
:102A10000CE0D4F8C02201EBC1011B79D26902EBB2
:102A200081010A79521D934200D81A4600F05BFBDF
:102A3000002070BD4E010020540100202DE9F0411E
:102A4000D0F8BC524FF0FF3655B31378022700245C
:102A5000252B70D00FDC1A2B53D005DC0BB3032BC6
:102A600023D0122B17D124E01B2B26D01E2B3FD0B6
:102A7000232B10D15BE05A2B4ED006DC282B62D0E2
:102A80002A2B68D02F2B06D16DE09E2B57D0A82B78
:102A90005DD0AA2B63D02023052200F0D3FA6F72F9
:102AA00020E0BDE8F04100F0EFBABDE8F04100F0F1
:102AB00089BABDE8F041FFF787BF95F86238012B6E
:102AC00004D1137903F00303022B4FD0107900F0E7
:102AD0000301012912D0022907D0C04380070DD07D
:102AE000EC6017E03046BDE8F08185F86278F7E7E2
:102AF000107918B1012085F86208F1E785F862487D
:102B0000EEE7127917212846172A00D811460A46FF
:102B10001E4909E02046E6E7127A1B2128461B2AB7
:102B200000D811460A461A4900F0DDFAF2E7BDE87E
:102B3000F04100F008BABDE8F04100F07CB9BDE812
:102B4000F04100F0AFB9BDE8F04100F0C3B8BDE816
:102B5000F04100F015B9BDE8F04100F0D4BABDE88D
:102B6000F04100F034BB5278920704D524230522AB
:102B700000F068FAB6E705F66C020CCAFFF711FF21
:102B80000028AFDB2046EC60ADE700005C010020D0
:102B9000730100202DE9F047D0F8BC420646884674
:102BA000B4F86408D4F870584FF0FF374543D4B1F7
:102BB0004FF400618D4200D30D46B5FBF0F083B2B7
:102BC000D6F8C00204F11001D4F86C28D0F810C077
:102BD00089464046E047002808DA1123042241468E
:102BE000304600F02FFA3846BDE8F0872B464A46BB
:102BF0008121304600F078FEB4F86408D4F86C28DF
:102C0000B5FBF0F1B5FBF0F01144C4F86C18D4F842
:102C10007018081AC4F87008D4F83818A1EB050128
:102C2000C4F8381801D1032020720020DCE72DE918
:102C3000F047D0F8BC4206468946B4F86408D4F898
:102C400070584FF0FF384543D4B14FF40067BD4290
:102C500000D33D46B5FBF0F083B2D6F8C00204F1D4
:102C60001001D4F86C28D0F814C08A464846E047D2
:102C7000002808DA032304224946304600F0E2F92E
:102C80004046BDE8F087B4F86408D4F86C28B5FB7A
:102C9000F0F11144C4F86C18B5FBF0F1D4F87028C9
:102CA000531AC4F87038D4F83818A1EB0501C4F8E9
:102CB00038180AD04343BB4200D33B465246012159
:102CC000304600F06AFD0020DBE700213046FFF7C8
:102CD000B3FBF8E72DE9F041D0F8BC4215460646B3
:102CE00088464FF0FF3774B3207A78BB94F81C08FD
:102CF000000635D594F86208022809D0D6F8C0023B
:102D000081684046884748B13A230222414601E0A3
:102D10003A230222304600F095F914E068882979B8
:102D200040BA000440EA0122687941460243C4F8EF
:102D30006C28B5F8070043BA3046C4F87038FFF77E
:102D400030FE002803DA3846BDE8F0810FE0B4F821
:102D50006418D4F870084843D4F81818884204D08E
:102D6000202394F81D180522D4E7022020724FF486
:102D70000060E06041463046BDE8F041FFF70ABF21
:102D80002DE9F041D0F8BC421546064688464FF082
:102D9000FF379CB3207AA0BB94F81C0800063AD5F4
:102DA00094F86208022809D0D6F8C002816840462B
:102DB000884748B13A230222414601E03A230222E1
:102DC000304600F03FF919E06888297940BA0004DC
:102DD00040EA012268790243C4F86C28E888297A1D
:102DE00040BA000440EA0123687A41460343304672
:102DF000C4F87038FFF7D5FD002803DA3846BDE87F
:102E0000F0810FE0B4F86418D4F870084843D4F89F
:102E10001818884204D0202394F81D180522CFE703
:102E2000022020724FF40060E06041463046BDE869
:102E3000F041FFF7AFBE2DE9F041D0F8BC420F469C
:102E400005464FF0FF364CB1D5F8C00204F66402D7
:102E5000111D436838469847E8B902E03046BDE89E
:102E6000F08194F86208022815D0D4F86808401E52
:102E7000010E2174010C6174010AA174E074002038
:102E800020756075B4F86408010AA175E075082022
:102E9000E0600020E3E73A2302223946284600F0AA
:102EA000D1F8DBE72DE9F041D0F8BC421546884661
:102EB00006464FF0FF374CB1D6F8C00204F6640264
:102EC000111D43684046984798B902E03846BDE86E
:102ED000F08194F8620802280BD06889297B40BAF7
:102EE000000440EA0120697B0843E06000200146BD
:102EF0000AE03A2302224146304600F0A3F8E5E713
:102F00002218401C1174C0B2E2688242F8D8D4F88A
:102F10006808401E020E2275020C6275020AA27534
:102F2000E07521766176B4F86408010AA176E0764E
:102F30006889297B40BA000440EA0120697B084384
:102F4000E0600020C3E72DE9FC41D0F8BC420F4609
:102F500005464FF0FF3644B1D5F8C0026A4601A9D4
:102F600043683846984730BB02E03046BDE8FC81F4
:102F700094F8620802281ED0002001462218401C46
:102F800080B211740C28F9D30820E0740198401E17
:102F9000020E2275020C6275020AA275E07502200B
:102FA00020766176BDF80000010AA176E0760C205B
:102FB000E0600020DAE73A2302223946284600F092
:102FC00041F8D2E730B5D0F8BC124FF0FF3431B33E
:102FD000D1F818382BB3002004460B18401CC0B29F
:102FE0001C741228F9D3702008740C20C87591F84D
:102FF000600891F8613898421CD001EBC003401C76
:1030000093F840588D7493F844580D7793F84538E9
:10301000C0B24B7781F86008042809D00AE0204646
:1030200030BD91F81D182023052200F00BF8F6E7BB
:1030300081F860481220C8601079122800D8C86052
:10304000002030BDD0F8BC0200281CD090F86118D8
:1030500000EBC10181F8402890F8611800EBC10134
:1030600081F8443890F86128002100EBC20282F810
:10307000451890F86128521CD2B280F86128042AC1
:1030800001D180F8611870472DE9F041D0F8BC42B9
:10309000884605464FF0FF37E4B1D4F8180838B138
:1030A00094F81D18202305222846FFF7CBFF11E0D6
:1030B00094F86208052602280FD0D5F8C00281686E
:1030C0004046884760B13A23022241462846FFF72E
:1030D000B9FF26723846BDE8F0813A230222F5E7AF
:1030E0000020E060F7E710B508B1C26007E04FF0DC
:1030F000FF3010BD521E92B284188B5C2374002ADC
:10310000F8D1002010BD2DE9F041D0F8BC421546A1
:10311000064688464FF0FF37C4B3207A20B13046C8
:10312000BDE8F041FFF783BDD4F8180888B394F8E0
:103130001C08000637D4D6F8C0028168404688478C
:1031400028B13A230AE03046FFF77CFF1EE0D6F8AC
:10315000C002C1684046884718B127230222414671
:10316000F1E76888297940BA000440EA01226879C9
:1031700041460243C4F86C28B5F8070043BA30460C
:10318000C4F87038FFF70DFC002803DA3846BDE8B4
:10319000F08108E0B4F86408D4F870384343D4F8F8
:1031A0001808984204D0202394F81D180522CAE775
:1031B0004FF40060834200D3034601202072014691
:1031C00004F11002304600F0E8FA0020DFE72DE9B4
:1031D000F047D0F8BC421546064689464FF0FF3806
:1031E0005CB3207A20B13046BDE8F047FFF71FBD41
:1031F000D4F8180818B194F81C08000607D594F8FC
:103200001D18202305223046FFF71CFF30E0D6F8BA
:10321000C002816848468847052708B13A2306E07E
:10322000D6F8C002C1684846884738B12723022231
:1032300049463046FFF706FF277219E0688829796A
:1032400040BA000440EA012268790243C4F86C28BD
:10325000E888297A40BA000440EA0123687A49469E
:1032600003433046C4F87038FFF79BFB002802DAAE
:103270004046BDE8F087B4F86408D4F8703843439A
:10328000D4F818089842BAD14FF40060834200D3B2
:10329000034601202072014604F11002304600F07E
:1032A0007CFA0020E5E710200860C00110800020B3
:1032B00070470020704710B501F073FB002010BD6F
:1032C0000020704700207047084610B5D1024FF427
:1032D000006201F06BFB002010BD084610B5D10262
:1032E0004FF4006201F076FB002010BD70470178BA
:1032F000407841EA00207047FDF716BB10B594B046
:1033000038216846FCF7F8FF14210EA8FCF7F4FFFB
:103310004FF40070FEF7BAF8FEF71EF9174850F8A0
:10332000901F21F018010160052000904FF48030BB
:1033300001900120029002200324CDE907044821D6
:10334000CDE909010621CDE90B010D906846FEF794
:1033500073FB08B172B6FEE70F20CDE90E04002022
:1033600010901190129004210EA8FEF741FA002847
:1033700001D072B6FEE714B010BD0000001002408C
:103380000248016841F470010160704788ED00E077
:1033900010B5D0F8B8220AB152689047002010BD8D
:1033A000134610B50A46002100F0F7F9002010BDC1
:1033B000134610B50A46002100F096FA002010BD11
:1033C00010B50446802100F074FA2046BDE8104094
:1033D000002100F06EBA10B50521C0F89412002348
:1033E0001A46194600F0D9F9002010BD10B5022385
:1033F000C0F8943282611346C2610A46002100F08F
:1034000073FA002010BD10B50421C0F894120023F7
:103410001A46194600F068FA002010BDF8B50446B7
:103420000020ADF8000048880D46010A062947D063
:1034300006DC01290FD0022912D0032962D11DE038
:10344000072946D00F295DD1D4F8B402C26920E023
:10345000694690473BE0D4F8B412207C0A68F7E74D
:10346000207C02260028D4F8B80205D0C16A68463C
:1034700088470146467036E0816AF8E7C0B2062800
:1034800040D2DFE800F003090D111519D4F8B40299
:103490004268B2B3207CDBE7D4F8B4028268F8E774
:1034A000D4F8B402C268F4E7D4F8B4020269F0E7D1
:1034B000D4F8B4024269ECE7D4F8B4028269E8E7D0
:1034C000207CF0B9D4F8B802416B684688470146C1
:1034D00009E0207CA8B9D4F8B802016B6846884797
:1034E000014607204870EA888AB1BDF8000040B163
:1034F000824200D90246ADF800202046FFF776FF51
:10350000F8BDFFE729462046FFF75AFFF8E72046B7
:10351000FFF779FFF4E770B5002300281ED00025DF
:10352000044602E06D1CEDB2641C2678002EF9D131
:10353000022404EB450414801278CA545B1C032255
:10354000CA5400245B1C06E0CA545B1CDAB28C54DB
:10355000521CD3B2401C0278002AF5D170BD010084
:103560004FF0000004D0012901D0022901D003202E
:1035700070470120704778B10023C0F8B832C0F816
:10358000C032C0F8CC3209B1C0F8B412012180F8C1
:103590009C12027000F0ACB80320704710B5D0F850
:1035A000C402FDF7DDFABDE81040FFF7D8BF10B543
:1035B000D0F8C402FDF7AFFABDE81040FFF7CFBF67
:1035C00070B51646044621B194F89C02032841D0F8
:1035D00048E0D4F8941204F114000025022932D1F5
:1035E000D0E902318B4206D95A1A82603146204610
:1035F000FFF7DEFE0FE0994214D14068884211D3F4
:10360000D4F8981288420DD2002211462046FFF7C6
:10361000CFFEC4F8985200231A461946204600F0FF
:10362000BCF810E094F89C02032805D1D4F8B80245
:10363000C16809B1204688478021204600F039F949
:103640002046FFF7C8FE94F8A00201280AD184F8AA
:10365000A05207E0D4F8B80242691AB12046904758
:10366000002800D1002070BD10B51346044621B1DA
:1036700094F89C02032823D02AE0D4F8941204F58D
:10368000AA70032924D1D0E9021291420AD98A1AD8
:103690008260C068824200D3024619462046FFF786
:1036A0007FFE15E094F89C02032805D1D4F8B802F7
:1036B000016909B1204688472046FFF7A4FE07E0CC
:1036C000D4F8B80282691AB120469047002800D188
:1036D000002010BD10B5D0F8C402FDF79CFCBDE879
:1036E0001040FFF73CBFD0F8C402FDF7AEBC0000AD
:1036F00010B51A490446C1F8D802C0F8C4121848D7
:1037000008600820087102204871C8710020087202
:1037100048728872C8720846FDF7D0FD08B1FCF700
:1037200050FE0022D4F8C4021823114604F5317467
:10373000FDF7C0F95823002280212068FDF7BAF96F
:103740009823002281212068FDF7B4F9D8230022B4
:1037500001212068FDF7AEF9002010BD300A0020DD
:10376000005C00400A0601F07F01D0F8C40201EBC2
:10377000810100EBC10001D5807C704790F85201B7
:10378000704710B51C461346D0F8C4022246FDF718
:1037900065FCBDE81040FFF7E2BE10B5D0F8C402EA
:1037A000FDF78AFCBDE81040FFF7D9BE70B50125D2
:1037B000044680F89C520020C4F894026060C4F86B
:1037C000A402D4F8B802E0B1D4F8BC1221B1426826
:1037D00012B1002120469047002240231146204686
:1037E000FFF7CFFF4026A4F8645133460022802122
:1037F0002046C4F86061FFF7C4FFA584002026625C
:1038000070BD032070BD90F89C12042903D190F87C
:103810009D1280F89C120020704710B5D0F8B812A5
:1038200021B190F89C22032A02D004E0032010BDAD
:10383000C96901B18847002010BD0174002070479C
:1038400010B5D0F8C402FDF7DFFDBDE81040FFF76A
:1038500086BE70B5044600F2AA20054600F0A2F923
:103860000120C4F89402B4F8B002C4F8980294F8A5
:10387000AA0210F01F010AD001290ED0022912D08D
:1038800000F080012046BDE8704000F012B82946E3
:103890002046BDE8704000F017BA29462046BDE832
:1038A000704000F03BBB29462046BDE8704000F068
:1038B00095BA10B5D0F8C402FDF715FCBDE810406C
:1038C000FFF74DBE10B5D0F8C402FDF7B7FDBDE857
:1038D0001040FFF744BE90F89C1280F89D1204211E
:1038E00080F89C120020704710B5D0F8C402FDF794
:1038F00029FCBDE81040FFF732BE000010B50A46B3
:10390000024903A0FFF707FE004810BDDC0F0020AE
:103910004D534320436F6E666967000010B5FEF794
:1039200003FD002010BD10B5FEF71DFD002010BDE9
:1039300070B504460121FFF73AFE0025A4F878513E
:1039400081212046FFF733FE2587D4F8BC0240B121
:103950002046FEF727FDD4F8BC0200F008FBC4F8AF
:10396000BC52002070BD0000122008800048704743
:10397000280000200A2101800048704744010020EF
:10398000202101800048704704010020202101808F
:1039900000487047E4000020202101800048704763
:1039A0002401002070B5044640F6740000F0E0FAEF
:1039B000C0B1C4F8BC02207C0125C0B14023022262
:1039C00001212046FFF7DDFEA4F8785140230222B2
:1039D00081212046FFF7D5FE25872046FEF7E9FC2A
:1039E000002070BD0020C4F8BC02022070BD4FF45E
:1039F00000763346022201212046FFF7C2FEA4F8DA
:103A000078513346E3E7000010B50A46024903A0A7
:103A1000FFF781FD004810BDDC0F00204D5343200F
:103A2000496E746572666163650000000420088059
:103A3000004870472400002010B50A46024903A040
:103A4000FFF769FD004810BDDC0F002053544D699D
:103A500063726F656C656374726F6E696373000087
:103A600010B50A46024903A0FFF755FD004810BDF6
:103A7000DC0F002053544D3332204D6173732053BB
:103A8000746F72616765000019B1C0F8C012002040
:103A9000704703207047000010B51A2008800A48BC
:103AA0000168001D0468001D0068081809D008227C
:103AB0000649FEF771FB0549042210312046FEF746
:103AC0006BFB0248801E10BD9075FF1F3E0000205A
:103AD000F8B50025D0F8BC720C460646ADF800508B
:103AE00037B1207810F0600123D0202940D101E0C7
:103AF0000320F8BD6178FE2902D0FF2938D10EE0FD
:103B0000618881BBE188012932D1000630D5D6F821
:103B1000C002806980470122394638601FE0618811
:103B200009BBE188F9B9000622D43046FEF767FCEC
:103B300023E0607830B1012824D00A2809D00B286E
:103B400016D111E096F89C02032811D10222694691
:103B500005E096F89C0203280AD10122391D30465F
:103B6000FFF744FC09E003E096F89C02032806D026
:103B700021463046FFF724FC03252846F8BDA078EF
:103B80007860FAE796F89C020328F6D1608800284E
:103B9000F3D121793046FFF79DFD21793046FEF7BC
:103BA000A5FBEAE770B5054611F8010B2870087807
:103BB00068704C1C2046FFF79AFB6880A41C2046C6
:103BC000FFF795FBA880A01CFFF791FBE88070BD74
:103BD00038B504460020ADF8000049B1C4F8B81269
:103BE000C96A19B168468847C4F8CC02002038BDBC
:103BF000032038BD02460320D2F8B832002B02D091
:103C00001B681046184770472DE9F0410F462C4EAF
:103C10008978002504463170012906D939462046A5
:103C2000FFF7CEFB0320BDE8F08194F89C02022848
:103C30000CD003281DD039462046FFF7C1FB317850
:103C40002046FFF7A5FB03252846ECE799B320465D
:103C50006160FFF7CFFF050004D039462046FFF72B
:103C6000AFFBF1E72046FFF7CEFB032084F89C0270
:103C7000EAE74FF00208C1B1606888421BD0C1B2C8
:103C80002046FFF785FB317820466160FFF7B2FFE1
:103C9000050010D039462046FFF792FB21792046D7
:103CA000FFF776FB84F89C82CEE784F89C8220465E
:103CB0006160FFF76DFB2046FFF7A5FBC4E700003E
:103CC000A8000020FFF7FEBD2DE9F0410A7800258D
:103CD00012F0600208D0202A01D0402A71D1D0F819
:103CE000B8229268904731E04B78002201260A2BD7
:103CF00067D2DFE803F0415E6658660805662D2945
:103D0000FFF78CFB5FE004468888D8B9C888C8B93B
:103D10004888802816D200F07F0794F89C02032878
:103D200010D084F89E7239462046FFF789FD204660
:103D3000FFF769FB1FB1022084F89C0243E084F87E
:103D40009C6240E020463CE0FFF75EFF05463AE01B
:103D5000CB88012B35D190F89C32012B04D0022B5B
:103D600002D0032B2DD104E08260012200F1080172
:103D700016E00122011D13E090F89C22012A03D0D5
:103D8000022A01D0032A1CD1CA88022A19D1C6608E
:103D9000D0F8A41209B10321C160022200F10C0184
:103DA000FFF724FB0FE0498801290CD1C0F8A46279
:103DB00011E090F89C32012B08D0022B06D0032B87
:103DC00004D0FFF7FDFA2846BDE8F08149880129B3
:103DD000F9D1C0F8A422FFF716FBF4E72DE9F04172
:103DE0000D46044628780026097910F060000BD0B3
:103DF000202801D040286DD1D4F8B8022946826825
:103E000020469047064686E06878A8B3012822D06D
:103E100003287CD194F89C02022802D0032876D192
:103E20000BE0002973D0802971D02046FFF741FDB7
:103E300080212046FFF73DFD6DE0688838B931B13B
:103E4000802904D0E88810B92046FFF732FD2046CB
:103E5000FFF7D9FA5FE094F89C020228E1D003282A
:103E600055D16888A8BB480602D02046FFF796FBCC
:103E70002046FFF7C8FABFE7FFE794F89C02002747
:103E8000022802D0032842D111E009B180293ED195
:103E9000080601F07F0000EB800004EB800101D5F3
:103EA000143101E001F5AA7102220F602BE008062F
:103EB00001F00F0000EB800004EB80000BD5808C3C
:103EC00040B101F07F0000EB800004EB8005143569
:103ED0000CE020E01BE0B0F86401C0B101F07F000D
:103EE00000EB800004EB800505F5AA7541B180293F
:103EF00006D02046FFF736FC10B10120286000E014
:103F00002F60022229462046FFF770FA03E0294677
:103F10002046FFF755FA3046BDE8F08170B50646F9
:103F2000087800240D4610F0600003D0202801D04E
:103F3000402817D196F89C02012803D0022801D00E
:103F400003280FD1287901280CD8D6F8B802826846
:103F5000304690470446E888204306D13046FFF7B4
:103F600052FA02E03046FFF72BFA204670BD704748
:103F700000487047B80100202DE9F04F0C7800256B
:103F800030F8243048F68F121340CA78002A7DD0CA
:103F9000012A7CD0022A02D0032A79D0012548F2D6
:103FA0008002134320F824300E7830F8263048F68B
:103FB0008F7423403343134320F826300B7B48F2A1
:103FC000C00A48F6BF774CF280094BF68F764FF661
:103FD000FF7B4FF4004EE3B3CB7891F800C0022B87
:103FE00030F82C307ED048F68F6803EA080313437C
:103FF00020F82C30B0F8503091F800C0034403EBA7
:10400000CC03B1F808C02CF0010CA3F800C4B0F840
:10401000503091F800C0034403EBCC03B1F80AC060
:104020002CF0010CA3F804C44B7891F800C0002BCD
:1040300030F82C304FEA43437ED0002B06DA30F8BC
:104040002C30234043EA090320F82C3091F800C0BB
:1040500000E02EE030F82C305B0606D530F82C302E
:10406000234043EA0A0320F82C30CB780C78012B4C
:1040700030F8243003EA070301D083F02003134310
:1040800020F824300B7830F8231002E008E00DE02F
:1040900009E03140114320F823102846BDE8F08F95
:1040A00043F400737BE743F4C06378E743F4806331
:1040B00075E74B78002BB0F85030034424D00E78CD
:1040C00003EBC603CE8826F00106A3F800640B7844
:1040D00030F82360760608D530F82360264046EA9B
:1040E0000A0600E061E020F82360CB78012B06D0BF
:1040F0000B7830F82310394081F02001CAE70B78A3
:1041000030F823103940C5E70F7803EBC703CF8899
:1041100027F00107A3F80474B0F850300F78034477
:1041200003EBC703B3F80674C7F30907A3F80674D3
:1041300003F206430F6900E03DE05FB13E2F0DD86A
:104140004FEA570CFF0701D00CF1010C1F880BEA56
:104150008C2C0CE01F8847F400470AE04FEA571CFC
:10416000FF0601D1ACF1010C1F884EEA8C2C47EA06
:104170000C071F800F7830F827305B0406D530F825
:104180002730234043EA090320F827300B782BB16E
:1041900030F82310314081F400517BE70188314031
:1041A00081F440511143018077E7234048F28018A1
:1041B00043EA08031CE7002B06DA30F82C302340D2
:1041C00043EA090320F82C3091F800C030F82C3075
:1041D0005B0606D530F82C30234043EA0A0320F86A
:1041E0002C304B7813B1012B2DD035E0B0F8503086
:1041F0000C78034403EBC403B3F80244C4F309048A
:10420000A3F802440C6903F202435CB13E2C0ED8C1
:104210004FEA540CE40701D00CF1010C1C880BEAA6
:104220008C2C0DE01C8844F400441C8014E04FEA00
:10423000541CE40601D1ACF1010C1C884EEA8C2C14
:1042400044EA0C04F1E7B0F850300C78034403EB77
:10425000C4030C8AA3F802444B7813B1012B2DD070
:1042600035E0B0F850300C78034403EBC403B3F8E6
:104270000644C4F30904A3F806440C6903F2064398
:104280005CB13E2C0ED84FEA540CE40701D00CF17F
:10429000010C1C880BEA8C2C0DE01C8844F40044B3
:1042A0001C8014E04FEA541CE40601D1ACF1010C6F
:1042B0001C884EEA8C2C44EA0C04F1E7B0F850401C
:1042C00023180C7803EBC4030C8AA3F806440C787B
:1042D00030F82430334083F44053134320F8243023
:1042E0000DE72DE9F04391F80C804F780A7848F6F5
:1042F000BF7C4BF68F7948F2800348F2C0054CF240
:10430000800648F68F74B8F1000F28D0002F30F8DF
:1043100022704FEA474748D0002F05DA30F8227064
:104320002740374320F822700A7830F822707F0641
:1043300005D530F8227027402F4320F822700D78E1
:1043400030F825202240324320F825200C7830F820
:10435000242002EA0C021A4320F824201AE07FB13C
:1043600030F82260760605D530F8226026402E43CC
:1043700020F822600A7830F8221001EA0C010EE0E1
:1043800030F822506D0405D530F8225025403543D1
:1043900020F822500A7830F8221001EA0901194366
:1043A00020F822100020BDE8F083002F05DA30F855
:1043B00022702740374320F822700A7830F82260B4
:1043C000760605D530F8226026402E4320F822607C
:1043D0000E7830F8262022402A4320F826200C7838
:1043E00030F8242002EA09021A4320F82420C1E709
:1043F00030F8581F41F4004101800020704701212E
:1044000020F8401F0021018081800182084670470A
:1044100030F8401F4BF680729143018000207047B6
:1044200030B54B780A78002B48F68F7530F822307B
:1044300048F2800415D05B0607D530F822302B40B7
:1044400048F2C0052B4320F82230CA78012A1DD03B
:104450000A7830F8221048F6BF73194081F0200125
:1044600011E05B0407D530F822302B404CF2800578
:104470002B4320F822300A7830F822104BF68F7345
:10448000194081F44051214320F82210002030BD12
:1044900010B54A780978002A48F2800330F82120C4
:1044A00005D048F6BF74224082F0100204E04BF6BB
:1044B0008F74224082F480521A4320F82120002079
:1044C00010BD00002DE9F04706460C464878097BF0
:1044D0004FF0000848F68F7248F2801748F68F6355
:1044E00048F2800A012809D0002971D0E07802281A
:1044F0006FD001286ED00120BDE8F087A569206942
:10450000854200D9054691B1E17802291ED0206A82
:10451000401B2062207836F820104906B6F850106B
:10452000314401EBC00075D5A0F8065418E1ABB2D8
:10453000E2883046616900F0ADF9B6F850002178A4
:10454000304400EBC100A0F802540FE1216A81421F
:104550007AD9217836F821001040384326F8210016
:10456000206A401B2062207836F820104FF6FF7733
:10457000490661784FF4004967D511B101292AD065
:1045800030E0B6F85010314401EBC000B0F806142A
:10459000C1F30901A0F8061400F206404DB13E2D0A
:1045A0000CD86908EA0700D0491C028807EA812173
:1045B0000BE0018841F40041018013E06909EA063B
:1045C00000D1491E028849EA81210A43028009E09C
:1045D000EFE008E11DE1B6F85020911901EBC000B1
:1045E000A0F806546289ABB23046616900F052F916
:1045F0006069284460612169206A884202D9401BB1
:10460000206202E00546C4F82080607818B10128D5
:104610002BD032E02FE0B6F850002178304400EB88
:10462000C100B0F80214C1F30901A0F8021400F2AD
:1046300002405DB13E2D0ED86908EA0700D0491C42
:10464000028807EA81210DE0A0E018E0018841F42A
:104650000041018011E06909EA0600D1491E028883
:1046600049EA81210A43028007E0B6F85000217828
:10467000304400EBC100A0F80254228971E011B16E
:10468000012927D02DE0B6F85010314401EBC000CD
:10469000B0F80214C1F30901A0F8021400F20240BC
:1046A0004DB13E2D0CD86908EA0700D0491C02889C
:1046B00007EA81210BE0018841F40041018010E00C
:1046C0006909EA0600D1491E028849EA81210A43A4
:1046D000028006E0B6F85010314401EBC000A0F8AB
:1046E00002542289ABB23046616900F0D3F86069A8
:1046F000284460612169206A884202D9401B2062F7
:1047000002E00546C4F82080607810B1012836D058
:1047100026E0B6F850002178304400EBC100B0F834
:104720000614C1F30901A0F8061400F206404DB1C9
:104730003E2D0CD86908EA0700D0491C028807EA18
:1047400081210BE0018841F40041018008E0690902
:10475000EA0600D1491E028849EA81210A43028003
:104760006289ABB23046616900F094F8217836F87E
:10477000210048F6BF72104080F0300053E0B6F8D8
:1047800050108819217800EBC100CDE6227836F868
:104790002200184040EA0A0026F82200B6F850002D
:1047A0002278304400EBC2008BB2A0F80234228998
:1047B000D8E7A06908B9E07878B1217836F8210007
:1047C000184040EA0A0000BF26F82100A1692069CC
:1047D00081421ED9081AA0611DE0217836F8210017
:1047E00010403843F0E7E069A8B1217836F821009D
:1047F000430401D5430603D444F2400318420AD1CE
:1048000036F82100104048F2C002104326F821007B
:1048100001E0C4F81880217836F821004BF68F7239
:10482000104080F4405040EA0A0026F821000020A1
:1048300062E60021A0F844104BF68071A0F8401009
:104840000020704700207047002070470148FCF7A7
:1048500090BC0000300A0020B0F84400704710B54A
:1048600010445C0800F5806008D030F8022B01F895
:10487000012B120A01F8012B641EF6D1DA0701D0D0
:104880000088087010BD11B98021A0F84C100020DC
:104890007047000010B55B1C10445B0800F5806099
:1048A0000AD000BF11F8012B11F8014B42EA042293
:1048B00020F8022B5B1EF5D110BDFEE70907090E9B
:1048C000002804DB00F1E02080F80014704700F0BD
:1048D0000F0000F1E02080F8141D704710B54FF470
:1048E00000510348FCF708F8012800D0002010BD53
:1048F0000008004800B587B014216846FBF7FCFCAF
:104900000A48C16C41F00401C164C06C694600F002
:10491000040005904FF40050009000200190022008
:1049200002900348FBF7C4FE07B000BD0010024030
:104930000008004830B587B014216846FBF7DCFC5E
:104940000E48C16C41F00101C164C06C4FF4807429
:1049500000F001004FF090450590002221462846C6
:10496000FBF7D7FF012000210094CDE9010103915D
:1049700069462846FBF79CFE07B030BD0010024098
:104980004FF480714FF0904308B1012200E0002203
:104990001846FBF7BEBF4FF480714FF09040FBF715
:1049A000B0BF10B5FBF770FE002010BD30B5084C4D
:1049B0000C4408E0002104E014F8015B00F8015BFE
:1049C000491C9142F8D35B1EF4D2002030BD000098
:1049D000008000082DE9F0419046B1FBF8F5154A3A
:1049E00086B005FB082605461144B1FBF8F0CDE979
:1049F00002030120019000200F4900904FF4004075
:104A00001C46086104A96846FBF782FD6CB10027CB
:104A1000F5E8022331460020FBF7E4FD08367F1C51
:104A2000B7EBD80FF4D3641EF1D106B00020BDE877
:104A3000F0810000008000080020024086B0FBF7F3
:104A40007BFFFEF75BFCFDF717FDFDF779FDFDF73A
:104A500031FDFFF74FFFFFF76DFFFBF75FFF0446E8
:104A6000FBF75CFF144E00BFFBF758FF0546FFF74E
:104A700035FF30B1A542F7D305F16404FFF78BFF92
:104A8000F2E7A542F0D305F10A04002269460B487B
:104A9000FDF7F6F9002205A90848FDF7CFF99DF8C2
:104AA00002003178884202D03070012000E00020FE
:104AB000FFF766FFD8E7000000000020900100200B
:104AC0004FF04070E1EE100A7047008002021F00B4
:104AD000000053544D202020202050726F647563D5
:104AE00074202020202020202020302E3031000073
:104AF000000000000000010203040607080900008E
:104B0000204B000800000020900100001402000863
:104B1000E04B000890010020B01C0000700200086B
:104B20004113693914082D3A1B0839041A61041A13
:104B3000990413FD381B08090841170403090412DE
:104B4000013202164083042A5726020102030103A0
:104B50001A1A0313B7321B08A7041AC1041AC50492
:104B60001AC9041ADB041AB30413CA4A3308101909
:104B7000430115F9185324F41AA5A81A31045AD17F
:104B800098411A1D101A2704C11A8D101A81041A8F
:104B900099041A7504140902202008010104C03286
:104BA0000904180A020806500507058102D02C07DF
:104BB0000501070914202240292019070B1C0907A9
:104BC000201B0A0645213A40B812021A80021B082F
:104BD0002001322203120812622609121B11000062
:04000005080001D915
:00000001FF
