:020000040800F2
:1000000028200020C1020008B7290008F1270008B5
:10001000B5290008E10600082F4400080000000090
:10002000000000000000000000000000FD2C00089F
:100030005907000800000000FB2C0008092D0008EB
:10004000DB020008DB020008DB020008DB0200081C
:10005000DB020008DB020008DB020008DB0200080C
:10006000DB020008DB020008DB020008DB020008FC
:10007000DB020008DB020008DB020008DB020008EC
:10008000DB02000800000000DB020008DB020008C1
:10009000C1430008DB020008DB020008DB020008A5
:1000A000DB020008DB020008DB020008DB020008BC
:1000B000DB020008DB020008DB020008DB020008AC
:1000C000DB020008DB020008DB020008DB0200089C
:1000D000DB020008DB020008DB020008DB0200088C
:1000E000DB020008DB020008DB020008DB0200087C
:1000F000DB020008DB020008DB0200080000000051
:1001000000000000DB02000800000000DB02000825
:10011000DB02000800000000DB020008DB02000830
:10012000DB020008DB020008DB020008DB0200083B
:10013000DB0200080000000000000000DB020008F5
:10014000DB020008DB0200080000000000000000E5
:10015000000000000000000000000000000000009F
:10016000000000000000000000000000DB020008AA
:10017000DB0200080000000000000000000000009A
:1001800000000000DB02000800000000000000008A
:10019000000000000000000000000000000000005F
:1001A0000000000000000000DB020008DB02000885
:1001B000DB020008DB020008DB0200080000000090
:1001C00000000000DB02000800000000000000004A
:1001D000DB020008DB02000800F002F800F061F822
:1001E0000AA090E8000C82448344AAF10107DA4592
:1001F00001D100F056F8AFF2090EBAE80F0013F083
:10020000010F18BFFB1A43F001031847D043000049
:10021000F04300000A444FF0000C10F8013B13F0CB
:10022000070408BF10F8014B1D1108BF10F8015B4F
:10023000641E05D010F8016B641E01F8016BF9D142
:1002400013F0080F1EBF10F8014BAD1C0C1B09D199
:100250006D1E58BF01F801CBFAD505E014F8016B0B
:1002600001F8016B6D1EF9D59142D6D3704700009D
:100270000023002400250026103A28BF78C1FBD8AF
:10028000520728BF30C148BF0B607047642900F097
:100290008180002070471FB504F092F91FBD10B592
:1002A00010BD00F054F91146FFF7F5FF04F028F9EE
:1002B00000F072F903B4FFF7F2FF03BC00F07AF923
:1002C0000948804709480047FEE7FEE7FEE7FEE7EA
:1002D000FEE7FEE7FEE7FEE7FEE7FEE70448054926
:1002E000054A064B70470000792D0008D901000827
:1002F0002814002028200020281C0020281C002072
:100300000FB41CB5084B06AA7B44694600900598BB
:1003100000F005F904460020694600F013F9204674
:100320001CBC5DF814FB0000390200002DE9F0410F
:100330000E460446002020622046E168884730B31C
:10034000252805D0D4E901219047206A401CF2E716
:10035000E168204600278847050018D0A5F1410034
:10036000192802D820354FF4006732462946204626
:100370002760FFF78BFF40B1012804D0F61D26F05F
:1003800007060836D8E7361DD6E72846DAE7206A9A
:10039000BDE8F0812DE9F04106460024106875297A
:1003A000314616A510D0AFF30080002802DA404293
:1003B00013A507E031688A0701D512A502E04907B5
:1003C00004D511A5012401E0AFF3008000210A2229
:1003D00006F1240709E0B0FBF2FCB0FBF2F302FBEC
:1003E0001C00303078541846491C0028F3D12346AD
:1003F0002A463046BDE8F04100F032B80000000067
:100400002D0000002B000000200000004FF0000233
:1004100000B5134694469646203922BFA0E80C50FA
:10042000A0E80C50B1F12001BFF4F7AF090728BFD5
:10043000A0E80C5048BF0CC05DF804EB890028BF51
:1004400040F8042B08BF704748BF20F8022B11F07A
:10045000804F18BF00F8012B7047704770477047F6
:100460002DE9F0470D4699469246044600F12408CE
:100470000168880604D5E06921F01001216000E0E0
:100480000120A84201DD471B00E00027A1697A197D
:1004900002EB0900081AA0612078C00602D42046A9
:1004A000AFF30080002608E0D4E901211AF8060025
:1004B0009047206A401C761C20624E45F4DB207871
:1004C000C0060AD52046AFF3008006E0D4E901213A
:1004D00030209047206A401C2062381EA7F1010797
:1004E000F4DC07E0D4E9012118F805009047206A00
:1004F000401C2062281EA5F10105F3DC2046AFF365
:1005000000802078000602D50220BDE8F087012097
:10051000FBE7000001694A1C02610878704700B5DA
:100520008FB0CDE901310021059105497944CDE92C
:10053000031011466846FFF7F9FE0FB000BD00003A
:10054000E5FFFFFF0A6802F8010B0A607047754675
:1005500000F02CF8AE4605006946534620F007002F
:10056000854618B020B5FFF7B9FEBDE820404FF032
:1005700000064FF000074FF000084FF0000B21F08D
:100580000701AC46ACE8C009ACE8C009ACE8C0095A
:10059000ACE8C0098D46704710B50446AFF3008043
:1005A0002046BDE81040FFF785BE000000487047B8
:1005B000C813002001491820ABBEFEE72600020048
:1005C0007047000070B50446006881688268C1F316
:1005D000400112F0010F28D039BB816801F00D01F4
:1005E000012914D18168124A1140891C8160216857
:1005F0000320086000F07AFE054612E000F076FE67
:10060000401B02280DD920688068C00709D0E06D22
:1006100040F01000E065206E40F0010020660120EF
:1006200070BD20688068C007E8D1002070BD000060
:10063000C0FFFF7FF8B50446002000902068816865
:1006400011F0010F41D18168214A11422ED18168F8
:10065000D5432940491C81601E48806800F0E07045
:1006600000020DD51C481D490068B0FBF1F0401C8C
:1006700000EB4000800000E0401E00900028FBD10D
:1006800000F034FE06461BE0816811F0010F03D133
:1006900081682940491C816000F028FE801B0228E7
:1006A0000ED920680068C043C00709D0E06D40F053
:1006B0001000E065206E40F0010020660120F8BDCA
:1006C00020680168C943C907DED10020F8BD0000D9
:1006D0003F0000800003005078000020400D030020
:1006E000FEE70020704700207047000010B5002290
:1006F0000449054802F0CBFC0449034802F0BEFC63
:10070000002010BDC80F0020F8060020C80B0020F4
:1007100010B50146034802F0B1FC024802F076FC35
:10072000002010BDF806002000207047094A10B5CF
:10073000D2F8BC22D2F814220AB1012010BD0A4618
:100740000146044802F0A3FCBDE81040014802F055
:1007500008BD0000F8060020704772B6FEE70000F2
:10076000F8B500260446009690F858000D4601287A
:100770000BD0012084F858002046FFF723FF01002A
:10078000E06D04D040F010002AE00220F8BD20F413
:10079000885040F00200E06520688268134B1A40E0
:1007A00005F080431A4342F000428260104A2068FC
:1007B0000EE0009B5B1C0093934209D3E06D20F098
:1007C000020040F01000E06584F858600120F8BD98
:1007D0008368DB0FEDD1E06D20F0020040F00100F6
:1007E000E06584F858600846F8BD0000C0FFFF3F90
:1007F00002DE04002DE9F84F00270446009790F828
:100800005800DFF8E0930D46B846012811D00126C4
:1008100084F85860206802F013F860B1E06D40F091
:100820002000E0655FF0010784F858803846BDE895
:10083000F88F0220FBE7D5E900210C23206803EAAA
:1008400091131844036B01F01F014FF01F0C0CFAB9
:1008500001FCC2F3846223EA0C038A40134303635E
:10086000206801F0EDFF8246206801F0E5FF5AEABA
:1008700000003CD1AA6829682068B2F1004F37D047
:1008800001F0EAFF2068416921F0004141612068E0
:100890006969C268C2F3C102520091402A69042A00
:1008A00031D000EB82002B68026EDFF83CC303F00E
:1008B000F84302EA0C020B431A4342F0004101667E
:1008C00020682A69A96900EB8200026E22F080721A
:1008D0000A430266297F22682869012910D0002175
:1008E00002EB8000026E22F000720A4302667DE095
:1008F000002201F0B1FF2068416941F00041C5E7E5
:100900004FF00071ECE7002101F090FF40032068F8
:100910004FF0000172D001F089FF90FAA0F0B0FA18
:1009200080F1286842036ED090FAA0F0B0FA80F00F
:10093000814204D100221146206801F09CFF012170
:10094000206801F073FF400320684FF001015DD083
:1009500001F06CFF90FAA0F0B0FA80F12868420331
:1009600059D090FAA0F0B0FA80F0814204D1002270
:100970000121206801F07FFF0221206801F056FF6D
:10098000400320684FF0020148D001F04FFF90FA79
:10099000A0F0B0FA80F12868420344D090FAA0F0A9
:1009A000B0FA80F0814204D100220221206801F0D7
:1009B00062FF0321206801F039FF400320684FF0F7
:1009C000030133D001F032FF90FAA0F0B0FA80F1C9
:1009D000286842032FD090FAA0F0B0FA80F081424C
:1009E00004D100220321206801F045FF20688168BE
:1009F00011F0010F22D0ACE000E004E001F016FF9E
:100A0000C0F384618DE7C0F3846091E701F00EFFCD
:100A1000C0F38461A2E7C0F38460A6E701F006FF9B
:100A2000C0F38461B7E7C0F38460BBE701F0FEFE6A
:100A3000C0F38461CCE7C0F38460D0E72A7B2968E7
:100A400050F8B03FC1F3120C23EA0C0302F0180C6B
:100A5000664A22FA0CF20A4013430360E9684945EA
:100A600077D1286841031CD090FAA0F1B1FA81F146
:100A7000491C01F01F0109294FEA403132D80029F1
:100A800012D000BF90FAA0F1B1FA81F101F1010199
:100A900001F01F0106FA01F609D100BFC0F384611D
:100AA00009E0C0F38461E3E7C0F38461EEE790FA04
:100AB000A0F1B1FA81F101F1010101F01F0146EA53
:100AC000816102D1C0F3846003E090FAA0F0B0FA33
:100AD00080F000F1010000F01F0000EB400041EA4F
:100AE000005132E000290ED090FAA0F1B1FA81F164
:100AF00001F1010101F01F0106FA01F606D100BF64
:100B0000C0F3846106E0C0F38461F1E790FAA0F1DC
:100B1000B1FA81F101F1010101F01F0146EA8161A1
:100B200002D1C0F3846003E090FAA0F0B0FA80F044
:100B300000F1010000F01F002D4A00EB400002EB25
:100B4000005041EA000141F00071AA68206801F0FC
:100B500083FE28482A6802423FF466AE2648816830
:100B6000264B01F0E0719A4202D0254B9A421CD1EB
:100B70000B021AD42268B2F1A04F7FF455AE8268FE
:100B800041F4000122F0E0720A4382601D481E49D0
:100B90000068B0FBF1F0401C00EB4000800000E07A
:100BA000401E00900028FBD13EE6184D184BAA428B
:100BB00007D1CD0105D422689A42F5D041F0807169
:100BC00009E0144DAA42EFD14A02EDD422689A42BC
:100BD000EAD041F48001826822F0E0720A43826028
:100BE00022E6000000007F4000F0FF03FFFF070047
:100BF000000020FE0000088000030050000021C318
:100C00001000C09078000020400D0300000052C783
:100C100000010050000084CBC06D70470068006C7C
:100C200070470000F8B54FF0000504002E4600950F
:100C300002D0E06D10B107E00120F8BD204600F0C1
:100C4000EBF8266684F8586020688168C1F340712B
:100C500019B18168684A1140816020688168C1F3D8
:100C6000007189B98168654A114041F08051816005
:100C7000634864490068B0FBF1F04000801C00E06C
:100C8000401E00900028FBD120688168C1F30071EC
:100C900041B9E16D41F01001E165216E41F00101C2
:100CA0002166012501F0CCFDE16DC90600D430B10B
:100CB000E06D40F01000E06501252846F8BDE06DCC
:100CC00020F4807040F00200E0652068806810F039
:100CD000010F11D14FF0A04080684B4900F0010096
:100CE000896801F00101084306D1484861688268BB
:100CF00022F47C120A438260E168E06B627F084361
:100D0000A16841EA4231084394F8241040EA0140C6
:100D1000012904D1218D3E4A02EB41410843E16A99
:100D200029B101F47871226B014342EA0100226883
:100D3000D168384B19400143D16020680169626B6A
:100D400021F0406111430161206801F075FD70BB25
:100D5000207F94F83810800340EA41022168C86877
:100D600044F2020398431043C860206900282068B9
:100D700001690AD041F480310161206850F8C01F38
:100D800022696FF30D01114307E021F48031016105
:100D9000206850F8C01F6FF30D01016094F8400007
:100DA00001280CD02068016921F00101016160690E
:100DB00001282068016B21F00F0111D013E0D4E964
:100DC00011010843D4E913121143084321680A6949
:100DD00040F2FC739A43104340F001000861E6E7DB
:100DE000226A521E11430163E06D20F0020040F0C0
:100DF0000100E06561E70000C0FFFF5FC0FFFF7F0B
:100E000078000020400D0300000100500003005056
:100E10000000FEFF0740F0FF10B598B00446142113
:100E200011A8FFF7F3FA44216846FFF7EFFA1549D6
:100E30002068884224D1C001009080030F9068464A
:100E400001F058F808B1FFF788FC0F48C16C41F475
:100E50000051C164C16C01F400511691C16C41F0A4
:100E60000201C164C06C11A900F0020016900420B8
:100E700011900320129000201390044800F000F914
:100E800018B010BD000100500010024000040048DE
:100E90002DE9F04104463B480F46816801F01F05EB
:100EA000A16908290FD085B1052D0ED0092D0CD0D0
:100EB000806800F4604060B1E06D40F02000E065C3
:100EC0000120BDE8F081082604E02068C068C00762
:100ED000F1E7042600F00AFA804615E0781C13D0EA
:100EE00000F004FAA0EB0800B84200D867B9206807
:100EF0000068304208D1E06D40F00400E065002059
:100F000084F858000320DCE7206800683042E5D010
:100F1000E06D40F40070E065206801F095FC80B160
:100F2000607F70B92068006800070AD5E06D20F482
:100F30008070E065E06DC00403D4E06D40F0010016
:100F4000E065114A20684FF0A041904201D10B4664
:100F500000E00346834210D07DB1052D0DD0092D50
:100F60000BD0904200D00146C968082E07D0490432
:100F700001D40C2101600020A3E7C168F5E7082136
:100F8000F8E7000000030050000100502DE9F04197
:100F900004463848806800F01F05206801F050FCC6
:100FA00018B102210846BDE8F08194F858000128E4
:100FB0000CD0012084F858002046FFF73BFB0100CD
:100FC0004FF0000304D084F85830EBE70220EAE742
:100FD000E06D40F60162904340F48070E065264A7F
:100FE00020684FF0A046904201D1374600E0074606
:100FF000874200D01DB9E76D27F48017E765E76DDC
:10100000FF0404D5276E27F00607276600E0236655
:101010001C27076084F858302068904201D133467D
:1010200000E00346834215D0A5B1052D12D0092D4D
:1010300010D0E36D43F48013E365904200D1304655
:10104000C0688001AED5E06D20F4005040F48050BF
:10105000E065A7E7C268920105D5E26D22F400526F
:1010600042F48052E2658268044B1A40121D82608D
:1010700098E700000003005000010050C0FFFF7F10
:101080002DE9F04FDFF82092002301260324A9F177
:10109000040B85B00F2709F1040AABF1040EFAE046
:1010A00006FA03F52A407CD091F804C00CF0030C3A
:1010B000BCF1010F02D0BCF1020F26D1D0F808C05C
:1010C000CDF800C04FEA430C04FA0CF8CDF810C07C
:1010D000DDF800C02CEA080CCDF800C0D1F80C8077
:1010E000DDF810C008FA0CF8DDF800C048EA0C087A
:1010F000C0F80880D0F804C02CEA050C0D79C5F3BF
:1011000000159D4045EA0C0545600D79ED43AD079E
:101110000ED0C5684FEA430804FA08FC25EA0C051E
:10112000D1F808C00CFA08FC4CEA050CC0F80CC059
:101130000D7905F00305022D16D1DD0800EB850CB5
:10114000CDF808C0DCF820805D074FEAD56C07FABF
:101150000CF528EA05080D6905FA0CF5DDF808C05C
:1011600045EA0805CCF8205005684FEA430CCDF855
:1011700008C004FA0CFC25EA0C0591F804C00CF038
:101180000308DDF808C008FA0CF848EA0508C0F8BA
:1011900000804D6815F4403F7CD0444DD5F860C0C8
:1011A00000E077E04CF0010CC5F860C02D6E23F034
:1011B000030C05F0010500953D4D65440295AD68B1
:1011C0004FEA837C4FEA1C7807FA08FC25EA0C05F5
:1011D000B0F1904F06D0DFF8DCC0604505D14FF08C
:1011E000010C20E04FF0000C1DE0DFF8CCC06045A2
:1011F00002D14FF0020C16E0DFF8C0C0604502D10A
:101200004FF0030C0FE0DFF8B8C0604502D14FF09B
:10121000040C08E0DFF8ACC0604502D14FF0050CCB
:1012200001E04FF0060C0CFA08FC4CEA050C029D9C
:10123000C5F808C0D9F80050CC46D1F804809543D1
:101240005FEAC82800D51543CCF80050DAF8005002
:10125000D446D1F8048095435FEA882800D5154329
:10126000CCF80050DBF80050DC46D1F80480954300
:101270005FEA883800D51543CCF80050DEF80050FE
:10128000F446D1F8048095435FEAC83800D5154389
:10129000CCF800505B1C0A6832FA03F57FF400AF0B
:1012A00005B0BDE8F08F00000804014000100240C6
:1012B000000001400004004800080048000C0048FD
:1012C00000100048001400480069084000D00120C8
:1012D0007047426921EA02030A4043EA0241816100
:1012E00070470AB181617047816270470148806828
:1012F000704700006C000020024881684268114479
:10130000816070476C00002010B50024032000F0BD
:1013100073F80F2000F008F808B1012401E000F094
:1013200025F8204610BD000070B50E4E054600247D
:10133000706898B14FF47A71B1FBF0F00A4909680E
:10134000B1FBF0F001F040FA40B9102D06D20022B6
:101350002946501E00F030F8356000E00124204698
:1013600070BD00006C000020780000200A4882B0A8
:10137000016E41F001010166016E01F00101009171
:10138000816D41F080518165806D00F0805000904A
:1013900002B000F0A7BD000000100240002809DBE9
:1013A00000F01F02012191404009800000F1E0207F
:1013B000C0F8001170470000F0B40E4B1B680C46DB
:1013C000C3F30223C3F10705042D00D90425191D19
:1013D000072901D2002300E0DB1E012606FA05F1F1
:1013E000491E214099409E40761E16403143F0BC74
:1013F00003F01EB80CED00E0064900F00702086893
:101400004FF6FF03184040EA0220034A10430860E9
:10141000704700000CED00E00000FA0501220168B1
:10142000C0F8D022002280F8C82231F8540F40F0D2
:1014300001000880088840F00200088010467047CC
:1014400070B50F4D044669B101290AD1D4F8D8020C
:1014500002F053F9607A002803D0286840F00600B3
:10146000286070BD607A28B101F050FC286820F037
:1014700006002860D4F8D802BDE8704002F0D5B864
:1014800010ED00E010B50C0607D501F0070101EBE7
:10149000810100EBC100103005E001EB810100EBA0
:1014A000C10000F5A87099B232B101220273018126
:1014B000190C4181002010BD00220273C180F9E7A0
:1014C00001EB810200EBC202D0F8D802526A01F0AF
:1014D0008ABF01EB810200EBC202D0F8D802D2F839
:1014E000642101F0D4BF70B504460B0601F007007B
:1014F00000EB800104EBC1014FF001024FF0000549
:1015000002D54A74103103E081F8515101F5A871F8
:10151000087094F89002012808D084F8902220687E
:1015200002F09DFC84F89052002070BD022070BD36
:1015300070B5044601F00F002279904201D90120D4
:1015400070BD0B0601F0070000EB800104EBC10148
:101550004FF001024FF0000502D54A74103103E04C
:1015600081F8515101F5A8718D70087094F89002BE
:10157000012808D084F89022206802F00FFD84F83A
:101580009052002070BD022070BD2DE9F047046824
:101590005FEA42480B788D69B4F850804FF0000C38
:1015A0004BF68F7748F2800648F68F7948F2C00AEA
:1015B000444428D540F2024808EBC30834F80840F8
:1015C000C4F30904A54203D32D1B8D6102D00BE0A7
:1015D000C1F818C0D0F800C03CF823503D4085F455
:1015E000005535432CF82350520609D50B78056871
:1015F00035F8232002EA090242EA0A0225F82320EC
:1016000074B30A8927E040F2064808EBC30834F8AF
:101610000840C4F30904A54203D32D1B8D6102D0F9
:101620000BE0C1F818C0D0F800C03CF823503D4092
:1016300085F4005535432CF82350520609D40D7813
:10164000036833F8252002EA090242EA0A0223F875
:1016500025202CB14A8949690068234602F0B9FE69
:101660002046BDE8F0872DE9F05F054600680C468E
:101670005FEA42681646D1F818C02278B0F8508068
:1016800048F6BF7A48F2800B48F68F774CF2800913
:101690004FF6FF734FF4004E4FF0000140447DD5EC
:1016A00040F2024808EBC20830F80800C0F3090015
:1016B000844514D9BCEB000CC4F818C010D07604D3
:1016C00008D5D5F800C03CF822603E4046EA09063D
:1016D0002CF8226094F82420012A60D076E1A161E0
:1016E000607810B1012813D01AE02868B0F85030A3
:1016F000184400EBC200B0F80224C2F30902A0F8BB
:101700000224B0F8022442F40042A0F8022407E0C8
:101710002868B0F85030184400EBC200A0F802145A
:101720006278286812B1012A11D018E0B0F8501080
:101730000844217800EBC100B0F80614C1F3090198
:10174000A0F80614B0F8061441F4004105E0B0F822
:1017500050201044227800EBC200A0F80614E07874
:1017600002280BD12278296831F8220000EA0A0009
:1017700080F0200040EA0B0021F822002178284662
:10178000FFF79EFE700408D521782A6832F8210000
:10179000384040EA090022F82100C3E04DE06269C8
:1017A00002446261E2690244E2612669226AB2424D
:1017B00002D33046111A03E084F824100AB110460F
:1017C0002162617811B101292BD033E02968B1F889
:1017D00050201144227801EBC201B1F80224C2F377
:1017E0000902A1F8022401F2024158B13E280ED8A4
:1017F0004208C60700D0521C0E8803EA8222164314
:101800000E8017E00A8842F400420A8012E0420982
:10181000C30600D1521E0B884EEA822213430B806E
:1018200008E02968B1F850201144227801EBC20188
:10183000A1F8020483B22289C4E040F2064808EB12
:10184000C20830F80800C0F30900844514D3BCEB8B
:10185000000CC4F818C010D0760408D4D5F800C025
:101860003CF822603E4046EA09062CF8226094F8D3
:101870002420012A59D0A9E0A161607810B1012883
:1018800013D01AE02868B0F85030184400EBC200BA
:10189000B0F80224C2F30902A0F80224B0F802242E
:1018A00042F40042A0F8022407E02868B0F8503063
:1018B000184400EBC200A0F802146278286812B144
:1018C000012A11D018E0B0F850100844217800EB3C
:1018D000C100B0F80614C1F30901A0F80614B0F86D
:1018E000061441F4004105E0B0F85020104422787D
:1018F00000EBC200A0F80614E07802280BD1217892
:101900002A6832F8210000EA0A0080F0200040EA4C
:101910000B0022F8210021782846FFF7D1FD700442
:101920007FF532AF0020BDE8F09F6269024462613A
:10193000E2690244E2612669226AB24203D3304678
:10194000111A216204E00AB11046216284F82410C1
:101950006278296812B1012A2AD031E0B1F850200A
:101960001144227801EBC201B1F80624C2F3090246
:10197000A1F8062401F2064158B13E280ED84208CB
:10198000C60700D0521C0E8803EA822216430E803E
:1019900016E00A8842F400420A8011E04209C306B8
:1019A00000D1521E0B884EEA822213430B8007E0BF
:1019B000B1F850201144227801EBC201A1F80604CD
:1019C000628983B26169286802F01EFD2278296865
:1019D00031F8220000EA0A0080F0300040EA0B00F3
:1019E00021F822009EE701F0070101EB810100EBE5
:1019F000C100D0F86C0170472DE9F04104460F0694
:101A000001F0070000EB800104EBC1014FF001067B
:101A10004FF0000502D54E74103103E081F85151AA
:101A200001F5A871022B0870C2F30A000861CB709F
:101A300000D10D7194F89002012809D084F89062C9
:101A4000206802F057F8284684F89052BDE8F081EB
:101A50000220FBE710B501F0070404EB840100EB62
:101A6000C101C1E959230022C1F86C2181F851213B
:101A700081F85041006801F5A87102F0E1FA0020F8
:101A800010BD70B5044601F007002279904201D9DB
:101A9000012070BD0B064FF000054FF0010206D586
:101AA00000EB800104EBC1014A74103107E001EB47
:101AB000810104EBC10181F8515101F5A8718A70CF
:101AC000087094F89002012808D084F890222068C9
:101AD00002F09CFA84F89052002070BD022070BD84
:101AE00010B501F0070404EB840100EBC101C1E96A
:101AF0000923012281F834200B630023CB624A744E
:101B000001F8104F006802F09BFA002010BD10B5DC
:101B10000446006802F05AFC010404D52046BDE8E2
:101B2000104000F049BF41050ED5206830F8441F31
:101B300021F480610180204600F008F92046BDE8CC
:101B40001040002100F02EB9410405D5206830F87E
:101B5000441F21F480417DE0810405D5206830F8E0
:101B6000441F21F4005175E0C1041FD5206830F8EE
:101B7000401F21F004010180206830F8401F21F04F
:101B80000801018094F8C802012806D1002084F8D9
:101B9000C80201462046FFF753FC204600F0EAF851
:101BA000206830F8441F21F4805153E0010512D51C
:101BB000206830F8401F41F008010180206830F8AB
:101BC000441F21F400610180206830F8401F41F07B
:101BD000040101800AE0010629D5206830F8441F7D
:101BE00021F08001018094F8C80218B1204600F06D
:101BF00009F910BD206830F8401F41F00401018050
:101C0000206830F8401F41F008010180012084F86D
:101C1000C8022068B0F854003C2101EA9000C4F8E2
:101C2000CC022046BDE810400121FFF709BC810528
:101C300009D5206830F8441F21F400710180204646
:101C400000F0ACF810BDC005FCD5206830F8441F8A
:101C500021F48071018010BD70B5040004D094F8A7
:101C60009102002510B106E0012070BD84F8905269
:101C7000204600F03FF8032084F89102206802F02B
:101C800085F9002001260BE000EB800104EBC10187
:101C90004E740874CD740D624D62401CC0B28D62EA
:101CA00021798142F0D8002012E000BF00EB8001D2
:101CB00004EBC10181F8515181F8500181F8535171
:101CC000C1F86051C1F86451401CC0B2C1F86851FC
:101CD00021798142EAD894E8070002F04EF9257391
:101CE00084F89162A07A012802D12046FFF796FB82
:101CF000002070BD10B592B0044644216846FEF73E
:101D000085FB1049206888421AD1401400900020B9
:101D10000D90684600F0EEF808B1FEF71EFD0A4887
:101D2000816D41F400018165806D002200F40000A6
:101D3000119011461420FFF73FFB1420FFF72EFBF4
:101D400012B010BD005C00400010024070B50446A7
:101D500040790125022801D0FEF7FFFC2946D4F87E
:101D6000D80201F07CFCD4F8D802BDE8704001F044
:101D70002FBC000010B50446407A30B10648016817
:101D800021F00601016000F0C1FFD4F8D802BDE8DF
:101D9000104001F04ABC000010ED00E0D0F8D8027D
:101DA00001F04DBC10B5044690F8900201280AD00D
:101DB000012084F890022173206802F01EFB0020AD
:101DC00084F8900210BD022010BDD0F8D82200F592
:101DD0002671104601F04FBC10B5044690F89002F1
:101DE00001280CD0012084F89002206802F0DFFA6C
:101DF000206802F0BBF8002084F8900210BD022099
:101E000010BD000010B50446D0F8D80201F075FCF2
:101E1000607A002804D00348016841F0060101609F
:101E200010BD000010ED00E02B492C4B0A68322158
:101E30004A432B4940B1B0F5007F086829D020F40F
:101E4000C06040F480602CE00868C0F341200228A4
:101E500004D051F8800F20F4807022E0D1F8800087
:101E600020F48070C1F88000086820F4C06040F45D
:101E700000700860B2FBF3F0401C00E0401E4A69AD
:101E8000520501D50028F9D1486940050AD503203B
:101E90007047C0F34120022806D051F8800F40F46B
:101EA0008070086000207047D1F8800040F4807096
:101EB000C1F88000086820F4C06040F40070086039
:101EC000B2FBF3F0401C00E0401E4A695205DBD52E
:101ED0000028F9D1D8E700007800002040420F0028
:101EE000007000400248816841F480418160704781
:101EF000007000402DE9F8430446006800269D4D1F
:101F000000035ED5A86D0027C00008D4A86D40F07E
:101F10008050A865A86D012700F080500090DFF880
:101F20005892D9F8001041F48071C9F80010FFF7F9
:101F3000DDF9804606E000BFFFF7D8F9A0EB080006
:101F400002282BD8D9F80000C005F5D5D5F89000A7
:101F500010F4407014D0216C814211D0D5F890005B
:101F6000D5F8901020F4407041F48031C5F89010FD
:101F7000D5F8901021F48031C5F89010C5F8900084
:101F8000C00711D0FFF7B2F9804641F2883907E067
:101F9000FFF7ACF9A0EB0801494501D903260BE096
:101FA000D5F890008007F3D5D5F89000216C20F487
:101FB00040700843C5F890001FB1A86D20F0805014
:101FC000A8652078C00707D0D5F88800616820F0A0
:101FD00003000843C5F888002078800707D5D5F8A6
:101FE0008800A16820F00C000843C5F8880020781C
:101FF000400707D5D5F88800E16820F03000084395
:10200000C5F888002078000707D5D5F88800216931
:1020100020F0C0000843C5F888002078800607D566
:10202000D5F88800616920F440600843C5F888004D
:102030002078400607D5D5F88800A16920F44050E3
:102040000843C5F888002078000607D5D5F8880031
:10205000E16920F440400843C5F888002088C005A5
:1020600007D5D5F88800216A20F440300843C5F828
:1020700088002088800507D5D5F88800616A20F49B
:1020800040200843C5F88800208840050FD5D5F8C2
:102090008800A16A20F440100843C5F88800A06AAF
:1020A000B0F5801F03D1E86840F48010E860208814
:1020B00000050FD5D5F88800E16A20F440000843F8
:1020C000C5F88800E06AB0F5800F03D1E86840F4F5
:1020D0008010E8602088C0040FD5D5F88800216BF7
:1020E00020F040700843C5F88800206BB0F1807F75
:1020F00003D1E86840F48010E86020884FF0006168
:1021000080040ED5D5F88800626B20F04060104343
:10211000C5F88800606B884203D1E86840F48010FD
:10212000E860208840040ED5D5F88800A26B20F026
:1021300040601043C5F88800A06B884203D1E8686E
:1021400040F48010E860208800040FD5D5F888009E
:10215000E16B20F040500843C5F88800E06BB0F117
:10216000805F03D1E86840F48030E8603046BDE825
:10217000F883000000100240007000402DE9F04795
:102180000E4605004FF0000725D0DFF8AC81D8F8E7
:10219000000000F00F00B0420CD2D8F8001021F07F
:1021A0000F013143C8F80010D8F8000000F00F000C
:1021B000B04210D12968614CC80741F2883A5AD020
:1021C0006868DFF87C91032808D0022820682DD0A9
:1021D000400500282CDB0120BDE8F0872068800145
:1021E000F9D5E06800F00302E068C0F30310401C7A
:1021F000032A19D0534A00BFB2FBF0F0E268C2F3E1
:1022000006225043E268C2F34162521C5200B0FB06
:10221000F2F0484517D9A06810F0F00F0CD08807ED
:1022200011D5A86840B10EE0474AE5E78003D0E742
:1022300000F092F8484506D9A06820F0F00040F080
:102240008000A0608027A068696820F00300084330
:10225000A060FFF74BF8814606E000BFFFF746F8A5
:10226000A0EB090151453AD8A068696800F00C005C
:10227000B0EB810FF2D12868810714D5400703D550
:10228000A06840F4E060A0602878000705D5A06849
:1022900020F4605040F4E060A060A068A96820F0DD
:1022A000F000084304E0802F03D1A06820F0F00084
:1022B000A060D8F80010404601F00F01B14216D9D5
:1022C000016821F00F0131430160FFF70FF8074665
:1022D00007E000BFFFF70AF8C11B514501D90320F1
:1022E0007AE7D8F8000000F00F00B042F2D1287869
:1022F000400705D5A068E96820F4E0600843A060C5
:102300002878000706D5A068296920F4605040EAC3
:10231000C100A06000F020F8A1680C4AC1F30311CD
:10232000515C01F01F01C840094908600948006874
:10233000BDE8F047FEF7F8BF002002400010024061
:1023400000B4C4040024F40000127A00CA45000856
:10235000780000206C000020184910B58868C0F390
:1023600081021748012A0BD08A684310C2F3810208
:10237000022A06D08A68C2F38102032A03D0002011
:1023800010BD184610BDCA6802F00304CA68C2F343
:102390000312521C032C02D0B0FBF2F001E0B3FB9D
:1023A000F2F0CA68C968C2F306225043C1F3416122
:1023B000491C4900B0FBF1F010BD000000100240C4
:1023C0000024F4002DE9F84304007AD02078F84D79
:1023D000C00747D0A868E96800F00C0001F00301CD
:1023E0000C2802D0082817D001E0032914D0606817
:1023F000B0F5803F17D0B0F5A02F286817D020F493
:1024000080302860286820F4802028606068E0B16F
:10241000FEF76CFF064614E02868800322D560684A
:102420000028D2D01EE0286840F48030EDE740F468
:1024300080202860F7E700BFFEF758FF801B642864
:1024400070D828688003F7D50CE0FEF74FFF0646EA
:1024500005E000BFFEF74AFF801B6428F0D828681B
:102460008003F7D4207880074CD5A868E96800F08D
:102470000C0001F003010C2802D004280DD001E06B
:1024800002290AD0E068002828682BD040F4807028
:102490002860FEF72BFF064619E02868400502D5A4
:1024A000E068002891D06868217C20F0FE4040EA76
:1024B00001606860BF480068FEF736FF002800D161
:1024C00020E072E1FEF712FF801B0228B8D82868CE
:1024D0004005F7D56868217C20F0FE4040EA0160A5
:1024E00068600FE020F480702860FEF7FFFE06466B
:1024F00005E000BFFEF7FAFE801B0228A0D828687E
:102500004005F7D42078000729D560690028D5F860
:10251000940013D040F00100C5F89400FEF7E6FEE9
:10252000064606E090E000BFFEF7E0FE801B0228B2
:1025300086D8D5F894008007F6D510E020F0010089
:10254000C5F89400FEF7D2FE064604E0FEF7CEFE84
:10255000801B022878D8D5F894008007F6D420781C
:10256000400761D5A86D0026C00008D4A86D40F0D2
:102570008050A865A86D012600F0805000908E481C
:102580000168C90511D40168804641F48071016079
:10259000FEF7ACFE074604E0FEF7A8FEC01B0228CB
:1025A00052D8D8F80000C005F6D5A068012815D08B
:1025B0000528D5F8900016D020F00100C5F890004D
:1025C000D5F8900020F00400C5F89000A06841F212
:1025D0008838B8B1FEF78AFE07460EE0D5F89000BD
:1025E00040F00100F0E740F00400C5F89000F5E786
:1025F000FEF77CFEC11B414526D8D5F89000800728
:10260000F6D50CE0FEF772FE074604E0FEF76EFE1C
:10261000C11B414518D8D5F890008007F6D41EB1EB
:10262000A86D20F08050A8652078800629D5A06983
:102630000028D5F8980013D040F00100C5F89800A4
:10264000FEF754FE064606E075E000BFFEF74EFEBC
:10265000801B02286FD8D5F898008007F6D510E0C7
:1026600020F00100C5F89800FEF740FE064604E0A1
:10267000FEF73CFE801B02285DD8D5F89800800745
:10268000F6D4E069F0B3A968C1F3810103295DD0F4
:102690000228286820F08070286003D0FEF726FE0C
:1026A00004464BE0FEF722FE064604E0FEF71EFE5F
:1026B000801B02283FD828688001F7D4F4E908017C
:1026C0006FF00F0202EB01110843218A52044908FE
:1026D00002EB4151A26841EA02210843217D4FF0FB
:1026E0007E42490802EB41610843217B40EAC16018
:1026F000E968324A11400843E860286840F0807079
:10270000286000E05EE0E86840F08070E860FEF776
:10271000EDFD044605E000BFFEF7E8FD001B0228C2
:1027200009D828688001F7D54CE000BFFEF7DEFD30
:10273000001B022802D90320BDE8F8832868800125
:10274000F4D4E8681E490840E8603BE00128F3D073
:10275000E868226A00F00301914226D1616A00F024
:10276000F0020901103991421FD1A26A00F4FE4122
:10277000B1EB022F19D194F82C2000F07841B1EB85
:10278000C26F12D1218E00F4C00249084905A1F59B
:102790000011914209D194F8341000F0C06049084A
:1027A0004906A1F1007181420CD00120C4E700006C
:1027B000001002406C000020007000400C809F015F
:1027C000FCFFEEFE0020B7E710B5401EB0F1807FA1
:1027D00001D3012010BD4FF0E02460610F2160178C
:1027E00001F026FE0020A06107202061002010BD1E
:1027F000FEE70000F0B500230A24302537261F46E7
:1028000011E000BFB4EB107F02D905EB107C01E0B2
:1028100006EB107C01F813C001EB430C00015B1CBC
:102820008CF80170DBB29342ECD3F0BD00EB810079
:10283000006E00F0F84070478068C0F3C000704739
:102840008068C0F380007047C06810F4406F01D00A
:102850000020704701207047042303EAD15310B5CC
:1028600018444369C1F3045107248C40A3438A40B0
:102870001343436110BD00EB8100016E21F0004164
:10288000114301667047000030B589B020216846C9
:10289000FDF7BCFD1D481C4900240160C902C0E9C8
:1028A0000114C46004250461C0E905450477447738
:1028B0000121016280F82440C462046380F838403A
:1028C000C46380F840101822426460228264C0E928
:1028D0001341FEF7A7F908B1FDF73FFF0C48009040
:1028E0000620019002907F20CDE903054FF0807013
:1028F000CDE9054069460548FDF77CFF002801D079
:10290000FDF72BFF09B030BD000100509001002001
:1029100000106032114808B5C16C41F00401C16477
:10292000C16C01F004010091C16C41F02001C1644F
:10293000C16C01F020010091C16C41F00201C16441
:10294000C16C01F002010091C16C41F00101C16450
:10295000C06C00F00100009008BD000000100240B3
:1029600010B500220F49104800F018FD08B1FDF71E
:10297000F4FE0E490C4800F0E8FE08B1FDF7EDFE4C
:102980000B49094800F056FB08B1FDF7E6FE064882
:1029900000F056FF002803D0BDE81040FDF7DDBE73
:1029A00010BD000004000020F8060020580100209F
:1029B00058000020FEE7FEE72DE9F84F044640F6F8
:1029C0008F7A40F2064B48F60F784FF000098BE102
:1029D000B0F8441011F00F053AD030F825603104FA
:1029E0007DD530F8251001EA0A0141F0800120F878
:1029F000251005EB850004EBC00797F85C0107F58F
:102A0000A87700286CD0F87802286AD03978226834
:102A100032F8210048F68F73184048F2C00318437B
:102A200022F821003878D4F800C03CF8201049047E
:102A3000BCF8501001EB0C027ED540F2024101EBD4
:102A4000C000105A8005800D009076D03A89A7E02A
:102A5000C9062AD4018801EA080141F40041018035
:102A6000206804F11005B0F85010227C014440F2B7
:102A7000024000EBC200085AC0F30900E062616A3C
:102A80000844606200212046FEF71AFD207B0028E2
:102A90009DD0A86900289AD1207B40F08001206851
:102AA000A0F84C1084F80C901EE1018804F5A8757C
:102AB0000A051ED5B0F850100A1829780BEBC10092
:102AC000105A04F52671C0F30903EB61EA88206807
:102AD00001F07FFC2168088800EA0A0002E07BE040
:102AE0003FE04EE040F0800008802046FFF76DF99F
:102AF000FAE00904D8D5018801EA0A0141F0800111
:102B000001802068B0F850102A7808440BEBC2010D
:102B1000405A83059B0DEB610DD0696959B1EA8874
:102B2000206801F056FCE969686908446861002181
:102B30002046FEF7CEFC01E02AE028E0206801886C
:102B40000A050DD4C1F30131032909D001884BF6E0
:102B50008F72114081F4405148F28002114301808C
:102B6000C2E02068B0F850103B780A180BEBC301A4
:102B7000515A8905890D009117D0FA887969009B0F
:102B800011E0324639462046FEF7FFFC00900CE08B
:102B90000BEBC000105A8005800D009005D07A899B
:102BA00003466046796901F014FCF969009808440D
:102BB000F8617869009908447861B86918B1396991
:102BC0000098814204D939782046FEF782FC03E060
:102BD0003946206801F034FA30062DD505EB850022
:102BE00004EBC001206830F8252002EA080242F414
:102BF000004220F82520C87C103101281DD0F005A6
:102C00006ED42068B0F8502013180A7840F20240C1
:102C100000EBC200185A8A69C0F30900824258D9F1
:102C2000121A8A6157D04A6902444A61CA6910443B
:102C3000C861206801F004FA56E0C1F818900A7BD8
:102C400048461AB3720622D54A7812B1012A14D026
:102C500041E02068B0F8502010440A7800EBC20030
:102C6000B0F80224C2F30902A0F80224B0F802244A
:102C700042F40042A0F802242DE02268B2F850305D
:102C80001A440B7802EBC302A2F8020423E04B784B
:102C9000226813B1012B13D01DE0B2F8500010448C
:102CA0000A7800EBC200B0F80624C2F30902A0F8CB
:102CB0000624B0F8062442F40042A0F806240AE0F4
:102CC000B2F850301A440B7802EBC302A2F80604A3
:102CD00001E0C1F8189009782046FEF7F1FB03E007
:102CE00032462046FEF7BFFC2068B0F844100904C5
:102CF0003FF56EAE0020BDE8F88F70477047017851
:102D0000407841EA00207047FEF7F6BA10B594B05B
:102D100038216846FDF77AFB14210EA8FDF776FBF3
:102D20000020FFF781F8212000904FF480300190BF
:102D30000120069002200324CDE907045521CDE9A6
:102D400009010B900C900D906846FFF73BFB08B112
:102D500072B6FEE70F20CDE90E040020109011900E
:102D6000129004210EA8FFF709FA002801D072B6CC
:102D7000FEE714B010BD00000248016841F4700184
:102D80000160704788ED00E010B50A46024903A0D3
:102D900000F0D4FA004810BDC80900204344432085
:102DA000436F6E66696700002DE9F0410C46D0F86C
:102DB000C422D0F8BC12E9B104EB840600EB86050E
:102DC0000027AB693BB102EBC602126AB3FBF2F615
:102DD00002FB163282B1C1F81472D0F8C002036946
:102DE0002BB1D1F80802224601F504719847002062
:102DF000BDE8F0810320FBE700231A462146AF61BE
:102E000000F084FCF3E770B5D0F8BC4205466CB125
:102E100000F073FBC4F80C02D5F8C012D4F8040219
:102E2000CA6804F503719047002070BD032070BD8F
:102E300070B50446812100F0CDFA002525870121D7
:102E4000204600F0C7FAA4F878518221204600F00D
:102E5000C1FAA4F84C50A4F84E50D4F8BC0248B1C2
:102E6000D4F8C00204F52F7440688047206800F051
:102E70003CFE2560002070BD12200880004870478D
:102E80002800002010B5D0F8BC4284B1D0F8C012A0
:102E900059B194F80002FF2807D08B6894F80122FA
:102EA00021469847FF2084F80002002010BD03202F
:102EB00010BD00000A2101800048704780000020FA
:102EC0004321018000487047D00000204321018049
:102ED000004870478C000020432101800048704763
:102EE000140100202DE9F04704464FF4077000F06C
:102EF000FDFD05004FF0000735D0C4F8BC52207C22
:102F00004FF010084FF40079012680B340230222CD
:102F10008121204600F047FB268740230222012121
:102F2000204600F040FBA4F87861A4F84E80082306
:102F300003228221204600F036FBA4F84C60D4F82E
:102F4000C00200688047C5F81472C5F81872207C6A
:102F5000D5F80422A8B140230121204600F02FFB20
:102F60000020BDE8F0870220C4F8BC72F9E7FFE753
:102F70004B4602228121204600F015FB26874B4656
:102F8000CCE74B46E8E7000010B50A46024903A02B
:102F900000F0D4F9004810BDC80900204344432084
:102FA000496E7465726661636500000004200880E4
:102FB000004870472400002010B50A46024903A0CB
:102FC00000F0BCF9004810BDC809002053544D69F9
:102FD00063726F656C656374726F6E696373000012
:102FE00010B50A46024903A000F0A8F9004810BD38
:102FF000C809002053544D333220566972747561EC
:103000006C20436F6D506F727400000010B5D0F8E3
:10301000BC1251B1027C002AD1F8042207D040230F
:10302000012100F0CCFA002010BD032010BD4FF4A8
:103030000073F5E719B1C0F8C012002070470320F3
:103040007047000010B51A2008800A480168001D6A
:103050000468001D0068081809D008220649FFF717
:10306000C9FB0549042210312046FFF7C3FB024883
:10307000801E10BD9075FF1F3E000020D0F8BC02DE
:1030800018B1C0F804120020704703207047D0F830
:10309000BC0228B1C0F81022C0F808120020704706
:1030A000032070472DE9FC410646D0F8BC72002091
:1030B0000C468DF80000ADF80400054637B12078C5
:1030C00010F0600128D0202944D102E00320BDE89F
:1030D000FC81E288C2B1000660780AD5D6F8C01239
:1030E0008B6839469847E288072A00D90722394673
:1030F00028E087F80002A07987F80102E2883946C3
:10310000304600F06CF82AE0D6F8C0126078002251
:103110008B682146984722E0607830B101281ED0A4
:103120000A2809D00B2815D110E096F89C02032834
:1031300010D1022201A905E096F89C02032809D1CA
:1031400001226946304600F064F808E096F89C02D7
:10315000032804D02146304600F036F803252846DF
:10316000B5E710B5D0F8BC12012219B1D1F814326C
:1031700013B10FE0032010BD0122C1F81422D1F8D1
:103180001022C262D1F81032D1F80822812100F059
:10319000BDFA0022104610BD10B5D0F8B8220AB111
:1031A00052689047002010BD134610B50A46002112
:1031B00000F005FA002010BD134610B50A460021A4
:1031C00000F0A4FA002010BD10B50446802100F0E4
:1031D00082FA2046BDE81040002100F07CBA10B50C
:1031E0000323C0F89432C0F858211346C0F85C217C
:1031F0000A46002100F0E3F9002010BD10B50521BA
:10320000C0F8941200231A46194600F0D8F900209D
:1032100010BD10B50223C0F8943282611346C2611A
:103220000A46002100F072FA002010BD10B50421FA
:10323000C0F8941200231A46194600F067FA0020DD
:1032400010BDF8B504460020ADF8000048880D46D2
:10325000010A062947D006DC01290FD0022912D025
:10326000032962D11DE0072946D00F295DD1D4F88A
:10327000B402C26920E0694690473BE0D4F8B4123A
:10328000207C0A68F7E7207C02260028D4F8B802E0
:1032900005D0C16A684688470146467036E0816AB3
:1032A000F8E7C0B2062840D2DFE800F003090D11AC
:1032B0001519D4F8B4024268B2B3207CDBE7D4F825
:1032C000B4028268F8E7D4F8B402C268F4E7D4F82C
:1032D000B4020269F0E7D4F8B4024269ECE7D4F82A
:1032E000B4028269E8E7207CF0B9D4F8B802416BF7
:1032F00068468847014609E0207CA8B9D4F8B8029E
:10330000016B68468847014607204870EA888AB101
:10331000BDF8000040B1824200D90246ADF800205D
:103320002046FFF776FFF8BDFFE729462046FFF766
:103330004BFFF8E72046FFF779FFF4E770B500236D
:1033400000281ED00025044602E06D1CEDB2641C6E
:103350002678002EF9D1022404EB4504148012785B
:10336000CA545B1C0322CA5400245B1C06E0CA54E6
:103370005B1CDAB28C54521CD3B2401C0278002A77
:10338000F5D170BD01004FF0000004D0012901D03B
:10339000022901D0032070470120704778B1002333
:1033A000C0F8B832C0F8C032C0F8CC3209B1C0F8A9
:1033B000B412012180F89C12027000F0A3B803201F
:1033C000704710B5D0F8C402FEF7B2F8BDE810405F
:1033D000FFF7D8BF10B5D0F8C402FEF784F8BDE8F7
:1033E0001040FFF7CFBF70B51646044621B194F8E0
:1033F0009C02032841D048E0D4F8941204F1140050
:103400000025022932D1D0E902318B4206D95A1A5D
:10341000826031462046FFF7CFFE0FE0994214D17B
:103420004068884211D3D4F8981288420DD2002205
:1034300011462046FFF7C0FEC4F8985200231A46F2
:103440001946204600F0BBF810E094F89C020328CF
:1034500005D1D4F8B802C16809B120468847802157
:10346000204600F038F92046FFF7C8FE94F8A00285
:1034700001280AD184F8A05207E0D4F8B8024269C2
:103480001AB120469047002800D1002070BD10B529
:103490001346044621B194F89C02032823D02AE065
:1034A000D4F8941204F5AA70032924D1D0E90212A9
:1034B00091420AD98A1A8260C068824200D30246C9
:1034C00019462046FFF770FE15E094F89C02032889
:1034D00005D1D4F8B802016909B1204688472046D1
:1034E000FFF7A4FE07E0D4F8B80282691AB12046BB
:1034F0009047002800D1002010BDD0F8C402FEF78C
:1035000072BA000010B51E490446C1F8D802C0F8CE
:10351000C4121C4808600820087102204871C87154
:103520000020087248728872C8720846FEF794FB41
:1035300008B1FDF712F90022D4F8C402182311468D
:1035400004F53174FDF79EFF582300228021206886
:10355000FDF798FFC023002281212068FDF792FF2C
:103560004FF48873002201212068FDF78BFF4FF490
:103570008073002282212068FDF784FF002010BDA7
:103580001C040020005C00400A0601F07F01D0F816
:10359000C40201EB810100EBC10001D5807C7047C2
:1035A00090F85201704710B51C461346D0F8C4027B
:1035B0002246FEF721FABDE81040FFF7E3BE10B542
:1035C000D0F8C402FEF746FABDE81040FFF7DABEB5
:1035D00070B50125044680F89C520020C4F894027E
:1035E0006060C4F8A402D4F8B802E0B1D4F8BC1208
:1035F00021B1426812B100212046904700224023A9
:1036000011462046FFF7CFFF4026A4F86451334609
:10361000002280212046C4F86061FFF7C4FFA58422
:103620000020266270BD032070BD90F89C12042912
:1036300003D190F89D1280F89C120020704710B5BD
:10364000D0F8B81221B190F89C22032A02D004E0ED
:10365000032010BDC96901B18847002010BD017465
:103660000020704710B5D0F8C402FEF79BFBBDE800
:103670001040FFF787BE70B5044600F2AA20054649
:1036800000F04DF80120C4F89402B4F8B002C4F878
:10369000980294F8AA0210F01F010AD001290ED056
:1036A000022912D000F080012046BDE8704000F0F1
:1036B00012B829462046BDE8704000F0C3B829463C
:1036C0002046BDE8704000F0E7B929462046BDE835
:1036D000704000F041B910B5D0F8C402FEF7D1F93E
:1036E000BDE81040FFF74EBE10B5D0F8C402FEF79B
:1036F00073FBBDE81040FFF745BE90F89C1280F8C0
:103700009D12042180F89C120020704710B5D0F85B
:10371000C402FEF7E5F9BDE81040FFF733BE70B50F
:10372000054611F8010B2870087868704C1C20467B
:10373000FFF7E5FA6880A41C2046FFF7E0FAA880AE
:10374000A01CFFF7DCFAE88070BD38B50446002005
:10375000ADF8000049B1C4F8B812C96A19B1684699
:103760008847C4F8CC02002038BD032038BD02468B
:103770000320D2F8B832002B02D01B68104618473D
:10378000704700002DE9F0410F462C4E8978002546
:1037900004463170012906D939462046FFF714FD49
:1037A0000320BDE8F08194F89C0202280CD0032885
:1037B0001DD039462046FFF707FD31782046FFF738
:1037C000EBFC03252846ECE799B320466160FFF740
:1037D000CEFF050004D039462046FFF7F5FCF1E79F
:1037E0002046FFF723FD032084F89C02EAE74FF010
:1037F0000208C1B1606888421BD0C1B22046FFF701
:10380000CBFC317820466160FFF7B1FF050010D096
:1038100039462046FFF7D8FC21792046FFF7BCFC4B
:1038200084F89C82CEE784F89C8220466160FFF792
:10383000B3FC2046FFF7FAFCC4E700007C00002040
:10384000FFF752BF2DE9F0410A78002512F060021F
:1038500008D0202A01D0402A71D1D0F8B82292682D
:10386000904731E04B78002201260A2B67D2DFE82F
:1038700003F0415E6658660805662D29FFF7E1FCF6
:103880005FE004468888D8B9C888C8B948888028C5
:1038900016D200F07F0794F89C02032810D084F819
:1038A0009E7239462046FFF7DDFE2046FFF7BEFC3C
:1038B0001FB1022084F89C0243E084F89C6240E03F
:1038C00020463CE0FFF75EFF05463AE0CB88012B3F
:1038D00035D190F89C32012B04D0022B02D0032B5F
:1038E0002DD104E08260012200F1080116E00122DE
:1038F000011D13E090F89C22012A03D0022A01D076
:10390000032A1CD1CA88022A19D1C660D0F8A41291
:1039100009B10321C160022200F10C01FFF779FC1B
:103920000FE0498801290CD1C0F8A46211E090F899
:103930009C32012B08D0022B06D0032B04D0FFF7BA
:1039400043FC2846BDE8F08149880129F9D1C0F837
:10395000A422FFF76BFCF4E72DE9F0410D46044685
:1039600028780026097910F060000BD0202801D0BB
:1039700040286DD1D4F8B802294682682046904785
:10398000064686E06878A8B3012822D003287CD1B7
:1039900094F89C02022802D0032876D10BE000297B
:1039A00073D0802971D02046FFF795FE80212046F4
:1039B000FFF791FE6DE0688838B931B1802904D0F5
:1039C000E88810B92046FFF786FE2046FFF72EFC58
:1039D0005FE094F89C020228E1D0032855D1688862
:1039E000A8BB480602D02046FFF7EBFC2046FFF7B5
:1039F0001DFCBFE7FFE794F89C020027022802D0D5
:103A0000032842D111E009B180293ED1080601F016
:103A10007F0000EB800004EB800101D5143101E050
:103A200001F5AA7102220F602BE0080601F00F00D9
:103A300000EB800004EB80000BD5808C40B101F0DE
:103A40007F0000EB800004EB800514350CE020E0E3
:103A50001BE0B0F86401C0B101F07F0000EB800012
:103A600004EB800505F5AA7541B1802906D02046F2
:103A7000FFF78AFD10B10120286000E02F600222CC
:103A800029462046FFF7C5FB03E029462046FFF7FD
:103A90009BFB3046BDE8F08170B5064608780024EF
:103AA0000D4610F0600003D0202801D0402817D127
:103AB00096F89C02012803D0022801D003280FD1D8
:103AC000287901280CD8D6F8B80282683046904789
:103AD0000446E888204306D13046FFF7A7FB02E002
:103AE0003046FFF771FB204670BD704700487047B5
:103AF000FC0100202DE9F04F0C78002530F824302F
:103B000048F68F121340CA78002A7DD0012A7CD053
:103B1000022A02D0032A79D0012548F280021343F9
:103B200020F824300E7830F8263048F68F74234081
:103B30003343134320F826300B7B48F2C00A48F683
:103B4000BF774CF280094BF68F764FF6FF7B4FF430
:103B5000004EE3B3CB7891F800C0022B30F82C3044
:103B60007ED048F68F6803EA0803134320F82C3010
:103B7000B0F8503091F800C0034403EBCC03B1F827
:103B800008C02CF0010CA3F800C4B0F8503091F834
:103B900000C0034403EBCC03B1F80AC02CF0010CC5
:103BA000A3F804C44B7891F800C0002B30F82C30F7
:103BB0004FEA43437ED0002B06DA30F82C30234006
:103BC00043EA090320F82C3091F800C000E02EE011
:103BD00030F82C305B0606D530F82C30234043EA11
:103BE0000A0320F82C30CB780C78012B30F82430E5
:103BF00003EA070301D083F02003134320F82430A5
:103C00000B7830F8231002E008E00DE009E03140C5
:103C1000114320F823102846BDE8F08F43F40073C9
:103C20007BE743F4C06378E743F4806375E74B7840
:103C3000002BB0F85030034424D00E7803EBC603B9
:103C4000CE8826F00106A3F800640B7830F82360D4
:103C5000760608D530F82360264046EA0A0600E0DA
:103C600061E020F82360CB78012B06D00B7830F888
:103C70002310394081F02001CAE70B7830F8231077
:103C80003940C5E70F7803EBC703CF8827F001075A
:103C9000A3F80474B0F850300F78034403EBC70363
:103CA000B3F80674C7F30907A3F8067403F20643D2
:103CB0000F6900E03DE05FB13E2F0DD84FEA570C91
:103CC000FF0701D00CF1010C1F880BEA8C2C0CE0D3
:103CD0001F8847F400470AE04FEA571CFF0601D14E
:103CE000ACF1010C1F884EEA8C2C47EA0C071F80B0
:103CF0000F7830F827305B0406D530F827302340A2
:103D000043EA090320F827300B782BB130F8231051
:103D1000314081F400517BE70188314081F440510A
:103D20001143018077E7234048F2801843EA0803F3
:103D30001CE7002B06DA30F82C30234043EA090355
:103D400020F82C3091F800C030F82C305B0606D5F6
:103D500030F82C30234043EA0A0320F82C304B780B
:103D600013B1012B2DD035E0B0F850300C7803445E
:103D700003EBC403B3F80244C4F30904A3F80244F8
:103D80000C6903F202435CB13E2C0ED84FEA540C8E
:103D9000E40701D00CF1010C1C880BEA8C2C0DE01F
:103DA0001C8844F400441C8014E04FEA541CE406D0
:103DB00001D1ACF1010C1C884EEA8C2C44EA0C04B5
:103DC000F1E7B0F850300C78034403EBC4030C8ADD
:103DD000A3F802444B7813B1012B2DD035E0B0F895
:103DE00050300C78034403EBC403B3F80644C4F327
:103DF0000904A3F806440C6903F206435CB13E2CA7
:103E00000ED84FEA540CE40701D00CF1010C1C88C9
:103E10000BEA8C2C0DE01C8844F400441C8014E058
:103E20004FEA541CE40601D1ACF1010C1C884EEAA7
:103E30008C2C44EA0C04F1E7B0F8504023180C78BD
:103E400003EBC4030C8AA3F806440C7830F8243042
:103E5000334083F44053134320F824300DE72DE919
:103E6000F04391F80C804F780A7848F6BF7C4BF607
:103E70008F7948F2800348F2C0054CF2800648F67C
:103E80008F74B8F1000F28D0002F30F822704FEA5D
:103E9000474748D0002F05DA30F8227027403743D3
:103EA00020F822700A7830F822707F0605D530F8A5
:103EB000227027402F4320F822700D7830F82520FB
:103EC0002240324320F825200C7830F8242002EAE2
:103ED0000C021A4320F824201AE07FB130F8226047
:103EE000760605D530F8226026402E4320F8226061
:103EF0000A7830F8221001EA0C010EE030F8225066
:103F00006D0405D530F822502540354320F8225065
:103F10000A7830F8221001EA0901194320F822102A
:103F20000020BDE8F083002F05DA30F8227027402A
:103F3000374320F822700A7830F82260760605D5DB
:103F400030F8226026402E4320F822600E7830F8A8
:103F5000262022402A4320F826200C7830F82420FE
:103F600002EA09021A4320F82420C1E730F8581F5A
:103F700041F40041018000207047012120F8401FDA
:103F800000210180818001820846704730F8401F7F
:103F90004BF68072914301800020704730B54B781A
:103FA0000A78002B48F68F7530F8223048F28004EA
:103FB00015D05B0607D530F822302B4048F2C005FB
:103FC0002B4320F82230CA78012A1DD00A7830F815
:103FD000221048F6BF73194081F0200111E05B0404
:103FE00007D530F822302B404CF280052B4320F8C7
:103FF00022300A7830F822104BF68F73194081F482
:104000004051214320F82210002030BD10B54A78DD
:104010000978002A48F2800330F8212005D048F6BC
:10402000BF74224082F0100204E04BF68F742240ED
:1040300082F480521A4320F82120002010BD000095
:104040002DE9F04706460C464878097B4FF00008FA
:1040500048F68F7248F2801748F68F6348F2800A5C
:10406000012809D0002971D0E07802286FD00128FA
:104070006ED00120BDE8F087A5692069854200D98E
:10408000054691B1E17802291ED0206A401B2062CA
:10409000207836F820104906B6F85010314401EB6C
:1040A000C00075D5A0F8065418E1ABB2E2883046DE
:1040B000616900F0A9F9B6F850002178304400EBAE
:1040C000C100A0F802540FE1216A81427AD9217817
:1040D00036F821001040384326F82100206A401BA2
:1040E0002062207836F820104FF6FF774906617875
:1040F0004FF4004967D511B101292AD030E0B6F854
:104100005010314401EBC000B0F80614C1F30901AE
:10411000A0F8061400F206404DB13E2D0CD86908F7
:10412000EA0700D0491C028807EA81210BE00188D8
:1041300041F40041018013E06909EA0600D1491EFB
:10414000028849EA81210A43028009E0EFE008E1A0
:104150001DE1B6F85020911901EBC000A0F80654FB
:104160006289ABB23046616900F04EF9606928445B
:1041700060612169206A884202D9401B206202E006
:104180000546C4F82080607818B101282BD032E0B1
:104190002FE0B6F850002178304400EBC100B0F8B1
:1041A0000214C1F30901A0F8021400F202405DB14B
:1041B0003E2D0ED86908EA0700D0491C028807EA9C
:1041C00081210DE0A0E018E0018841F40041018068
:1041D00011E06909EA0600D1491E028849EA8121F5
:1041E0000A43028007E0B6F850002178304400EB23
:1041F000C100A0F80254228971E011B1012927D031
:104200002DE0B6F85010314401EBC000B0F80214B4
:10421000C1F30901A0F8021400F202404DB13E2D95
:104220000CD86908EA0700D0491C028807EA8121F6
:104230000BE0018841F40041018010E06909EA06C1
:1042400000D1491E028849EA81210A43028006E022
:10425000B6F85010314401EBC000A0F80254228996
:10426000ABB23046616900F0CFF860692844606104
:104270002169206A884202D9401B206202E005467B
:10428000C4F82080607810B1012836D026E0B6F856
:1042900050002178304400EBC100B0F80614C1F39F
:1042A0000901A0F8061400F206404DB13E2D0CD8CD
:1042B0006908EA0700D0491C028807EA81210BE05F
:1042C000018841F40041018008E06909EA0600D153
:1042D000491E028849EA81210A4302806289ABB201
:1042E0003046616900F090F8217836F8210048F6F0
:1042F000BF72104080F0300053E0B6F850108819BB
:10430000217800EBC100CDE6227836F82200184073
:1043100040EA0A0026F82200B6F85000227830441D
:1043200000EBC2008BB2A0F802342289D8E7A06962
:1043300008B9E07878B1217836F82100184040EAD1
:104340000A0000BF26F82100A169206981421ED918
:10435000081AA0611DE0217836F82100104038438A
:10436000F0E7E069A8B1217836F82100430401D5CF
:10437000430603D444F2400318420AD136F8210020
:10438000104048F2C002104326F8210001E0C4F8B2
:104390001880217836F821004BF68F72104080F497
:1043A000405040EA0A0026F82100002062E6002181
:1043B000A0F844104BF68071A0F840100020704720
:1043C0000148FDF7A4BB00001C040020B0F8440025
:1043D000704710B510445C0800F5806008D030F8D4
:1043E000022B01F8012B120A01F8012B641EF6D1F1
:1043F000DA0701D00088087010BD11B98021A0F83B
:104400004C1000207047000010B55B1C10445B0886
:1044100000F580600AD000BF11F8012B11F8014BA4
:1044200042EA042220F8022B5B1EF5D110BDFEE704
:104430000907090E002804DB00F1E02080F80014D1
:10444000704700F00F0000F1E02080F8141D704765
:1044500010B54FF400510348FCF736FF012800D097
:10446000002010BD0008004800B587B01421684640
:10447000FBF7CCFF0A48C16C41F00401C164C06C79
:10448000694600F0040005904FF4005000900020B1
:104490000190022002900348FCF7F2FD07B000BD36
:1044A000001002400008004830B587B0142168466B
:1044B000FBF7ACFF0E48C16C41F00101C164C06C58
:1044C0004FF4807400F001004FF0904505900022F9
:1044D00021462846FCF705FF012000210094CDE984
:1044E0000101039169462846FCF7CAFD07B030BDBB
:1044F000001002404FF480714FF09040FCF7E9BE8D
:1045000088B0FCF701FFFEF701FCFEF703FAFEF7A7
:10451000BBF9FEF725FAFFF7A7FFFFF7C5FFFCF78A
:10452000E5FE00F1C804FCF7E1FE7F211C48FCF722
:1045300017F91C4EFCF7DAFE0546FFF789FF20B19C
:10454000A542F7D305F1C80427E0A542F2D305F54B
:10455000FA741348FCF71AFD08B172B6FEE70A2197
:104560000F48FCF795FC08B172B6FEE70C48FCF763
:1045700053FB800503D50A48FCF750FB30603068D8
:1045800048F6CC5148433268030C07A16846FBF754
:10459000B7FE81B26846FCF7C9F8FFF7ABFFC9E781
:1045A00090010020000000206164632076616C753A
:1045B000653A2025642025646D560D0A0000000030
:1045C0004FF04070E1EE100A70470000000000005C
:1045D000000001020304060708090000FC4500086A
:1045E000000000209001000014020008C4460008EA
:1045F00090010020981E0000700200084113792EDF
:104600001408AD2F1B08B9041AE1041345301C0827
:10461000892D04190C411704030904120114020224
:1046200002164083044057260201020301031A1AAE
:104630000313ED061B08E7041AE3041311071B0814
:10464000290432101937615324F4130A0632022A5E
:1046500040181C0902435B111DC0320904291A02CB
:104660000B1305241610010524011009010424026E
:1046700002052406170107058203081C100904918E
:10468000320A1D07050102432C070581070938443A
:104690002A40072A8107112B0907440A3B044413C7
:1046A000E52E1B08310413A53042081A850C13A906
:1046B0002D1B080708C11ACD101AC1041AD9041AF3
:0446C000B50400003D
:04000005080001D915
:00000001FF
